{
	"contracts/CropYieldIncentive.sol": {
		"CropYieldIncentive": {
			"abi": [
				{
					"inputs": [],
					"stateMutability": "nonpayable",
					"type": "constructor"
				},
				{
					"anonymous": false,
					"inputs": [
						{
							"indexed": false,
							"internalType": "uint256",
							"name": "id",
							"type": "uint256"
						},
						{
							"indexed": false,
							"internalType": "address",
							"name": "farmerAddress",
							"type": "address"
						},
						{
							"indexed": false,
							"internalType": "string",
							"name": "recommendedCrop",
							"type": "string"
						}
					],
					"name": "FarmerRegistered",
					"type": "event"
				},
				{
					"anonymous": false,
					"inputs": [
						{
							"indexed": false,
							"internalType": "uint256",
							"name": "id",
							"type": "uint256"
						},
						{
							"indexed": false,
							"internalType": "uint256",
							"name": "amount",
							"type": "uint256"
						}
					],
					"name": "RewardGiven",
					"type": "event"
				},
				{
					"anonymous": false,
					"inputs": [
						{
							"indexed": false,
							"internalType": "uint256",
							"name": "id",
							"type": "uint256"
						},
						{
							"indexed": false,
							"internalType": "uint256",
							"name": "actualYield",
							"type": "uint256"
						}
					],
					"name": "YieldUpdated",
					"type": "event"
				},
				{
					"inputs": [],
					"name": "farmerCount",
					"outputs": [
						{
							"internalType": "uint256",
							"name": "",
							"type": "uint256"
						}
					],
					"stateMutability": "view",
					"type": "function"
				},
				{
					"inputs": [
						{
							"internalType": "uint256",
							"name": "",
							"type": "uint256"
						}
					],
					"name": "farmers",
					"outputs": [
						{
							"internalType": "uint256",
							"name": "id",
							"type": "uint256"
						},
						{
							"internalType": "address payable",
							"name": "farmerAddress",
							"type": "address"
						},
						{
							"internalType": "string",
							"name": "recommendedCrop",
							"type": "string"
						},
						{
							"internalType": "uint256",
							"name": "predictedYield",
							"type": "uint256"
						},
						{
							"internalType": "uint256",
							"name": "actualYield",
							"type": "uint256"
						},
						{
							"internalType": "bool",
							"name": "rewarded",
							"type": "bool"
						}
					],
					"stateMutability": "view",
					"type": "function"
				},
				{
					"inputs": [],
					"name": "fundContract",
					"outputs": [],
					"stateMutability": "payable",
					"type": "function"
				},
				{
					"inputs": [],
					"name": "getContractBalance",
					"outputs": [
						{
							"internalType": "uint256",
							"name": "",
							"type": "uint256"
						}
					],
					"stateMutability": "view",
					"type": "function"
				},
				{
					"inputs": [],
					"name": "owner",
					"outputs": [
						{
							"internalType": "address",
							"name": "",
							"type": "address"
						}
					],
					"stateMutability": "view",
					"type": "function"
				},
				{
					"inputs": [
						{
							"internalType": "string",
							"name": "_recommendedCrop",
							"type": "string"
						},
						{
							"internalType": "uint256",
							"name": "_predictedYield",
							"type": "uint256"
						}
					],
					"name": "registerFarmer",
					"outputs": [],
					"stateMutability": "nonpayable",
					"type": "function"
				},
				{
					"inputs": [],
					"name": "rewardAmount",
					"outputs": [
						{
							"internalType": "uint256",
							"name": "",
							"type": "uint256"
						}
					],
					"stateMutability": "view",
					"type": "function"
				},
				{
					"inputs": [
						{
							"internalType": "uint256",
							"name": "id",
							"type": "uint256"
						},
						{
							"internalType": "uint256",
							"name": "_actualYield",
							"type": "uint256"
						}
					],
					"name": "updateYield",
					"outputs": [],
					"stateMutability": "nonpayable",
					"type": "function"
				},
				{
					"inputs": [],
					"name": "withdrawFunds",
					"outputs": [],
					"stateMutability": "nonpayable",
					"type": "function"
				}
			],
			"devdoc": {
				"kind": "dev",
				"methods": {},
				"version": 1
			},
			"evm": {
				"assembly": "    /* \"contracts/CropYieldIncentive.sol\":60:2356  contract CropYieldIncentive {... */\n  mstore(0x40, 0x80)\n    /* \"contracts/CropYieldIncentive.sol\":352:353  0 */\n  0x00\n    /* \"contracts/CropYieldIncentive.sol\":326:353  uint public farmerCount = 0 */\n  0x01\n  sstore\n    /* \"contracts/CropYieldIncentive.sol\":432:439  1 ether */\n  0x0de0b6b3a7640000\n    /* \"contracts/CropYieldIncentive.sol\":405:439  uint public rewardAmount = 1 ether */\n  0x03\n  sstore\n    /* \"contracts/CropYieldIncentive.sol\":633:684  constructor() {... */\n  callvalue\n  dup1\n  iszero\n  tag_1\n  jumpi\n  0x00\n  dup1\n  revert\ntag_1:\n  pop\n    /* \"contracts/CropYieldIncentive.sol\":666:676  msg.sender */\n  caller\n    /* \"contracts/CropYieldIncentive.sol\":658:663  owner */\n  0x00\n  dup1\n    /* \"contracts/CropYieldIncentive.sol\":658:676  owner = msg.sender */\n  0x0100\n  exp\n  dup2\n  sload\n  dup2\n  0xffffffffffffffffffffffffffffffffffffffff\n  mul\n  not\n  and\n  swap1\n  dup4\n  0xffffffffffffffffffffffffffffffffffffffff\n  and\n  mul\n  or\n  swap1\n  sstore\n  pop\n    /* \"contracts/CropYieldIncentive.sol\":60:2356  contract CropYieldIncentive {... */\n  dataSize(sub_0)\n  dup1\n  dataOffset(sub_0)\n  0x00\n  codecopy\n  0x00\n  return\nstop\n\nsub_0: assembly {\n        /* \"contracts/CropYieldIncentive.sol\":60:2356  contract CropYieldIncentive {... */\n      mstore(0x40, 0x80)\n      jumpi(tag_1, lt(calldatasize, 0x04))\n      shr(0xe0, calldataload(0x00))\n      dup1\n      0x8da5cb5b\n      gt\n      tag_11\n      jumpi\n      dup1\n      0x8da5cb5b\n      eq\n      tag_6\n      jumpi\n      dup1\n      0xbd097e21\n      eq\n      tag_7\n      jumpi\n      dup1\n      0xbd45b397\n      eq\n      tag_8\n      jumpi\n      dup1\n      0xf06facd4\n      eq\n      tag_9\n      jumpi\n      dup1\n      0xf7b2a7be\n      eq\n      tag_10\n      jumpi\n      jump(tag_1)\n    tag_11:\n      dup1\n      0x24600fc3\n      eq\n      tag_2\n      jumpi\n      dup1\n      0x54973c0e\n      eq\n      tag_3\n      jumpi\n      dup1\n      0x6f9fb98a\n      eq\n      tag_4\n      jumpi\n      dup1\n      0x8afdd669\n      eq\n      tag_5\n      jumpi\n    tag_1:\n      0x00\n      dup1\n      revert\n        /* \"contracts/CropYieldIncentive.sol\":2246:2353  function withdrawFunds() public onlyOwner {... */\n    tag_2:\n      callvalue\n      dup1\n      iszero\n      tag_12\n      jumpi\n      0x00\n      dup1\n      revert\n    tag_12:\n      pop\n      tag_13\n      tag_14\n      jump\t// in\n    tag_13:\n      stop\n        /* \"contracts/CropYieldIncentive.sol\":1423:1947  function updateYield(uint id, uint _actualYield) public onlyFarmer(id) {... */\n    tag_3:\n      callvalue\n      dup1\n      iszero\n      tag_15\n      jumpi\n      0x00\n      dup1\n      revert\n    tag_15:\n      pop\n      tag_16\n      0x04\n      dup1\n      calldatasize\n      sub\n      dup2\n      add\n      swap1\n      tag_17\n      swap2\n      swap1\n      tag_18\n      jump\t// in\n    tag_17:\n      tag_19\n      jump\t// in\n    tag_16:\n      stop\n        /* \"contracts/CropYieldIncentive.sol\":2098:2202  function getContractBalance() public view returns (uint) {... */\n    tag_4:\n      callvalue\n      dup1\n      iszero\n      tag_20\n      jumpi\n      0x00\n      dup1\n      revert\n    tag_20:\n      pop\n      tag_21\n      tag_22\n      jump\t// in\n    tag_21:\n      mload(0x40)\n      tag_23\n      swap2\n      swap1\n      tag_24\n      jump\t// in\n    tag_23:\n      mload(0x40)\n      dup1\n      swap2\n      sub\n      swap1\n      return\n        /* \"contracts/CropYieldIncentive.sol\":360:398  mapping(uint => Farmer) public farmers */\n    tag_5:\n      callvalue\n      dup1\n      iszero\n      tag_25\n      jumpi\n      0x00\n      dup1\n      revert\n    tag_25:\n      pop\n      tag_26\n      0x04\n      dup1\n      calldatasize\n      sub\n      dup2\n      add\n      swap1\n      tag_27\n      swap2\n      swap1\n      tag_28\n      jump\t// in\n    tag_27:\n      tag_29\n      jump\t// in\n    tag_26:\n      mload(0x40)\n      tag_30\n      swap7\n      swap6\n      swap5\n      swap4\n      swap3\n      swap2\n      swap1\n      tag_31\n      jump\t// in\n    tag_30:\n      mload(0x40)\n      dup1\n      swap2\n      sub\n      swap1\n      return\n        /* \"contracts/CropYieldIncentive.sol\":299:319  address public owner */\n    tag_6:\n      callvalue\n      dup1\n      iszero\n      tag_32\n      jumpi\n      0x00\n      dup1\n      revert\n    tag_32:\n      pop\n      tag_33\n      tag_34\n      jump\t// in\n    tag_33:\n      mload(0x40)\n      tag_35\n      swap2\n      swap1\n      tag_36\n      jump\t// in\n    tag_35:\n      mload(0x40)\n      dup1\n      swap2\n      sub\n      swap1\n      return\n        /* \"contracts/CropYieldIncentive.sol\":2004:2055  function fundContract() public payable onlyOwner {} */\n    tag_7:\n      tag_37\n      tag_38\n      jump\t// in\n    tag_37:\n      stop\n        /* \"contracts/CropYieldIncentive.sol\":326:353  uint public farmerCount = 0 */\n    tag_8:\n      callvalue\n      dup1\n      iszero\n      tag_39\n      jumpi\n      0x00\n      dup1\n      revert\n    tag_39:\n      pop\n      tag_40\n      tag_41\n      jump\t// in\n    tag_40:\n      mload(0x40)\n      tag_42\n      swap2\n      swap1\n      tag_24\n      jump\t// in\n    tag_42:\n      mload(0x40)\n      dup1\n      swap2\n      sub\n      swap1\n      return\n        /* \"contracts/CropYieldIncentive.sol\":1062:1373  function registerFarmer(string memory _recommendedCrop, uint _predictedYield) public {... */\n    tag_9:\n      callvalue\n      dup1\n      iszero\n      tag_43\n      jumpi\n      0x00\n      dup1\n      revert\n    tag_43:\n      pop\n      tag_44\n      0x04\n      dup1\n      calldatasize\n      sub\n      dup2\n      add\n      swap1\n      tag_45\n      swap2\n      swap1\n      tag_46\n      jump\t// in\n    tag_45:\n      tag_47\n      jump\t// in\n    tag_44:\n      stop\n        /* \"contracts/CropYieldIncentive.sol\":405:439  uint public rewardAmount = 1 ether */\n    tag_10:\n      callvalue\n      dup1\n      iszero\n      tag_48\n      jumpi\n      0x00\n      dup1\n      revert\n    tag_48:\n      pop\n      tag_49\n      tag_50\n      jump\t// in\n    tag_49:\n      mload(0x40)\n      tag_51\n      swap2\n      swap1\n      tag_24\n      jump\t// in\n    tag_51:\n      mload(0x40)\n      dup1\n      swap2\n      sub\n      swap1\n      return\n        /* \"contracts/CropYieldIncentive.sol\":2246:2353  function withdrawFunds() public onlyOwner {... */\n    tag_14:\n        /* \"contracts/CropYieldIncentive.sol\":746:751  owner */\n      0x00\n      dup1\n      sload\n      swap1\n      0x0100\n      exp\n      swap1\n      div\n      0xffffffffffffffffffffffffffffffffffffffff\n      and\n        /* \"contracts/CropYieldIncentive.sol\":732:751  msg.sender == owner */\n      0xffffffffffffffffffffffffffffffffffffffff\n      and\n        /* \"contracts/CropYieldIncentive.sol\":732:742  msg.sender */\n      caller\n        /* \"contracts/CropYieldIncentive.sol\":732:751  msg.sender == owner */\n      0xffffffffffffffffffffffffffffffffffffffff\n      and\n      eq\n        /* \"contracts/CropYieldIncentive.sol\":724:794  require(msg.sender == owner, \"Only the owner can perform this action\") */\n      tag_53\n      jumpi\n      mload(0x40)\n      0x08c379a000000000000000000000000000000000000000000000000000000000\n      dup2\n      mstore\n      0x04\n      add\n      tag_54\n      swap1\n      tag_55\n      jump\t// in\n    tag_54:\n      mload(0x40)\n      dup1\n      swap2\n      sub\n      swap1\n      revert\n    tag_53:\n        /* \"contracts/CropYieldIncentive.sol\":2307:2312  owner */\n      0x00\n      dup1\n      sload\n      swap1\n      0x0100\n      exp\n      swap1\n      div\n      0xffffffffffffffffffffffffffffffffffffffff\n      and\n        /* \"contracts/CropYieldIncentive.sol\":2299:2322  payable(owner).transfer */\n      0xffffffffffffffffffffffffffffffffffffffff\n      and\n        /* \"contracts/CropYieldIncentive.sol\":2299:2345  payable(owner).transfer(address(this).balance) */\n      0x08fc\n        /* \"contracts/CropYieldIncentive.sol\":2323:2344  address(this).balance */\n      selfbalance\n        /* \"contracts/CropYieldIncentive.sol\":2299:2345  payable(owner).transfer(address(this).balance) */\n      swap1\n      dup2\n      iszero\n      mul\n      swap1\n      mload(0x40)\n      0x00\n      mload(0x40)\n      dup1\n      dup4\n      sub\n      dup2\n      dup6\n      dup9\n      dup9\n      call\n      swap4\n      pop\n      pop\n      pop\n      pop\n      iszero\n      dup1\n      iszero\n      tag_58\n      jumpi\n      returndatasize\n      0x00\n      dup1\n      returndatacopy\n      revert(0x00, returndatasize)\n    tag_58:\n      pop\n        /* \"contracts/CropYieldIncentive.sol\":2246:2353  function withdrawFunds() public onlyOwner {... */\n      jump\t// out\n        /* \"contracts/CropYieldIncentive.sol\":1423:1947  function updateYield(uint id, uint _actualYield) public onlyFarmer(id) {... */\n    tag_19:\n        /* \"contracts/CropYieldIncentive.sol\":1490:1492  id */\n      dup2\n        /* \"contracts/CropYieldIncentive.sol\":899:909  msg.sender */\n      caller\n        /* \"contracts/CropYieldIncentive.sol\":870:909  farmers[id].farmerAddress == msg.sender */\n      0xffffffffffffffffffffffffffffffffffffffff\n      and\n        /* \"contracts/CropYieldIncentive.sol\":870:877  farmers */\n      0x02\n        /* \"contracts/CropYieldIncentive.sol\":870:881  farmers[id] */\n      0x00\n        /* \"contracts/CropYieldIncentive.sol\":878:880  id */\n      dup4\n        /* \"contracts/CropYieldIncentive.sol\":870:881  farmers[id] */\n      dup2\n      mstore\n      0x20\n      add\n      swap1\n      dup2\n      mstore\n      0x20\n      add\n      0x00\n      keccak256\n        /* \"contracts/CropYieldIncentive.sol\":870:895  farmers[id].farmerAddress */\n      0x01\n      add\n      0x00\n      swap1\n      sload\n      swap1\n      0x0100\n      exp\n      swap1\n      div\n      0xffffffffffffffffffffffffffffffffffffffff\n      and\n        /* \"contracts/CropYieldIncentive.sol\":870:909  farmers[id].farmerAddress == msg.sender */\n      0xffffffffffffffffffffffffffffffffffffffff\n      and\n      eq\n        /* \"contracts/CropYieldIncentive.sol\":862:964  require(farmers[id].farmerAddress == msg.sender, \"Only the registered farmer can perform this action\") */\n      tag_60\n      jumpi\n      mload(0x40)\n      0x08c379a000000000000000000000000000000000000000000000000000000000\n      dup2\n      mstore\n      0x04\n      add\n      tag_61\n      swap1\n      tag_62\n      jump\t// in\n    tag_61:\n      mload(0x40)\n      dup1\n      swap2\n      sub\n      swap1\n      revert\n    tag_60:\n        /* \"contracts/CropYieldIncentive.sol\":1505:1526  Farmer storage farmer */\n      0x00\n        /* \"contracts/CropYieldIncentive.sol\":1529:1536  farmers */\n      0x02\n        /* \"contracts/CropYieldIncentive.sol\":1529:1540  farmers[id] */\n      0x00\n        /* \"contracts/CropYieldIncentive.sol\":1537:1539  id */\n      dup6\n        /* \"contracts/CropYieldIncentive.sol\":1529:1540  farmers[id] */\n      dup2\n      mstore\n      0x20\n      add\n      swap1\n      dup2\n      mstore\n      0x20\n      add\n      0x00\n      keccak256\n        /* \"contracts/CropYieldIncentive.sol\":1505:1540  Farmer storage farmer = farmers[id] */\n      swap1\n      pop\n        /* \"contracts/CropYieldIncentive.sol\":1572:1584  _actualYield */\n      dup3\n        /* \"contracts/CropYieldIncentive.sol\":1551:1557  farmer */\n      dup2\n        /* \"contracts/CropYieldIncentive.sol\":1551:1569  farmer.actualYield */\n      0x04\n      add\n        /* \"contracts/CropYieldIncentive.sol\":1551:1584  farmer.actualYield = _actualYield */\n      dup2\n      swap1\n      sstore\n      pop\n        /* \"contracts/CropYieldIncentive.sol\":1600:1630  YieldUpdated(id, _actualYield) */\n      0xb5caada44c21534f899b80931d6822af878c135819ecf2b62cfb2b81d7f299d4\n        /* \"contracts/CropYieldIncentive.sol\":1613:1615  id */\n      dup5\n        /* \"contracts/CropYieldIncentive.sol\":1617:1629  _actualYield */\n      dup5\n        /* \"contracts/CropYieldIncentive.sol\":1600:1630  YieldUpdated(id, _actualYield) */\n      mload(0x40)\n      tag_64\n      swap3\n      swap2\n      swap1\n      tag_65\n      jump\t// in\n    tag_64:\n      mload(0x40)\n      dup1\n      swap2\n      sub\n      swap1\n      log1\n        /* \"contracts/CropYieldIncentive.sol\":1741:1747  farmer */\n      dup1\n        /* \"contracts/CropYieldIncentive.sol\":1741:1762  farmer.predictedYield */\n      0x03\n      add\n      sload\n        /* \"contracts/CropYieldIncentive.sol\":1725:1737  _actualYield */\n      dup4\n        /* \"contracts/CropYieldIncentive.sol\":1725:1762  _actualYield >= farmer.predictedYield */\n      lt\n      iszero\n        /* \"contracts/CropYieldIncentive.sol\":1725:1782  _actualYield >= farmer.predictedYield && !farmer.rewarded */\n      dup1\n      iszero\n      tag_66\n      jumpi\n      pop\n        /* \"contracts/CropYieldIncentive.sol\":1767:1773  farmer */\n      dup1\n        /* \"contracts/CropYieldIncentive.sol\":1767:1782  farmer.rewarded */\n      0x05\n      add\n      0x00\n      swap1\n      sload\n      swap1\n      0x0100\n      exp\n      swap1\n      div\n      0xff\n      and\n        /* \"contracts/CropYieldIncentive.sol\":1766:1782  !farmer.rewarded */\n      iszero\n        /* \"contracts/CropYieldIncentive.sol\":1725:1782  _actualYield >= farmer.predictedYield && !farmer.rewarded */\n    tag_66:\n        /* \"contracts/CropYieldIncentive.sol\":1721:1940  if (_actualYield >= farmer.predictedYield && !farmer.rewarded) {... */\n      iszero\n      tag_67\n      jumpi\n        /* \"contracts/CropYieldIncentive.sol\":1817:1821  true */\n      0x01\n        /* \"contracts/CropYieldIncentive.sol\":1799:1805  farmer */\n      dup2\n        /* \"contracts/CropYieldIncentive.sol\":1799:1814  farmer.rewarded */\n      0x05\n      add\n      0x00\n        /* \"contracts/CropYieldIncentive.sol\":1799:1821  farmer.rewarded = true */\n      0x0100\n      exp\n      dup2\n      sload\n      dup2\n      0xff\n      mul\n      not\n      and\n      swap1\n      dup4\n      iszero\n      iszero\n      mul\n      or\n      swap1\n      sstore\n      pop\n        /* \"contracts/CropYieldIncentive.sol\":1836:1842  farmer */\n      dup1\n        /* \"contracts/CropYieldIncentive.sol\":1836:1856  farmer.farmerAddress */\n      0x01\n      add\n      0x00\n      swap1\n      sload\n      swap1\n      0x0100\n      exp\n      swap1\n      div\n      0xffffffffffffffffffffffffffffffffffffffff\n      and\n        /* \"contracts/CropYieldIncentive.sol\":1836:1865  farmer.farmerAddress.transfer */\n      0xffffffffffffffffffffffffffffffffffffffff\n      and\n        /* \"contracts/CropYieldIncentive.sol\":1836:1879  farmer.farmerAddress.transfer(rewardAmount) */\n      0x08fc\n        /* \"contracts/CropYieldIncentive.sol\":1866:1878  rewardAmount */\n      sload(0x03)\n        /* \"contracts/CropYieldIncentive.sol\":1836:1879  farmer.farmerAddress.transfer(rewardAmount) */\n      swap1\n      dup2\n      iszero\n      mul\n      swap1\n      mload(0x40)\n      0x00\n      mload(0x40)\n      dup1\n      dup4\n      sub\n      dup2\n      dup6\n      dup9\n      dup9\n      call\n      swap4\n      pop\n      pop\n      pop\n      pop\n      iszero\n      dup1\n      iszero\n      tag_69\n      jumpi\n      returndatasize\n      0x00\n      dup1\n      returndatacopy\n      revert(0x00, returndatasize)\n    tag_69:\n      pop\n        /* \"contracts/CropYieldIncentive.sol\":1899:1928  RewardGiven(id, rewardAmount) */\n      0x7ed5179aa7adffa126c513f65086eccafdfd569eed93567299f95576c7199c86\n        /* \"contracts/CropYieldIncentive.sol\":1911:1913  id */\n      dup5\n        /* \"contracts/CropYieldIncentive.sol\":1915:1927  rewardAmount */\n      sload(0x03)\n        /* \"contracts/CropYieldIncentive.sol\":1899:1928  RewardGiven(id, rewardAmount) */\n      mload(0x40)\n      tag_70\n      swap3\n      swap2\n      swap1\n      tag_65\n      jump\t// in\n    tag_70:\n      mload(0x40)\n      dup1\n      swap2\n      sub\n      swap1\n      log1\n        /* \"contracts/CropYieldIncentive.sol\":1721:1940  if (_actualYield >= farmer.predictedYield && !farmer.rewarded) {... */\n    tag_67:\n        /* \"contracts/CropYieldIncentive.sol\":1494:1947  {... */\n      pop\n        /* \"contracts/CropYieldIncentive.sol\":1423:1947  function updateYield(uint id, uint _actualYield) public onlyFarmer(id) {... */\n      pop\n      pop\n      pop\n      jump\t// out\n        /* \"contracts/CropYieldIncentive.sol\":2098:2202  function getContractBalance() public view returns (uint) {... */\n    tag_22:\n        /* \"contracts/CropYieldIncentive.sol\":2149:2153  uint */\n      0x00\n        /* \"contracts/CropYieldIncentive.sol\":2173:2194  address(this).balance */\n      selfbalance\n        /* \"contracts/CropYieldIncentive.sol\":2166:2194  return address(this).balance */\n      swap1\n      pop\n        /* \"contracts/CropYieldIncentive.sol\":2098:2202  function getContractBalance() public view returns (uint) {... */\n      swap1\n      jump\t// out\n        /* \"contracts/CropYieldIncentive.sol\":360:398  mapping(uint => Farmer) public farmers */\n    tag_29:\n      mstore(0x20, 0x02)\n      dup1\n      0x00\n      mstore\n      keccak256(0x00, 0x40)\n      0x00\n      swap2\n      pop\n      swap1\n      pop\n      dup1\n      0x00\n      add\n      sload\n      swap1\n      dup1\n      0x01\n      add\n      0x00\n      swap1\n      sload\n      swap1\n      0x0100\n      exp\n      swap1\n      div\n      0xffffffffffffffffffffffffffffffffffffffff\n      and\n      swap1\n      dup1\n      0x02\n      add\n      dup1\n      sload\n      tag_72\n      swap1\n      tag_73\n      jump\t// in\n    tag_72:\n      dup1\n      0x1f\n      add\n      0x20\n      dup1\n      swap2\n      div\n      mul\n      0x20\n      add\n      mload(0x40)\n      swap1\n      dup2\n      add\n      0x40\n      mstore\n      dup1\n      swap3\n      swap2\n      swap1\n      dup2\n      dup2\n      mstore\n      0x20\n      add\n      dup3\n      dup1\n      sload\n      tag_74\n      swap1\n      tag_73\n      jump\t// in\n    tag_74:\n      dup1\n      iszero\n      tag_75\n      jumpi\n      dup1\n      0x1f\n      lt\n      tag_76\n      jumpi\n      0x0100\n      dup1\n      dup4\n      sload\n      div\n      mul\n      dup4\n      mstore\n      swap2\n      0x20\n      add\n      swap2\n      jump(tag_75)\n    tag_76:\n      dup3\n      add\n      swap2\n      swap1\n      0x00\n      mstore\n      keccak256(0x00, 0x20)\n      swap1\n    tag_77:\n      dup2\n      sload\n      dup2\n      mstore\n      swap1\n      0x01\n      add\n      swap1\n      0x20\n      add\n      dup1\n      dup4\n      gt\n      tag_77\n      jumpi\n      dup3\n      swap1\n      sub\n      0x1f\n      and\n      dup3\n      add\n      swap2\n    tag_75:\n      pop\n      pop\n      pop\n      pop\n      pop\n      swap1\n      dup1\n      0x03\n      add\n      sload\n      swap1\n      dup1\n      0x04\n      add\n      sload\n      swap1\n      dup1\n      0x05\n      add\n      0x00\n      swap1\n      sload\n      swap1\n      0x0100\n      exp\n      swap1\n      div\n      0xff\n      and\n      swap1\n      pop\n      dup7\n      jump\t// out\n        /* \"contracts/CropYieldIncentive.sol\":299:319  address public owner */\n    tag_34:\n      0x00\n      dup1\n      sload\n      swap1\n      0x0100\n      exp\n      swap1\n      div\n      0xffffffffffffffffffffffffffffffffffffffff\n      and\n      dup2\n      jump\t// out\n        /* \"contracts/CropYieldIncentive.sol\":2004:2055  function fundContract() public payable onlyOwner {} */\n    tag_38:\n        /* \"contracts/CropYieldIncentive.sol\":746:751  owner */\n      0x00\n      dup1\n      sload\n      swap1\n      0x0100\n      exp\n      swap1\n      div\n      0xffffffffffffffffffffffffffffffffffffffff\n      and\n        /* \"contracts/CropYieldIncentive.sol\":732:751  msg.sender == owner */\n      0xffffffffffffffffffffffffffffffffffffffff\n      and\n        /* \"contracts/CropYieldIncentive.sol\":732:742  msg.sender */\n      caller\n        /* \"contracts/CropYieldIncentive.sol\":732:751  msg.sender == owner */\n      0xffffffffffffffffffffffffffffffffffffffff\n      and\n      eq\n        /* \"contracts/CropYieldIncentive.sol\":724:794  require(msg.sender == owner, \"Only the owner can perform this action\") */\n      tag_79\n      jumpi\n      mload(0x40)\n      0x08c379a000000000000000000000000000000000000000000000000000000000\n      dup2\n      mstore\n      0x04\n      add\n      tag_80\n      swap1\n      tag_55\n      jump\t// in\n    tag_80:\n      mload(0x40)\n      dup1\n      swap2\n      sub\n      swap1\n      revert\n    tag_79:\n        /* \"contracts/CropYieldIncentive.sol\":2004:2055  function fundContract() public payable onlyOwner {} */\n      jump\t// out\n        /* \"contracts/CropYieldIncentive.sol\":326:353  uint public farmerCount = 0 */\n    tag_41:\n      sload(0x01)\n      dup2\n      jump\t// out\n        /* \"contracts/CropYieldIncentive.sol\":1062:1373  function registerFarmer(string memory _recommendedCrop, uint _predictedYield) public {... */\n    tag_47:\n        /* \"contracts/CropYieldIncentive.sol\":1158:1169  farmerCount */\n      0x01\n      0x00\n        /* \"contracts/CropYieldIncentive.sol\":1158:1171  farmerCount++ */\n      dup2\n      sload\n      dup1\n      swap3\n      swap2\n      swap1\n      tag_83\n      swap1\n      tag_84\n      jump\t// in\n    tag_83:\n      swap2\n      swap1\n      pop\n      sstore\n      pop\n        /* \"contracts/CropYieldIncentive.sol\":1205:1290  Farmer(farmerCount, payable(msg.sender), _recommendedCrop, _predictedYield, 0, false) */\n      mload(0x40)\n      dup1\n      0xc0\n      add\n      0x40\n      mstore\n      dup1\n        /* \"contracts/CropYieldIncentive.sol\":1212:1223  farmerCount */\n      sload(0x01)\n        /* \"contracts/CropYieldIncentive.sol\":1205:1290  Farmer(farmerCount, payable(msg.sender), _recommendedCrop, _predictedYield, 0, false) */\n      dup2\n      mstore\n      0x20\n      add\n        /* \"contracts/CropYieldIncentive.sol\":1233:1243  msg.sender */\n      caller\n        /* \"contracts/CropYieldIncentive.sol\":1205:1290  Farmer(farmerCount, payable(msg.sender), _recommendedCrop, _predictedYield, 0, false) */\n      0xffffffffffffffffffffffffffffffffffffffff\n      and\n      dup2\n      mstore\n      0x20\n      add\n        /* \"contracts/CropYieldIncentive.sol\":1246:1262  _recommendedCrop */\n      dup4\n        /* \"contracts/CropYieldIncentive.sol\":1205:1290  Farmer(farmerCount, payable(msg.sender), _recommendedCrop, _predictedYield, 0, false) */\n      dup2\n      mstore\n      0x20\n      add\n        /* \"contracts/CropYieldIncentive.sol\":1264:1279  _predictedYield */\n      dup3\n        /* \"contracts/CropYieldIncentive.sol\":1205:1290  Farmer(farmerCount, payable(msg.sender), _recommendedCrop, _predictedYield, 0, false) */\n      dup2\n      mstore\n      0x20\n      add\n        /* \"contracts/CropYieldIncentive.sol\":1281:1282  0 */\n      0x00\n        /* \"contracts/CropYieldIncentive.sol\":1205:1290  Farmer(farmerCount, payable(msg.sender), _recommendedCrop, _predictedYield, 0, false) */\n      dup2\n      mstore\n      0x20\n      add\n        /* \"contracts/CropYieldIncentive.sol\":1284:1289  false */\n      0x00\n        /* \"contracts/CropYieldIncentive.sol\":1205:1290  Farmer(farmerCount, payable(msg.sender), _recommendedCrop, _predictedYield, 0, false) */\n      iszero\n      iszero\n      dup2\n      mstore\n      pop\n        /* \"contracts/CropYieldIncentive.sol\":1182:1189  farmers */\n      0x02\n        /* \"contracts/CropYieldIncentive.sol\":1182:1202  farmers[farmerCount] */\n      0x00\n        /* \"contracts/CropYieldIncentive.sol\":1190:1201  farmerCount */\n      sload(0x01)\n        /* \"contracts/CropYieldIncentive.sol\":1182:1202  farmers[farmerCount] */\n      dup2\n      mstore\n      0x20\n      add\n      swap1\n      dup2\n      mstore\n      0x20\n      add\n      0x00\n      keccak256\n        /* \"contracts/CropYieldIncentive.sol\":1182:1290  farmers[farmerCount] = Farmer(farmerCount, payable(msg.sender), _recommendedCrop, _predictedYield, 0, false) */\n      0x00\n      dup3\n      add\n      mload\n      dup2\n      0x00\n      add\n      sstore\n      0x20\n      dup3\n      add\n      mload\n      dup2\n      0x01\n      add\n      exp(0x0100, 0x00)\n      dup2\n      sload\n      dup2\n      0xffffffffffffffffffffffffffffffffffffffff\n      mul\n      not\n      and\n      swap1\n      dup4\n      0xffffffffffffffffffffffffffffffffffffffff\n      and\n      mul\n      or\n      swap1\n      sstore\n      pop\n      0x40\n      dup3\n      add\n      mload\n      dup2\n      0x02\n      add\n      swap1\n      dup2\n      tag_85\n      swap2\n      swap1\n      tag_86\n      jump\t// in\n    tag_85:\n      pop\n      0x60\n      dup3\n      add\n      mload\n      dup2\n      0x03\n      add\n      sstore\n      0x80\n      dup3\n      add\n      mload\n      dup2\n      0x04\n      add\n      sstore\n      0xa0\n      dup3\n      add\n      mload\n      dup2\n      0x05\n      add\n      exp(0x0100, 0x00)\n      dup2\n      sload\n      dup2\n      0xff\n      mul\n      not\n      and\n      swap1\n      dup4\n      iszero\n      iszero\n      mul\n      or\n      swap1\n      sstore\n      pop\n      swap1\n      pop\n      pop\n        /* \"contracts/CropYieldIncentive.sol\":1306:1365  FarmerRegistered(farmerCount, msg.sender, _recommendedCrop) */\n      0xd1b00de820fb68e740812550c25879e97400dbbbf6760c08281f0a5734fb5b\n        /* \"contracts/CropYieldIncentive.sol\":1323:1334  farmerCount */\n      sload(0x01)\n        /* \"contracts/CropYieldIncentive.sol\":1336:1346  msg.sender */\n      caller\n        /* \"contracts/CropYieldIncentive.sol\":1348:1364  _recommendedCrop */\n      dup5\n        /* \"contracts/CropYieldIncentive.sol\":1306:1365  FarmerRegistered(farmerCount, msg.sender, _recommendedCrop) */\n      mload(0x40)\n      tag_87\n      swap4\n      swap3\n      swap2\n      swap1\n      tag_88\n      jump\t// in\n    tag_87:\n      mload(0x40)\n      dup1\n      swap2\n      sub\n      swap1\n      log1\n        /* \"contracts/CropYieldIncentive.sol\":1062:1373  function registerFarmer(string memory _recommendedCrop, uint _predictedYield) public {... */\n      pop\n      pop\n      jump\t// out\n        /* \"contracts/CropYieldIncentive.sol\":405:439  uint public rewardAmount = 1 ether */\n    tag_50:\n      sload(0x03)\n      dup2\n      jump\t// out\n        /* \"#utility.yul\":7:82   */\n    tag_89:\n        /* \"#utility.yul\":40:46   */\n      0x00\n        /* \"#utility.yul\":73:75   */\n      0x40\n        /* \"#utility.yul\":67:76   */\n      mload\n        /* \"#utility.yul\":57:76   */\n      swap1\n      pop\n        /* \"#utility.yul\":7:82   */\n      swap1\n      jump\t// out\n        /* \"#utility.yul\":88:205   */\n    tag_90:\n        /* \"#utility.yul\":197:198   */\n      0x00\n        /* \"#utility.yul\":194:195   */\n      dup1\n        /* \"#utility.yul\":187:199   */\n      revert\n        /* \"#utility.yul\":211:328   */\n    tag_91:\n        /* \"#utility.yul\":320:321   */\n      0x00\n        /* \"#utility.yul\":317:318   */\n      dup1\n        /* \"#utility.yul\":310:322   */\n      revert\n        /* \"#utility.yul\":334:411   */\n    tag_92:\n        /* \"#utility.yul\":371:378   */\n      0x00\n        /* \"#utility.yul\":400:405   */\n      dup2\n        /* \"#utility.yul\":389:405   */\n      swap1\n      pop\n        /* \"#utility.yul\":334:411   */\n      swap2\n      swap1\n      pop\n      jump\t// out\n        /* \"#utility.yul\":417:539   */\n    tag_93:\n        /* \"#utility.yul\":490:514   */\n      tag_144\n        /* \"#utility.yul\":508:513   */\n      dup2\n        /* \"#utility.yul\":490:514   */\n      tag_92\n      jump\t// in\n    tag_144:\n        /* \"#utility.yul\":483:488   */\n      dup2\n        /* \"#utility.yul\":480:515   */\n      eq\n        /* \"#utility.yul\":470:533   */\n      tag_145\n      jumpi\n        /* \"#utility.yul\":529:530   */\n      0x00\n        /* \"#utility.yul\":526:527   */\n      dup1\n        /* \"#utility.yul\":519:531   */\n      revert\n        /* \"#utility.yul\":470:533   */\n    tag_145:\n        /* \"#utility.yul\":417:539   */\n      pop\n      jump\t// out\n        /* \"#utility.yul\":545:684   */\n    tag_94:\n        /* \"#utility.yul\":591:596   */\n      0x00\n        /* \"#utility.yul\":629:635   */\n      dup2\n        /* \"#utility.yul\":616:636   */\n      calldataload\n        /* \"#utility.yul\":607:636   */\n      swap1\n      pop\n        /* \"#utility.yul\":645:678   */\n      tag_147\n        /* \"#utility.yul\":672:677   */\n      dup2\n        /* \"#utility.yul\":645:678   */\n      tag_93\n      jump\t// in\n    tag_147:\n        /* \"#utility.yul\":545:684   */\n      swap3\n      swap2\n      pop\n      pop\n      jump\t// out\n        /* \"#utility.yul\":690:1164   */\n    tag_18:\n        /* \"#utility.yul\":758:764   */\n      0x00\n        /* \"#utility.yul\":766:772   */\n      dup1\n        /* \"#utility.yul\":815:817   */\n      0x40\n        /* \"#utility.yul\":803:812   */\n      dup4\n        /* \"#utility.yul\":794:801   */\n      dup6\n        /* \"#utility.yul\":790:813   */\n      sub\n        /* \"#utility.yul\":786:818   */\n      slt\n        /* \"#utility.yul\":783:902   */\n      iszero\n      tag_149\n      jumpi\n        /* \"#utility.yul\":821:900   */\n      tag_150\n      tag_90\n      jump\t// in\n    tag_150:\n        /* \"#utility.yul\":783:902   */\n    tag_149:\n        /* \"#utility.yul\":941:942   */\n      0x00\n        /* \"#utility.yul\":966:1019   */\n      tag_151\n        /* \"#utility.yul\":1011:1018   */\n      dup6\n        /* \"#utility.yul\":1002:1008   */\n      dup3\n        /* \"#utility.yul\":991:1000   */\n      dup7\n        /* \"#utility.yul\":987:1009   */\n      add\n        /* \"#utility.yul\":966:1019   */\n      tag_94\n      jump\t// in\n    tag_151:\n        /* \"#utility.yul\":956:1019   */\n      swap3\n      pop\n        /* \"#utility.yul\":912:1029   */\n      pop\n        /* \"#utility.yul\":1068:1070   */\n      0x20\n        /* \"#utility.yul\":1094:1147   */\n      tag_152\n        /* \"#utility.yul\":1139:1146   */\n      dup6\n        /* \"#utility.yul\":1130:1136   */\n      dup3\n        /* \"#utility.yul\":1119:1128   */\n      dup7\n        /* \"#utility.yul\":1115:1137   */\n      add\n        /* \"#utility.yul\":1094:1147   */\n      tag_94\n      jump\t// in\n    tag_152:\n        /* \"#utility.yul\":1084:1147   */\n      swap2\n      pop\n        /* \"#utility.yul\":1039:1157   */\n      pop\n        /* \"#utility.yul\":690:1164   */\n      swap3\n      pop\n      swap3\n      swap1\n      pop\n      jump\t// out\n        /* \"#utility.yul\":1170:1288   */\n    tag_95:\n        /* \"#utility.yul\":1257:1281   */\n      tag_154\n        /* \"#utility.yul\":1275:1280   */\n      dup2\n        /* \"#utility.yul\":1257:1281   */\n      tag_92\n      jump\t// in\n    tag_154:\n        /* \"#utility.yul\":1252:1255   */\n      dup3\n        /* \"#utility.yul\":1245:1282   */\n      mstore\n        /* \"#utility.yul\":1170:1288   */\n      pop\n      pop\n      jump\t// out\n        /* \"#utility.yul\":1294:1516   */\n    tag_24:\n        /* \"#utility.yul\":1387:1391   */\n      0x00\n        /* \"#utility.yul\":1425:1427   */\n      0x20\n        /* \"#utility.yul\":1414:1423   */\n      dup3\n        /* \"#utility.yul\":1410:1428   */\n      add\n        /* \"#utility.yul\":1402:1428   */\n      swap1\n      pop\n        /* \"#utility.yul\":1438:1509   */\n      tag_156\n        /* \"#utility.yul\":1506:1507   */\n      0x00\n        /* \"#utility.yul\":1495:1504   */\n      dup4\n        /* \"#utility.yul\":1491:1508   */\n      add\n        /* \"#utility.yul\":1482:1488   */\n      dup5\n        /* \"#utility.yul\":1438:1509   */\n      tag_95\n      jump\t// in\n    tag_156:\n        /* \"#utility.yul\":1294:1516   */\n      swap3\n      swap2\n      pop\n      pop\n      jump\t// out\n        /* \"#utility.yul\":1522:1851   */\n    tag_28:\n        /* \"#utility.yul\":1581:1587   */\n      0x00\n        /* \"#utility.yul\":1630:1632   */\n      0x20\n        /* \"#utility.yul\":1618:1627   */\n      dup3\n        /* \"#utility.yul\":1609:1616   */\n      dup5\n        /* \"#utility.yul\":1605:1628   */\n      sub\n        /* \"#utility.yul\":1601:1633   */\n      slt\n        /* \"#utility.yul\":1598:1717   */\n      iszero\n      tag_158\n      jumpi\n        /* \"#utility.yul\":1636:1715   */\n      tag_159\n      tag_90\n      jump\t// in\n    tag_159:\n        /* \"#utility.yul\":1598:1717   */\n    tag_158:\n        /* \"#utility.yul\":1756:1757   */\n      0x00\n        /* \"#utility.yul\":1781:1834   */\n      tag_160\n        /* \"#utility.yul\":1826:1833   */\n      dup5\n        /* \"#utility.yul\":1817:1823   */\n      dup3\n        /* \"#utility.yul\":1806:1815   */\n      dup6\n        /* \"#utility.yul\":1802:1824   */\n      add\n        /* \"#utility.yul\":1781:1834   */\n      tag_94\n      jump\t// in\n    tag_160:\n        /* \"#utility.yul\":1771:1834   */\n      swap2\n      pop\n        /* \"#utility.yul\":1727:1844   */\n      pop\n        /* \"#utility.yul\":1522:1851   */\n      swap3\n      swap2\n      pop\n      pop\n      jump\t// out\n        /* \"#utility.yul\":1857:1983   */\n    tag_96:\n        /* \"#utility.yul\":1894:1901   */\n      0x00\n        /* \"#utility.yul\":1934:1976   */\n      0xffffffffffffffffffffffffffffffffffffffff\n        /* \"#utility.yul\":1927:1932   */\n      dup3\n        /* \"#utility.yul\":1923:1977   */\n      and\n        /* \"#utility.yul\":1912:1977   */\n      swap1\n      pop\n        /* \"#utility.yul\":1857:1983   */\n      swap2\n      swap1\n      pop\n      jump\t// out\n        /* \"#utility.yul\":1989:2093   */\n    tag_97:\n        /* \"#utility.yul\":2034:2041   */\n      0x00\n        /* \"#utility.yul\":2063:2087   */\n      tag_163\n        /* \"#utility.yul\":2081:2086   */\n      dup3\n        /* \"#utility.yul\":2063:2087   */\n      tag_96\n      jump\t// in\n    tag_163:\n        /* \"#utility.yul\":2052:2087   */\n      swap1\n      pop\n        /* \"#utility.yul\":1989:2093   */\n      swap2\n      swap1\n      pop\n      jump\t// out\n        /* \"#utility.yul\":2099:2241   */\n    tag_98:\n        /* \"#utility.yul\":2202:2234   */\n      tag_165\n        /* \"#utility.yul\":2228:2233   */\n      dup2\n        /* \"#utility.yul\":2202:2234   */\n      tag_97\n      jump\t// in\n    tag_165:\n        /* \"#utility.yul\":2197:2200   */\n      dup3\n        /* \"#utility.yul\":2190:2235   */\n      mstore\n        /* \"#utility.yul\":2099:2241   */\n      pop\n      pop\n      jump\t// out\n        /* \"#utility.yul\":2247:2346   */\n    tag_99:\n        /* \"#utility.yul\":2299:2305   */\n      0x00\n        /* \"#utility.yul\":2333:2338   */\n      dup2\n        /* \"#utility.yul\":2327:2339   */\n      mload\n        /* \"#utility.yul\":2317:2339   */\n      swap1\n      pop\n        /* \"#utility.yul\":2247:2346   */\n      swap2\n      swap1\n      pop\n      jump\t// out\n        /* \"#utility.yul\":2352:2521   */\n    tag_100:\n        /* \"#utility.yul\":2436:2447   */\n      0x00\n        /* \"#utility.yul\":2470:2476   */\n      dup3\n        /* \"#utility.yul\":2465:2468   */\n      dup3\n        /* \"#utility.yul\":2458:2477   */\n      mstore\n        /* \"#utility.yul\":2510:2514   */\n      0x20\n        /* \"#utility.yul\":2505:2508   */\n      dup3\n        /* \"#utility.yul\":2501:2515   */\n      add\n        /* \"#utility.yul\":2486:2515   */\n      swap1\n      pop\n        /* \"#utility.yul\":2352:2521   */\n      swap3\n      swap2\n      pop\n      pop\n      jump\t// out\n        /* \"#utility.yul\":2527:2666   */\n    tag_101:\n        /* \"#utility.yul\":2616:2622   */\n      dup3\n        /* \"#utility.yul\":2611:2614   */\n      dup2\n        /* \"#utility.yul\":2606:2609   */\n      dup4\n        /* \"#utility.yul\":2600:2623   */\n      mcopy\n        /* \"#utility.yul\":2657:2658   */\n      0x00\n        /* \"#utility.yul\":2648:2654   */\n      dup4\n        /* \"#utility.yul\":2643:2646   */\n      dup4\n        /* \"#utility.yul\":2639:2655   */\n      add\n        /* \"#utility.yul\":2632:2659   */\n      mstore\n        /* \"#utility.yul\":2527:2666   */\n      pop\n      pop\n      pop\n      jump\t// out\n        /* \"#utility.yul\":2672:2774   */\n    tag_102:\n        /* \"#utility.yul\":2713:2719   */\n      0x00\n        /* \"#utility.yul\":2764:2766   */\n      0x1f\n        /* \"#utility.yul\":2760:2767   */\n      not\n        /* \"#utility.yul\":2755:2757   */\n      0x1f\n        /* \"#utility.yul\":2748:2753   */\n      dup4\n        /* \"#utility.yul\":2744:2758   */\n      add\n        /* \"#utility.yul\":2740:2768   */\n      and\n        /* \"#utility.yul\":2730:2768   */\n      swap1\n      pop\n        /* \"#utility.yul\":2672:2774   */\n      swap2\n      swap1\n      pop\n      jump\t// out\n        /* \"#utility.yul\":2780:3157   */\n    tag_103:\n        /* \"#utility.yul\":2868:2871   */\n      0x00\n        /* \"#utility.yul\":2896:2935   */\n      tag_171\n        /* \"#utility.yul\":2929:2934   */\n      dup3\n        /* \"#utility.yul\":2896:2935   */\n      tag_99\n      jump\t// in\n    tag_171:\n        /* \"#utility.yul\":2951:3022   */\n      tag_172\n        /* \"#utility.yul\":3015:3021   */\n      dup2\n        /* \"#utility.yul\":3010:3013   */\n      dup6\n        /* \"#utility.yul\":2951:3022   */\n      tag_100\n      jump\t// in\n    tag_172:\n        /* \"#utility.yul\":2944:3022   */\n      swap4\n      pop\n        /* \"#utility.yul\":3031:3096   */\n      tag_173\n        /* \"#utility.yul\":3089:3095   */\n      dup2\n        /* \"#utility.yul\":3084:3087   */\n      dup6\n        /* \"#utility.yul\":3077:3081   */\n      0x20\n        /* \"#utility.yul\":3070:3075   */\n      dup7\n        /* \"#utility.yul\":3066:3082   */\n      add\n        /* \"#utility.yul\":3031:3096   */\n      tag_101\n      jump\t// in\n    tag_173:\n        /* \"#utility.yul\":3121:3150   */\n      tag_174\n        /* \"#utility.yul\":3143:3149   */\n      dup2\n        /* \"#utility.yul\":3121:3150   */\n      tag_102\n      jump\t// in\n    tag_174:\n        /* \"#utility.yul\":3116:3119   */\n      dup5\n        /* \"#utility.yul\":3112:3151   */\n      add\n        /* \"#utility.yul\":3105:3151   */\n      swap2\n      pop\n        /* \"#utility.yul\":2872:3157   */\n      pop\n        /* \"#utility.yul\":2780:3157   */\n      swap3\n      swap2\n      pop\n      pop\n      jump\t// out\n        /* \"#utility.yul\":3163:3253   */\n    tag_104:\n        /* \"#utility.yul\":3197:3204   */\n      0x00\n        /* \"#utility.yul\":3240:3245   */\n      dup2\n        /* \"#utility.yul\":3233:3246   */\n      iszero\n        /* \"#utility.yul\":3226:3247   */\n      iszero\n        /* \"#utility.yul\":3215:3247   */\n      swap1\n      pop\n        /* \"#utility.yul\":3163:3253   */\n      swap2\n      swap1\n      pop\n      jump\t// out\n        /* \"#utility.yul\":3259:3368   */\n    tag_105:\n        /* \"#utility.yul\":3340:3361   */\n      tag_177\n        /* \"#utility.yul\":3355:3360   */\n      dup2\n        /* \"#utility.yul\":3340:3361   */\n      tag_104\n      jump\t// in\n    tag_177:\n        /* \"#utility.yul\":3335:3338   */\n      dup3\n        /* \"#utility.yul\":3328:3362   */\n      mstore\n        /* \"#utility.yul\":3259:3368   */\n      pop\n      pop\n      jump\t// out\n        /* \"#utility.yul\":3374:4260   */\n    tag_31:\n        /* \"#utility.yul\":3637:3641   */\n      0x00\n        /* \"#utility.yul\":3675:3678   */\n      0xc0\n        /* \"#utility.yul\":3664:3673   */\n      dup3\n        /* \"#utility.yul\":3660:3679   */\n      add\n        /* \"#utility.yul\":3652:3679   */\n      swap1\n      pop\n        /* \"#utility.yul\":3689:3760   */\n      tag_179\n        /* \"#utility.yul\":3757:3758   */\n      0x00\n        /* \"#utility.yul\":3746:3755   */\n      dup4\n        /* \"#utility.yul\":3742:3759   */\n      add\n        /* \"#utility.yul\":3733:3739   */\n      dup10\n        /* \"#utility.yul\":3689:3760   */\n      tag_95\n      jump\t// in\n    tag_179:\n        /* \"#utility.yul\":3770:3858   */\n      tag_180\n        /* \"#utility.yul\":3854:3856   */\n      0x20\n        /* \"#utility.yul\":3843:3852   */\n      dup4\n        /* \"#utility.yul\":3839:3857   */\n      add\n        /* \"#utility.yul\":3830:3836   */\n      dup9\n        /* \"#utility.yul\":3770:3858   */\n      tag_98\n      jump\t// in\n    tag_180:\n        /* \"#utility.yul\":3905:3914   */\n      dup2\n        /* \"#utility.yul\":3899:3903   */\n      dup2\n        /* \"#utility.yul\":3895:3915   */\n      sub\n        /* \"#utility.yul\":3890:3892   */\n      0x40\n        /* \"#utility.yul\":3879:3888   */\n      dup4\n        /* \"#utility.yul\":3875:3893   */\n      add\n        /* \"#utility.yul\":3868:3916   */\n      mstore\n        /* \"#utility.yul\":3933:4011   */\n      tag_181\n        /* \"#utility.yul\":4006:4010   */\n      dup2\n        /* \"#utility.yul\":3997:4003   */\n      dup8\n        /* \"#utility.yul\":3933:4011   */\n      tag_103\n      jump\t// in\n    tag_181:\n        /* \"#utility.yul\":3925:4011   */\n      swap1\n      pop\n        /* \"#utility.yul\":4021:4093   */\n      tag_182\n        /* \"#utility.yul\":4089:4091   */\n      0x60\n        /* \"#utility.yul\":4078:4087   */\n      dup4\n        /* \"#utility.yul\":4074:4092   */\n      add\n        /* \"#utility.yul\":4065:4071   */\n      dup7\n        /* \"#utility.yul\":4021:4093   */\n      tag_95\n      jump\t// in\n    tag_182:\n        /* \"#utility.yul\":4103:4176   */\n      tag_183\n        /* \"#utility.yul\":4171:4174   */\n      0x80\n        /* \"#utility.yul\":4160:4169   */\n      dup4\n        /* \"#utility.yul\":4156:4175   */\n      add\n        /* \"#utility.yul\":4147:4153   */\n      dup6\n        /* \"#utility.yul\":4103:4176   */\n      tag_95\n      jump\t// in\n    tag_183:\n        /* \"#utility.yul\":4186:4253   */\n      tag_184\n        /* \"#utility.yul\":4248:4251   */\n      0xa0\n        /* \"#utility.yul\":4237:4246   */\n      dup4\n        /* \"#utility.yul\":4233:4252   */\n      add\n        /* \"#utility.yul\":4224:4230   */\n      dup5\n        /* \"#utility.yul\":4186:4253   */\n      tag_105\n      jump\t// in\n    tag_184:\n        /* \"#utility.yul\":3374:4260   */\n      swap8\n      swap7\n      pop\n      pop\n      pop\n      pop\n      pop\n      pop\n      pop\n      jump\t// out\n        /* \"#utility.yul\":4266:4362   */\n    tag_106:\n        /* \"#utility.yul\":4303:4310   */\n      0x00\n        /* \"#utility.yul\":4332:4356   */\n      tag_186\n        /* \"#utility.yul\":4350:4355   */\n      dup3\n        /* \"#utility.yul\":4332:4356   */\n      tag_96\n      jump\t// in\n    tag_186:\n        /* \"#utility.yul\":4321:4356   */\n      swap1\n      pop\n        /* \"#utility.yul\":4266:4362   */\n      swap2\n      swap1\n      pop\n      jump\t// out\n        /* \"#utility.yul\":4368:4486   */\n    tag_107:\n        /* \"#utility.yul\":4455:4479   */\n      tag_188\n        /* \"#utility.yul\":4473:4478   */\n      dup2\n        /* \"#utility.yul\":4455:4479   */\n      tag_106\n      jump\t// in\n    tag_188:\n        /* \"#utility.yul\":4450:4453   */\n      dup3\n        /* \"#utility.yul\":4443:4480   */\n      mstore\n        /* \"#utility.yul\":4368:4486   */\n      pop\n      pop\n      jump\t// out\n        /* \"#utility.yul\":4492:4714   */\n    tag_36:\n        /* \"#utility.yul\":4585:4589   */\n      0x00\n        /* \"#utility.yul\":4623:4625   */\n      0x20\n        /* \"#utility.yul\":4612:4621   */\n      dup3\n        /* \"#utility.yul\":4608:4626   */\n      add\n        /* \"#utility.yul\":4600:4626   */\n      swap1\n      pop\n        /* \"#utility.yul\":4636:4707   */\n      tag_190\n        /* \"#utility.yul\":4704:4705   */\n      0x00\n        /* \"#utility.yul\":4693:4702   */\n      dup4\n        /* \"#utility.yul\":4689:4706   */\n      add\n        /* \"#utility.yul\":4680:4686   */\n      dup5\n        /* \"#utility.yul\":4636:4707   */\n      tag_107\n      jump\t// in\n    tag_190:\n        /* \"#utility.yul\":4492:4714   */\n      swap3\n      swap2\n      pop\n      pop\n      jump\t// out\n        /* \"#utility.yul\":4720:4837   */\n    tag_108:\n        /* \"#utility.yul\":4829:4830   */\n      0x00\n        /* \"#utility.yul\":4826:4827   */\n      dup1\n        /* \"#utility.yul\":4819:4831   */\n      revert\n        /* \"#utility.yul\":4843:4960   */\n    tag_109:\n        /* \"#utility.yul\":4952:4953   */\n      0x00\n        /* \"#utility.yul\":4949:4950   */\n      dup1\n        /* \"#utility.yul\":4942:4954   */\n      revert\n        /* \"#utility.yul\":4966:5146   */\n    tag_110:\n        /* \"#utility.yul\":5014:5091   */\n      0x4e487b7100000000000000000000000000000000000000000000000000000000\n        /* \"#utility.yul\":5011:5012   */\n      0x00\n        /* \"#utility.yul\":5004:5092   */\n      mstore\n        /* \"#utility.yul\":5111:5115   */\n      0x41\n        /* \"#utility.yul\":5108:5109   */\n      0x04\n        /* \"#utility.yul\":5101:5116   */\n      mstore\n        /* \"#utility.yul\":5135:5139   */\n      0x24\n        /* \"#utility.yul\":5132:5133   */\n      0x00\n        /* \"#utility.yul\":5125:5140   */\n      revert\n        /* \"#utility.yul\":5152:5433   */\n    tag_111:\n        /* \"#utility.yul\":5235:5262   */\n      tag_195\n        /* \"#utility.yul\":5257:5261   */\n      dup3\n        /* \"#utility.yul\":5235:5262   */\n      tag_102\n      jump\t// in\n    tag_195:\n        /* \"#utility.yul\":5227:5233   */\n      dup2\n        /* \"#utility.yul\":5223:5263   */\n      add\n        /* \"#utility.yul\":5365:5371   */\n      dup2\n        /* \"#utility.yul\":5353:5363   */\n      dup2\n        /* \"#utility.yul\":5350:5372   */\n      lt\n        /* \"#utility.yul\":5329:5347   */\n      0xffffffffffffffff\n        /* \"#utility.yul\":5317:5327   */\n      dup3\n        /* \"#utility.yul\":5314:5348   */\n      gt\n        /* \"#utility.yul\":5311:5373   */\n      or\n        /* \"#utility.yul\":5308:5396   */\n      iszero\n      tag_196\n      jumpi\n        /* \"#utility.yul\":5376:5394   */\n      tag_197\n      tag_110\n      jump\t// in\n    tag_197:\n        /* \"#utility.yul\":5308:5396   */\n    tag_196:\n        /* \"#utility.yul\":5416:5426   */\n      dup1\n        /* \"#utility.yul\":5412:5414   */\n      0x40\n        /* \"#utility.yul\":5405:5427   */\n      mstore\n        /* \"#utility.yul\":5195:5433   */\n      pop\n        /* \"#utility.yul\":5152:5433   */\n      pop\n      pop\n      jump\t// out\n        /* \"#utility.yul\":5439:5568   */\n    tag_112:\n        /* \"#utility.yul\":5473:5479   */\n      0x00\n        /* \"#utility.yul\":5500:5520   */\n      tag_199\n      tag_89\n      jump\t// in\n    tag_199:\n        /* \"#utility.yul\":5490:5520   */\n      swap1\n      pop\n        /* \"#utility.yul\":5529:5562   */\n      tag_200\n        /* \"#utility.yul\":5557:5561   */\n      dup3\n        /* \"#utility.yul\":5549:5555   */\n      dup3\n        /* \"#utility.yul\":5529:5562   */\n      tag_111\n      jump\t// in\n    tag_200:\n        /* \"#utility.yul\":5439:5568   */\n      swap2\n      swap1\n      pop\n      jump\t// out\n        /* \"#utility.yul\":5574:5882   */\n    tag_113:\n        /* \"#utility.yul\":5636:5640   */\n      0x00\n        /* \"#utility.yul\":5726:5744   */\n      0xffffffffffffffff\n        /* \"#utility.yul\":5718:5724   */\n      dup3\n        /* \"#utility.yul\":5715:5745   */\n      gt\n        /* \"#utility.yul\":5712:5768   */\n      iszero\n      tag_202\n      jumpi\n        /* \"#utility.yul\":5748:5766   */\n      tag_203\n      tag_110\n      jump\t// in\n    tag_203:\n        /* \"#utility.yul\":5712:5768   */\n    tag_202:\n        /* \"#utility.yul\":5786:5815   */\n      tag_204\n        /* \"#utility.yul\":5808:5814   */\n      dup3\n        /* \"#utility.yul\":5786:5815   */\n      tag_102\n      jump\t// in\n    tag_204:\n        /* \"#utility.yul\":5778:5815   */\n      swap1\n      pop\n        /* \"#utility.yul\":5870:5874   */\n      0x20\n        /* \"#utility.yul\":5864:5868   */\n      dup2\n        /* \"#utility.yul\":5860:5875   */\n      add\n        /* \"#utility.yul\":5852:5875   */\n      swap1\n      pop\n        /* \"#utility.yul\":5574:5882   */\n      swap2\n      swap1\n      pop\n      jump\t// out\n        /* \"#utility.yul\":5888:6036   */\n    tag_114:\n        /* \"#utility.yul\":5986:5992   */\n      dup3\n        /* \"#utility.yul\":5981:5984   */\n      dup2\n        /* \"#utility.yul\":5976:5979   */\n      dup4\n        /* \"#utility.yul\":5963:5993   */\n      calldatacopy\n        /* \"#utility.yul\":6027:6028   */\n      0x00\n        /* \"#utility.yul\":6018:6024   */\n      dup4\n        /* \"#utility.yul\":6013:6016   */\n      dup4\n        /* \"#utility.yul\":6009:6025   */\n      add\n        /* \"#utility.yul\":6002:6029   */\n      mstore\n        /* \"#utility.yul\":5888:6036   */\n      pop\n      pop\n      pop\n      jump\t// out\n        /* \"#utility.yul\":6042:6467   */\n    tag_115:\n        /* \"#utility.yul\":6120:6125   */\n      0x00\n        /* \"#utility.yul\":6145:6211   */\n      tag_207\n        /* \"#utility.yul\":6161:6210   */\n      tag_208\n        /* \"#utility.yul\":6203:6209   */\n      dup5\n        /* \"#utility.yul\":6161:6210   */\n      tag_113\n      jump\t// in\n    tag_208:\n        /* \"#utility.yul\":6145:6211   */\n      tag_112\n      jump\t// in\n    tag_207:\n        /* \"#utility.yul\":6136:6211   */\n      swap1\n      pop\n        /* \"#utility.yul\":6234:6240   */\n      dup3\n        /* \"#utility.yul\":6227:6232   */\n      dup2\n        /* \"#utility.yul\":6220:6241   */\n      mstore\n        /* \"#utility.yul\":6272:6276   */\n      0x20\n        /* \"#utility.yul\":6265:6270   */\n      dup2\n        /* \"#utility.yul\":6261:6277   */\n      add\n        /* \"#utility.yul\":6310:6313   */\n      dup5\n        /* \"#utility.yul\":6301:6307   */\n      dup5\n        /* \"#utility.yul\":6296:6299   */\n      dup5\n        /* \"#utility.yul\":6292:6308   */\n      add\n        /* \"#utility.yul\":6289:6314   */\n      gt\n        /* \"#utility.yul\":6286:6398   */\n      iszero\n      tag_209\n      jumpi\n        /* \"#utility.yul\":6317:6396   */\n      tag_210\n      tag_109\n      jump\t// in\n    tag_210:\n        /* \"#utility.yul\":6286:6398   */\n    tag_209:\n        /* \"#utility.yul\":6407:6461   */\n      tag_211\n        /* \"#utility.yul\":6454:6460   */\n      dup5\n        /* \"#utility.yul\":6449:6452   */\n      dup3\n        /* \"#utility.yul\":6444:6447   */\n      dup6\n        /* \"#utility.yul\":6407:6461   */\n      tag_114\n      jump\t// in\n    tag_211:\n        /* \"#utility.yul\":6126:6467   */\n      pop\n        /* \"#utility.yul\":6042:6467   */\n      swap4\n      swap3\n      pop\n      pop\n      pop\n      jump\t// out\n        /* \"#utility.yul\":6487:6827   */\n    tag_116:\n        /* \"#utility.yul\":6543:6548   */\n      0x00\n        /* \"#utility.yul\":6592:6595   */\n      dup3\n        /* \"#utility.yul\":6585:6589   */\n      0x1f\n        /* \"#utility.yul\":6577:6583   */\n      dup4\n        /* \"#utility.yul\":6573:6590   */\n      add\n        /* \"#utility.yul\":6569:6596   */\n      slt\n        /* \"#utility.yul\":6559:6681   */\n      tag_213\n      jumpi\n        /* \"#utility.yul\":6600:6679   */\n      tag_214\n      tag_108\n      jump\t// in\n    tag_214:\n        /* \"#utility.yul\":6559:6681   */\n    tag_213:\n        /* \"#utility.yul\":6717:6723   */\n      dup2\n        /* \"#utility.yul\":6704:6724   */\n      calldataload\n        /* \"#utility.yul\":6742:6821   */\n      tag_215\n        /* \"#utility.yul\":6817:6820   */\n      dup5\n        /* \"#utility.yul\":6809:6815   */\n      dup3\n        /* \"#utility.yul\":6802:6806   */\n      0x20\n        /* \"#utility.yul\":6794:6800   */\n      dup7\n        /* \"#utility.yul\":6790:6807   */\n      add\n        /* \"#utility.yul\":6742:6821   */\n      tag_115\n      jump\t// in\n    tag_215:\n        /* \"#utility.yul\":6733:6821   */\n      swap2\n      pop\n        /* \"#utility.yul\":6549:6827   */\n      pop\n        /* \"#utility.yul\":6487:6827   */\n      swap3\n      swap2\n      pop\n      pop\n      jump\t// out\n        /* \"#utility.yul\":6833:7487   */\n    tag_46:\n        /* \"#utility.yul\":6911:6917   */\n      0x00\n        /* \"#utility.yul\":6919:6925   */\n      dup1\n        /* \"#utility.yul\":6968:6970   */\n      0x40\n        /* \"#utility.yul\":6956:6965   */\n      dup4\n        /* \"#utility.yul\":6947:6954   */\n      dup6\n        /* \"#utility.yul\":6943:6966   */\n      sub\n        /* \"#utility.yul\":6939:6971   */\n      slt\n        /* \"#utility.yul\":6936:7055   */\n      iszero\n      tag_217\n      jumpi\n        /* \"#utility.yul\":6974:7053   */\n      tag_218\n      tag_90\n      jump\t// in\n    tag_218:\n        /* \"#utility.yul\":6936:7055   */\n    tag_217:\n        /* \"#utility.yul\":7122:7123   */\n      0x00\n        /* \"#utility.yul\":7111:7120   */\n      dup4\n        /* \"#utility.yul\":7107:7124   */\n      add\n        /* \"#utility.yul\":7094:7125   */\n      calldataload\n        /* \"#utility.yul\":7152:7170   */\n      0xffffffffffffffff\n        /* \"#utility.yul\":7144:7150   */\n      dup2\n        /* \"#utility.yul\":7141:7171   */\n      gt\n        /* \"#utility.yul\":7138:7255   */\n      iszero\n      tag_219\n      jumpi\n        /* \"#utility.yul\":7174:7253   */\n      tag_220\n      tag_91\n      jump\t// in\n    tag_220:\n        /* \"#utility.yul\":7138:7255   */\n    tag_219:\n        /* \"#utility.yul\":7279:7342   */\n      tag_221\n        /* \"#utility.yul\":7334:7341   */\n      dup6\n        /* \"#utility.yul\":7325:7331   */\n      dup3\n        /* \"#utility.yul\":7314:7323   */\n      dup7\n        /* \"#utility.yul\":7310:7332   */\n      add\n        /* \"#utility.yul\":7279:7342   */\n      tag_116\n      jump\t// in\n    tag_221:\n        /* \"#utility.yul\":7269:7342   */\n      swap3\n      pop\n        /* \"#utility.yul\":7065:7352   */\n      pop\n        /* \"#utility.yul\":7391:7393   */\n      0x20\n        /* \"#utility.yul\":7417:7470   */\n      tag_222\n        /* \"#utility.yul\":7462:7469   */\n      dup6\n        /* \"#utility.yul\":7453:7459   */\n      dup3\n        /* \"#utility.yul\":7442:7451   */\n      dup7\n        /* \"#utility.yul\":7438:7460   */\n      add\n        /* \"#utility.yul\":7417:7470   */\n      tag_94\n      jump\t// in\n    tag_222:\n        /* \"#utility.yul\":7407:7470   */\n      swap2\n      pop\n        /* \"#utility.yul\":7362:7480   */\n      pop\n        /* \"#utility.yul\":6833:7487   */\n      swap3\n      pop\n      swap3\n      swap1\n      pop\n      jump\t// out\n        /* \"#utility.yul\":7493:7718   */\n    tag_117:\n        /* \"#utility.yul\":7633:7667   */\n      0x4f6e6c7920746865206f776e65722063616e20706572666f726d207468697320\n        /* \"#utility.yul\":7629:7630   */\n      0x00\n        /* \"#utility.yul\":7621:7627   */\n      dup3\n        /* \"#utility.yul\":7617:7631   */\n      add\n        /* \"#utility.yul\":7610:7668   */\n      mstore\n        /* \"#utility.yul\":7702:7710   */\n      0x616374696f6e0000000000000000000000000000000000000000000000000000\n        /* \"#utility.yul\":7697:7699   */\n      0x20\n        /* \"#utility.yul\":7689:7695   */\n      dup3\n        /* \"#utility.yul\":7685:7700   */\n      add\n        /* \"#utility.yul\":7678:7711   */\n      mstore\n        /* \"#utility.yul\":7493:7718   */\n      pop\n      jump\t// out\n        /* \"#utility.yul\":7724:8090   */\n    tag_118:\n        /* \"#utility.yul\":7866:7869   */\n      0x00\n        /* \"#utility.yul\":7887:7954   */\n      tag_225\n        /* \"#utility.yul\":7951:7953   */\n      0x26\n        /* \"#utility.yul\":7946:7949   */\n      dup4\n        /* \"#utility.yul\":7887:7954   */\n      tag_100\n      jump\t// in\n    tag_225:\n        /* \"#utility.yul\":7880:7954   */\n      swap2\n      pop\n        /* \"#utility.yul\":7963:8056   */\n      tag_226\n        /* \"#utility.yul\":8052:8055   */\n      dup3\n        /* \"#utility.yul\":7963:8056   */\n      tag_117\n      jump\t// in\n    tag_226:\n        /* \"#utility.yul\":8081:8083   */\n      0x40\n        /* \"#utility.yul\":8076:8079   */\n      dup3\n        /* \"#utility.yul\":8072:8084   */\n      add\n        /* \"#utility.yul\":8065:8084   */\n      swap1\n      pop\n        /* \"#utility.yul\":7724:8090   */\n      swap2\n      swap1\n      pop\n      jump\t// out\n        /* \"#utility.yul\":8096:8515   */\n    tag_55:\n        /* \"#utility.yul\":8262:8266   */\n      0x00\n        /* \"#utility.yul\":8300:8302   */\n      0x20\n        /* \"#utility.yul\":8289:8298   */\n      dup3\n        /* \"#utility.yul\":8285:8303   */\n      add\n        /* \"#utility.yul\":8277:8303   */\n      swap1\n      pop\n        /* \"#utility.yul\":8349:8358   */\n      dup2\n        /* \"#utility.yul\":8343:8347   */\n      dup2\n        /* \"#utility.yul\":8339:8359   */\n      sub\n        /* \"#utility.yul\":8335:8336   */\n      0x00\n        /* \"#utility.yul\":8324:8333   */\n      dup4\n        /* \"#utility.yul\":8320:8337   */\n      add\n        /* \"#utility.yul\":8313:8360   */\n      mstore\n        /* \"#utility.yul\":8377:8508   */\n      tag_228\n        /* \"#utility.yul\":8503:8507   */\n      dup2\n        /* \"#utility.yul\":8377:8508   */\n      tag_118\n      jump\t// in\n    tag_228:\n        /* \"#utility.yul\":8369:8508   */\n      swap1\n      pop\n        /* \"#utility.yul\":8096:8515   */\n      swap2\n      swap1\n      pop\n      jump\t// out\n        /* \"#utility.yul\":8521:8758   */\n    tag_119:\n        /* \"#utility.yul\":8661:8695   */\n      0x4f6e6c79207468652072656769737465726564206661726d65722063616e2070\n        /* \"#utility.yul\":8657:8658   */\n      0x00\n        /* \"#utility.yul\":8649:8655   */\n      dup3\n        /* \"#utility.yul\":8645:8659   */\n      add\n        /* \"#utility.yul\":8638:8696   */\n      mstore\n        /* \"#utility.yul\":8730:8750   */\n      0x6572666f726d207468697320616374696f6e0000000000000000000000000000\n        /* \"#utility.yul\":8725:8727   */\n      0x20\n        /* \"#utility.yul\":8717:8723   */\n      dup3\n        /* \"#utility.yul\":8713:8728   */\n      add\n        /* \"#utility.yul\":8706:8751   */\n      mstore\n        /* \"#utility.yul\":8521:8758   */\n      pop\n      jump\t// out\n        /* \"#utility.yul\":8764:9130   */\n    tag_120:\n        /* \"#utility.yul\":8906:8909   */\n      0x00\n        /* \"#utility.yul\":8927:8994   */\n      tag_231\n        /* \"#utility.yul\":8991:8993   */\n      0x32\n        /* \"#utility.yul\":8986:8989   */\n      dup4\n        /* \"#utility.yul\":8927:8994   */\n      tag_100\n      jump\t// in\n    tag_231:\n        /* \"#utility.yul\":8920:8994   */\n      swap2\n      pop\n        /* \"#utility.yul\":9003:9096   */\n      tag_232\n        /* \"#utility.yul\":9092:9095   */\n      dup3\n        /* \"#utility.yul\":9003:9096   */\n      tag_119\n      jump\t// in\n    tag_232:\n        /* \"#utility.yul\":9121:9123   */\n      0x40\n        /* \"#utility.yul\":9116:9119   */\n      dup3\n        /* \"#utility.yul\":9112:9124   */\n      add\n        /* \"#utility.yul\":9105:9124   */\n      swap1\n      pop\n        /* \"#utility.yul\":8764:9130   */\n      swap2\n      swap1\n      pop\n      jump\t// out\n        /* \"#utility.yul\":9136:9555   */\n    tag_62:\n        /* \"#utility.yul\":9302:9306   */\n      0x00\n        /* \"#utility.yul\":9340:9342   */\n      0x20\n        /* \"#utility.yul\":9329:9338   */\n      dup3\n        /* \"#utility.yul\":9325:9343   */\n      add\n        /* \"#utility.yul\":9317:9343   */\n      swap1\n      pop\n        /* \"#utility.yul\":9389:9398   */\n      dup2\n        /* \"#utility.yul\":9383:9387   */\n      dup2\n        /* \"#utility.yul\":9379:9399   */\n      sub\n        /* \"#utility.yul\":9375:9376   */\n      0x00\n        /* \"#utility.yul\":9364:9373   */\n      dup4\n        /* \"#utility.yul\":9360:9377   */\n      add\n        /* \"#utility.yul\":9353:9400   */\n      mstore\n        /* \"#utility.yul\":9417:9548   */\n      tag_234\n        /* \"#utility.yul\":9543:9547   */\n      dup2\n        /* \"#utility.yul\":9417:9548   */\n      tag_120\n      jump\t// in\n    tag_234:\n        /* \"#utility.yul\":9409:9548   */\n      swap1\n      pop\n        /* \"#utility.yul\":9136:9555   */\n      swap2\n      swap1\n      pop\n      jump\t// out\n        /* \"#utility.yul\":9561:9893   */\n    tag_65:\n        /* \"#utility.yul\":9682:9686   */\n      0x00\n        /* \"#utility.yul\":9720:9722   */\n      0x40\n        /* \"#utility.yul\":9709:9718   */\n      dup3\n        /* \"#utility.yul\":9705:9723   */\n      add\n        /* \"#utility.yul\":9697:9723   */\n      swap1\n      pop\n        /* \"#utility.yul\":9733:9804   */\n      tag_236\n        /* \"#utility.yul\":9801:9802   */\n      0x00\n        /* \"#utility.yul\":9790:9799   */\n      dup4\n        /* \"#utility.yul\":9786:9803   */\n      add\n        /* \"#utility.yul\":9777:9783   */\n      dup6\n        /* \"#utility.yul\":9733:9804   */\n      tag_95\n      jump\t// in\n    tag_236:\n        /* \"#utility.yul\":9814:9886   */\n      tag_237\n        /* \"#utility.yul\":9882:9884   */\n      0x20\n        /* \"#utility.yul\":9871:9880   */\n      dup4\n        /* \"#utility.yul\":9867:9885   */\n      add\n        /* \"#utility.yul\":9858:9864   */\n      dup5\n        /* \"#utility.yul\":9814:9886   */\n      tag_95\n      jump\t// in\n    tag_237:\n        /* \"#utility.yul\":9561:9893   */\n      swap4\n      swap3\n      pop\n      pop\n      pop\n      jump\t// out\n        /* \"#utility.yul\":9899:10079   */\n    tag_121:\n        /* \"#utility.yul\":9947:10024   */\n      0x4e487b7100000000000000000000000000000000000000000000000000000000\n        /* \"#utility.yul\":9944:9945   */\n      0x00\n        /* \"#utility.yul\":9937:10025   */\n      mstore\n        /* \"#utility.yul\":10044:10048   */\n      0x22\n        /* \"#utility.yul\":10041:10042   */\n      0x04\n        /* \"#utility.yul\":10034:10049   */\n      mstore\n        /* \"#utility.yul\":10068:10072   */\n      0x24\n        /* \"#utility.yul\":10065:10066   */\n      0x00\n        /* \"#utility.yul\":10058:10073   */\n      revert\n        /* \"#utility.yul\":10085:10405   */\n    tag_73:\n        /* \"#utility.yul\":10129:10135   */\n      0x00\n        /* \"#utility.yul\":10166:10167   */\n      0x02\n        /* \"#utility.yul\":10160:10164   */\n      dup3\n        /* \"#utility.yul\":10156:10168   */\n      div\n        /* \"#utility.yul\":10146:10168   */\n      swap1\n      pop\n        /* \"#utility.yul\":10213:10214   */\n      0x01\n        /* \"#utility.yul\":10207:10211   */\n      dup3\n        /* \"#utility.yul\":10203:10215   */\n      and\n        /* \"#utility.yul\":10234:10252   */\n      dup1\n        /* \"#utility.yul\":10224:10305   */\n      tag_240\n      jumpi\n        /* \"#utility.yul\":10290:10294   */\n      0x7f\n        /* \"#utility.yul\":10282:10288   */\n      dup3\n        /* \"#utility.yul\":10278:10295   */\n      and\n        /* \"#utility.yul\":10268:10295   */\n      swap2\n      pop\n        /* \"#utility.yul\":10224:10305   */\n    tag_240:\n        /* \"#utility.yul\":10352:10354   */\n      0x20\n        /* \"#utility.yul\":10344:10350   */\n      dup3\n        /* \"#utility.yul\":10341:10355   */\n      lt\n        /* \"#utility.yul\":10321:10339   */\n      dup2\n        /* \"#utility.yul\":10318:10356   */\n      sub\n        /* \"#utility.yul\":10315:10399   */\n      tag_241\n      jumpi\n        /* \"#utility.yul\":10371:10389   */\n      tag_242\n      tag_121\n      jump\t// in\n    tag_242:\n        /* \"#utility.yul\":10315:10399   */\n    tag_241:\n        /* \"#utility.yul\":10136:10405   */\n      pop\n        /* \"#utility.yul\":10085:10405   */\n      swap2\n      swap1\n      pop\n      jump\t// out\n        /* \"#utility.yul\":10411:10591   */\n    tag_122:\n        /* \"#utility.yul\":10459:10536   */\n      0x4e487b7100000000000000000000000000000000000000000000000000000000\n        /* \"#utility.yul\":10456:10457   */\n      0x00\n        /* \"#utility.yul\":10449:10537   */\n      mstore\n        /* \"#utility.yul\":10556:10560   */\n      0x11\n        /* \"#utility.yul\":10553:10554   */\n      0x04\n        /* \"#utility.yul\":10546:10561   */\n      mstore\n        /* \"#utility.yul\":10580:10584   */\n      0x24\n        /* \"#utility.yul\":10577:10578   */\n      0x00\n        /* \"#utility.yul\":10570:10585   */\n      revert\n        /* \"#utility.yul\":10597:10830   */\n    tag_84:\n        /* \"#utility.yul\":10636:10639   */\n      0x00\n        /* \"#utility.yul\":10659:10683   */\n      tag_245\n        /* \"#utility.yul\":10677:10682   */\n      dup3\n        /* \"#utility.yul\":10659:10683   */\n      tag_92\n      jump\t// in\n    tag_245:\n        /* \"#utility.yul\":10650:10683   */\n      swap2\n      pop\n        /* \"#utility.yul\":10705:10771   */\n      0xffffffffffffffffffffffffffffffffffffffffffffffffffffffffffffffff\n        /* \"#utility.yul\":10698:10703   */\n      dup3\n        /* \"#utility.yul\":10695:10772   */\n      sub\n        /* \"#utility.yul\":10692:10795   */\n      tag_246\n      jumpi\n        /* \"#utility.yul\":10775:10793   */\n      tag_247\n      tag_122\n      jump\t// in\n    tag_247:\n        /* \"#utility.yul\":10692:10795   */\n    tag_246:\n        /* \"#utility.yul\":10822:10823   */\n      0x01\n        /* \"#utility.yul\":10815:10820   */\n      dup3\n        /* \"#utility.yul\":10811:10824   */\n      add\n        /* \"#utility.yul\":10804:10824   */\n      swap1\n      pop\n        /* \"#utility.yul\":10597:10830   */\n      swap2\n      swap1\n      pop\n      jump\t// out\n        /* \"#utility.yul\":10836:10977   */\n    tag_123:\n        /* \"#utility.yul\":10885:10889   */\n      0x00\n        /* \"#utility.yul\":10908:10911   */\n      dup2\n        /* \"#utility.yul\":10900:10911   */\n      swap1\n      pop\n        /* \"#utility.yul\":10931:10934   */\n      dup2\n        /* \"#utility.yul\":10928:10929   */\n      0x00\n        /* \"#utility.yul\":10921:10935   */\n      mstore\n        /* \"#utility.yul\":10965:10969   */\n      0x20\n        /* \"#utility.yul\":10962:10963   */\n      0x00\n        /* \"#utility.yul\":10952:10970   */\n      keccak256\n        /* \"#utility.yul\":10944:10970   */\n      swap1\n      pop\n        /* \"#utility.yul\":10836:10977   */\n      swap2\n      swap1\n      pop\n      jump\t// out\n        /* \"#utility.yul\":10983:11076   */\n    tag_124:\n        /* \"#utility.yul\":11020:11026   */\n      0x00\n        /* \"#utility.yul\":11067:11069   */\n      0x20\n        /* \"#utility.yul\":11062:11064   */\n      0x1f\n        /* \"#utility.yul\":11055:11060   */\n      dup4\n        /* \"#utility.yul\":11051:11065   */\n      add\n        /* \"#utility.yul\":11047:11070   */\n      div\n        /* \"#utility.yul\":11037:11070   */\n      swap1\n      pop\n        /* \"#utility.yul\":10983:11076   */\n      swap2\n      swap1\n      pop\n      jump\t// out\n        /* \"#utility.yul\":11082:11189   */\n    tag_125:\n        /* \"#utility.yul\":11126:11134   */\n      0x00\n        /* \"#utility.yul\":11176:11181   */\n      dup3\n        /* \"#utility.yul\":11170:11174   */\n      dup3\n        /* \"#utility.yul\":11166:11182   */\n      shl\n        /* \"#utility.yul\":11145:11182   */\n      swap1\n      pop\n        /* \"#utility.yul\":11082:11189   */\n      swap3\n      swap2\n      pop\n      pop\n      jump\t// out\n        /* \"#utility.yul\":11195:11588   */\n    tag_126:\n        /* \"#utility.yul\":11264:11270   */\n      0x00\n        /* \"#utility.yul\":11314:11315   */\n      0x08\n        /* \"#utility.yul\":11302:11312   */\n      dup4\n        /* \"#utility.yul\":11298:11316   */\n      mul\n        /* \"#utility.yul\":11337:11434   */\n      tag_252\n        /* \"#utility.yul\":11367:11433   */\n      0xffffffffffffffffffffffffffffffffffffffffffffffffffffffffffffffff\n        /* \"#utility.yul\":11356:11365   */\n      dup3\n        /* \"#utility.yul\":11337:11434   */\n      tag_125\n      jump\t// in\n    tag_252:\n        /* \"#utility.yul\":11455:11494   */\n      tag_253\n        /* \"#utility.yul\":11485:11493   */\n      dup7\n        /* \"#utility.yul\":11474:11483   */\n      dup4\n        /* \"#utility.yul\":11455:11494   */\n      tag_125\n      jump\t// in\n    tag_253:\n        /* \"#utility.yul\":11443:11494   */\n      swap6\n      pop\n        /* \"#utility.yul\":11527:11531   */\n      dup1\n        /* \"#utility.yul\":11523:11532   */\n      not\n        /* \"#utility.yul\":11516:11521   */\n      dup5\n        /* \"#utility.yul\":11512:11533   */\n      and\n        /* \"#utility.yul\":11503:11533   */\n      swap4\n      pop\n        /* \"#utility.yul\":11576:11580   */\n      dup1\n        /* \"#utility.yul\":11566:11574   */\n      dup7\n        /* \"#utility.yul\":11562:11581   */\n      and\n        /* \"#utility.yul\":11555:11560   */\n      dup5\n        /* \"#utility.yul\":11552:11582   */\n      or\n        /* \"#utility.yul\":11542:11582   */\n      swap3\n      pop\n        /* \"#utility.yul\":11271:11588   */\n      pop\n      pop\n        /* \"#utility.yul\":11195:11588   */\n      swap4\n      swap3\n      pop\n      pop\n      pop\n      jump\t// out\n        /* \"#utility.yul\":11594:11654   */\n    tag_127:\n        /* \"#utility.yul\":11622:11625   */\n      0x00\n        /* \"#utility.yul\":11643:11648   */\n      dup2\n        /* \"#utility.yul\":11636:11648   */\n      swap1\n      pop\n        /* \"#utility.yul\":11594:11654   */\n      swap2\n      swap1\n      pop\n      jump\t// out\n        /* \"#utility.yul\":11660:11802   */\n    tag_128:\n        /* \"#utility.yul\":11710:11719   */\n      0x00\n        /* \"#utility.yul\":11743:11796   */\n      tag_256\n        /* \"#utility.yul\":11761:11795   */\n      tag_257\n        /* \"#utility.yul\":11770:11794   */\n      tag_258\n        /* \"#utility.yul\":11788:11793   */\n      dup5\n        /* \"#utility.yul\":11770:11794   */\n      tag_92\n      jump\t// in\n    tag_258:\n        /* \"#utility.yul\":11761:11795   */\n      tag_127\n      jump\t// in\n    tag_257:\n        /* \"#utility.yul\":11743:11796   */\n      tag_92\n      jump\t// in\n    tag_256:\n        /* \"#utility.yul\":11730:11796   */\n      swap1\n      pop\n        /* \"#utility.yul\":11660:11802   */\n      swap2\n      swap1\n      pop\n      jump\t// out\n        /* \"#utility.yul\":11808:11883   */\n    tag_129:\n        /* \"#utility.yul\":11851:11854   */\n      0x00\n        /* \"#utility.yul\":11872:11877   */\n      dup2\n        /* \"#utility.yul\":11865:11877   */\n      swap1\n      pop\n        /* \"#utility.yul\":11808:11883   */\n      swap2\n      swap1\n      pop\n      jump\t// out\n        /* \"#utility.yul\":11889:12158   */\n    tag_130:\n        /* \"#utility.yul\":11999:12038   */\n      tag_261\n        /* \"#utility.yul\":12030:12037   */\n      dup4\n        /* \"#utility.yul\":11999:12038   */\n      tag_128\n      jump\t// in\n    tag_261:\n        /* \"#utility.yul\":12060:12151   */\n      tag_262\n        /* \"#utility.yul\":12109:12150   */\n      tag_263\n        /* \"#utility.yul\":12133:12149   */\n      dup3\n        /* \"#utility.yul\":12109:12150   */\n      tag_129\n      jump\t// in\n    tag_263:\n        /* \"#utility.yul\":12101:12107   */\n      dup5\n        /* \"#utility.yul\":12094:12098   */\n      dup5\n        /* \"#utility.yul\":12088:12099   */\n      sload\n        /* \"#utility.yul\":12060:12151   */\n      tag_126\n      jump\t// in\n    tag_262:\n        /* \"#utility.yul\":12054:12058   */\n      dup3\n        /* \"#utility.yul\":12047:12152   */\n      sstore\n        /* \"#utility.yul\":11965:12158   */\n      pop\n        /* \"#utility.yul\":11889:12158   */\n      pop\n      pop\n      pop\n      jump\t// out\n        /* \"#utility.yul\":12164:12237   */\n    tag_131:\n        /* \"#utility.yul\":12209:12212   */\n      0x00\n        /* \"#utility.yul\":12164:12237   */\n      swap1\n      jump\t// out\n        /* \"#utility.yul\":12243:12432   */\n    tag_132:\n        /* \"#utility.yul\":12320:12352   */\n      tag_266\n      tag_131\n      jump\t// in\n    tag_266:\n        /* \"#utility.yul\":12361:12426   */\n      tag_267\n        /* \"#utility.yul\":12419:12425   */\n      dup2\n        /* \"#utility.yul\":12411:12417   */\n      dup5\n        /* \"#utility.yul\":12405:12409   */\n      dup5\n        /* \"#utility.yul\":12361:12426   */\n      tag_130\n      jump\t// in\n    tag_267:\n        /* \"#utility.yul\":12296:12432   */\n      pop\n        /* \"#utility.yul\":12243:12432   */\n      pop\n      pop\n      jump\t// out\n        /* \"#utility.yul\":12438:12624   */\n    tag_133:\n        /* \"#utility.yul\":12498:12618   */\n    tag_269:\n        /* \"#utility.yul\":12515:12518   */\n      dup2\n        /* \"#utility.yul\":12508:12513   */\n      dup2\n        /* \"#utility.yul\":12505:12519   */\n      lt\n        /* \"#utility.yul\":12498:12618   */\n      iszero\n      tag_271\n      jumpi\n        /* \"#utility.yul\":12569:12608   */\n      tag_272\n        /* \"#utility.yul\":12606:12607   */\n      0x00\n        /* \"#utility.yul\":12599:12604   */\n      dup3\n        /* \"#utility.yul\":12569:12608   */\n      tag_132\n      jump\t// in\n    tag_272:\n        /* \"#utility.yul\":12542:12543   */\n      0x01\n        /* \"#utility.yul\":12535:12540   */\n      dup2\n        /* \"#utility.yul\":12531:12544   */\n      add\n        /* \"#utility.yul\":12522:12544   */\n      swap1\n      pop\n        /* \"#utility.yul\":12498:12618   */\n      jump(tag_269)\n    tag_271:\n        /* \"#utility.yul\":12438:12624   */\n      pop\n      pop\n      jump\t// out\n        /* \"#utility.yul\":12630:13173   */\n    tag_134:\n        /* \"#utility.yul\":12731:12733   */\n      0x1f\n        /* \"#utility.yul\":12726:12729   */\n      dup3\n        /* \"#utility.yul\":12723:12734   */\n      gt\n        /* \"#utility.yul\":12720:13166   */\n      iszero\n      tag_274\n      jumpi\n        /* \"#utility.yul\":12765:12803   */\n      tag_275\n        /* \"#utility.yul\":12797:12802   */\n      dup2\n        /* \"#utility.yul\":12765:12803   */\n      tag_123\n      jump\t// in\n    tag_275:\n        /* \"#utility.yul\":12849:12878   */\n      tag_276\n        /* \"#utility.yul\":12867:12877   */\n      dup5\n        /* \"#utility.yul\":12849:12878   */\n      tag_124\n      jump\t// in\n    tag_276:\n        /* \"#utility.yul\":12839:12847   */\n      dup2\n        /* \"#utility.yul\":12835:12879   */\n      add\n        /* \"#utility.yul\":13032:13034   */\n      0x20\n        /* \"#utility.yul\":13020:13030   */\n      dup6\n        /* \"#utility.yul\":13017:13035   */\n      lt\n        /* \"#utility.yul\":13014:13063   */\n      iszero\n      tag_277\n      jumpi\n        /* \"#utility.yul\":13053:13061   */\n      dup2\n        /* \"#utility.yul\":13038:13061   */\n      swap1\n      pop\n        /* \"#utility.yul\":13014:13063   */\n    tag_277:\n        /* \"#utility.yul\":13076:13156   */\n      tag_278\n        /* \"#utility.yul\":13132:13154   */\n      tag_279\n        /* \"#utility.yul\":13150:13153   */\n      dup6\n        /* \"#utility.yul\":13132:13154   */\n      tag_124\n      jump\t// in\n    tag_279:\n        /* \"#utility.yul\":13122:13130   */\n      dup4\n        /* \"#utility.yul\":13118:13155   */\n      add\n        /* \"#utility.yul\":13105:13116   */\n      dup3\n        /* \"#utility.yul\":13076:13156   */\n      tag_133\n      jump\t// in\n    tag_278:\n        /* \"#utility.yul\":12735:13166   */\n      pop\n      pop\n        /* \"#utility.yul\":12720:13166   */\n    tag_274:\n        /* \"#utility.yul\":12630:13173   */\n      pop\n      pop\n      pop\n      jump\t// out\n        /* \"#utility.yul\":13179:13296   */\n    tag_135:\n        /* \"#utility.yul\":13233:13241   */\n      0x00\n        /* \"#utility.yul\":13283:13288   */\n      dup3\n        /* \"#utility.yul\":13277:13281   */\n      dup3\n        /* \"#utility.yul\":13273:13289   */\n      shr\n        /* \"#utility.yul\":13252:13289   */\n      swap1\n      pop\n        /* \"#utility.yul\":13179:13296   */\n      swap3\n      swap2\n      pop\n      pop\n      jump\t// out\n        /* \"#utility.yul\":13302:13471   */\n    tag_136:\n        /* \"#utility.yul\":13346:13352   */\n      0x00\n        /* \"#utility.yul\":13379:13430   */\n      tag_282\n        /* \"#utility.yul\":13427:13428   */\n      0x00\n        /* \"#utility.yul\":13423:13429   */\n      not\n        /* \"#utility.yul\":13415:13420   */\n      dup5\n        /* \"#utility.yul\":13412:13413   */\n      0x08\n        /* \"#utility.yul\":13408:13421   */\n      mul\n        /* \"#utility.yul\":13379:13430   */\n      tag_135\n      jump\t// in\n    tag_282:\n        /* \"#utility.yul\":13375:13431   */\n      not\n        /* \"#utility.yul\":13460:13464   */\n      dup1\n        /* \"#utility.yul\":13454:13458   */\n      dup4\n        /* \"#utility.yul\":13450:13465   */\n      and\n        /* \"#utility.yul\":13440:13465   */\n      swap2\n      pop\n        /* \"#utility.yul\":13353:13471   */\n      pop\n        /* \"#utility.yul\":13302:13471   */\n      swap3\n      swap2\n      pop\n      pop\n      jump\t// out\n        /* \"#utility.yul\":13476:13771   */\n    tag_137:\n        /* \"#utility.yul\":13552:13556   */\n      0x00\n        /* \"#utility.yul\":13698:13727   */\n      tag_284\n        /* \"#utility.yul\":13723:13726   */\n      dup4\n        /* \"#utility.yul\":13717:13721   */\n      dup4\n        /* \"#utility.yul\":13698:13727   */\n      tag_136\n      jump\t// in\n    tag_284:\n        /* \"#utility.yul\":13690:13727   */\n      swap2\n      pop\n        /* \"#utility.yul\":13760:13763   */\n      dup3\n        /* \"#utility.yul\":13757:13758   */\n      0x02\n        /* \"#utility.yul\":13753:13764   */\n      mul\n        /* \"#utility.yul\":13747:13751   */\n      dup3\n        /* \"#utility.yul\":13744:13765   */\n      or\n        /* \"#utility.yul\":13736:13765   */\n      swap1\n      pop\n        /* \"#utility.yul\":13476:13771   */\n      swap3\n      swap2\n      pop\n      pop\n      jump\t// out\n        /* \"#utility.yul\":13776:15171   */\n    tag_86:\n        /* \"#utility.yul\":13893:13930   */\n      tag_286\n        /* \"#utility.yul\":13926:13929   */\n      dup3\n        /* \"#utility.yul\":13893:13930   */\n      tag_99\n      jump\t// in\n    tag_286:\n        /* \"#utility.yul\":13995:14013   */\n      0xffffffffffffffff\n        /* \"#utility.yul\":13987:13993   */\n      dup2\n        /* \"#utility.yul\":13984:14014   */\n      gt\n        /* \"#utility.yul\":13981:14037   */\n      iszero\n      tag_287\n      jumpi\n        /* \"#utility.yul\":14017:14035   */\n      tag_288\n      tag_110\n      jump\t// in\n    tag_288:\n        /* \"#utility.yul\":13981:14037   */\n    tag_287:\n        /* \"#utility.yul\":14061:14099   */\n      tag_289\n        /* \"#utility.yul\":14093:14097   */\n      dup3\n        /* \"#utility.yul\":14087:14098   */\n      sload\n        /* \"#utility.yul\":14061:14099   */\n      tag_73\n      jump\t// in\n    tag_289:\n        /* \"#utility.yul\":14146:14213   */\n      tag_290\n        /* \"#utility.yul\":14206:14212   */\n      dup3\n        /* \"#utility.yul\":14198:14204   */\n      dup3\n        /* \"#utility.yul\":14192:14196   */\n      dup6\n        /* \"#utility.yul\":14146:14213   */\n      tag_134\n      jump\t// in\n    tag_290:\n        /* \"#utility.yul\":14240:14241   */\n      0x00\n        /* \"#utility.yul\":14264:14268   */\n      0x20\n        /* \"#utility.yul\":14251:14268   */\n      swap1\n      pop\n        /* \"#utility.yul\":14296:14298   */\n      0x1f\n        /* \"#utility.yul\":14288:14294   */\n      dup4\n        /* \"#utility.yul\":14285:14299   */\n      gt\n        /* \"#utility.yul\":14313:14314   */\n      0x01\n        /* \"#utility.yul\":14308:14926   */\n      dup2\n      eq\n      tag_292\n      jumpi\n        /* \"#utility.yul\":14970:14971   */\n      0x00\n        /* \"#utility.yul\":14987:14993   */\n      dup5\n        /* \"#utility.yul\":14984:15061   */\n      iszero\n      tag_293\n      jumpi\n        /* \"#utility.yul\":15036:15045   */\n      dup3\n        /* \"#utility.yul\":15031:15034   */\n      dup8\n        /* \"#utility.yul\":15027:15046   */\n      add\n        /* \"#utility.yul\":15021:15047   */\n      mload\n        /* \"#utility.yul\":15012:15047   */\n      swap1\n      pop\n        /* \"#utility.yul\":14984:15061   */\n    tag_293:\n        /* \"#utility.yul\":15087:15154   */\n      tag_294\n        /* \"#utility.yul\":15147:15153   */\n      dup6\n        /* \"#utility.yul\":15140:15145   */\n      dup3\n        /* \"#utility.yul\":15087:15154   */\n      tag_137\n      jump\t// in\n    tag_294:\n        /* \"#utility.yul\":15081:15085   */\n      dup7\n        /* \"#utility.yul\":15074:15155   */\n      sstore\n        /* \"#utility.yul\":14943:15165   */\n      pop\n        /* \"#utility.yul\":14278:15165   */\n      jump(tag_291)\n        /* \"#utility.yul\":14308:14926   */\n    tag_292:\n        /* \"#utility.yul\":14360:14364   */\n      0x1f\n        /* \"#utility.yul\":14356:14365   */\n      not\n        /* \"#utility.yul\":14348:14354   */\n      dup5\n        /* \"#utility.yul\":14344:14366   */\n      and\n        /* \"#utility.yul\":14394:14431   */\n      tag_295\n        /* \"#utility.yul\":14426:14430   */\n      dup7\n        /* \"#utility.yul\":14394:14431   */\n      tag_123\n      jump\t// in\n    tag_295:\n        /* \"#utility.yul\":14453:14454   */\n      0x00\n        /* \"#utility.yul\":14467:14675   */\n    tag_296:\n        /* \"#utility.yul\":14481:14488   */\n      dup3\n        /* \"#utility.yul\":14478:14479   */\n      dup2\n        /* \"#utility.yul\":14475:14489   */\n      lt\n        /* \"#utility.yul\":14467:14675   */\n      iszero\n      tag_298\n      jumpi\n        /* \"#utility.yul\":14560:14569   */\n      dup5\n        /* \"#utility.yul\":14555:14558   */\n      dup10\n        /* \"#utility.yul\":14551:14570   */\n      add\n        /* \"#utility.yul\":14545:14571   */\n      mload\n        /* \"#utility.yul\":14537:14543   */\n      dup3\n        /* \"#utility.yul\":14530:14572   */\n      sstore\n        /* \"#utility.yul\":14611:14612   */\n      0x01\n        /* \"#utility.yul\":14603:14609   */\n      dup3\n        /* \"#utility.yul\":14599:14613   */\n      add\n        /* \"#utility.yul\":14589:14613   */\n      swap2\n      pop\n        /* \"#utility.yul\":14658:14660   */\n      0x20\n        /* \"#utility.yul\":14647:14656   */\n      dup6\n        /* \"#utility.yul\":14643:14661   */\n      add\n        /* \"#utility.yul\":14630:14661   */\n      swap5\n      pop\n        /* \"#utility.yul\":14504:14508   */\n      0x20\n        /* \"#utility.yul\":14501:14502   */\n      dup2\n        /* \"#utility.yul\":14497:14509   */\n      add\n        /* \"#utility.yul\":14492:14509   */\n      swap1\n      pop\n        /* \"#utility.yul\":14467:14675   */\n      jump(tag_296)\n    tag_298:\n        /* \"#utility.yul\":14703:14709   */\n      dup7\n        /* \"#utility.yul\":14694:14701   */\n      dup4\n        /* \"#utility.yul\":14691:14710   */\n      lt\n        /* \"#utility.yul\":14688:14867   */\n      iszero\n      tag_299\n      jumpi\n        /* \"#utility.yul\":14761:14770   */\n      dup5\n        /* \"#utility.yul\":14756:14759   */\n      dup10\n        /* \"#utility.yul\":14752:14771   */\n      add\n        /* \"#utility.yul\":14746:14772   */\n      mload\n        /* \"#utility.yul\":14804:14852   */\n      tag_300\n        /* \"#utility.yul\":14846:14850   */\n      0x1f\n        /* \"#utility.yul\":14838:14844   */\n      dup10\n        /* \"#utility.yul\":14834:14851   */\n      and\n        /* \"#utility.yul\":14823:14832   */\n      dup3\n        /* \"#utility.yul\":14804:14852   */\n      tag_136\n      jump\t// in\n    tag_300:\n        /* \"#utility.yul\":14796:14802   */\n      dup4\n        /* \"#utility.yul\":14789:14853   */\n      sstore\n        /* \"#utility.yul\":14711:14867   */\n      pop\n        /* \"#utility.yul\":14688:14867   */\n    tag_299:\n        /* \"#utility.yul\":14913:14914   */\n      0x01\n        /* \"#utility.yul\":14909:14910   */\n      0x02\n        /* \"#utility.yul\":14901:14907   */\n      dup9\n        /* \"#utility.yul\":14897:14911   */\n      mul\n        /* \"#utility.yul\":14893:14915   */\n      add\n        /* \"#utility.yul\":14887:14891   */\n      dup9\n        /* \"#utility.yul\":14880:14916   */\n      sstore\n        /* \"#utility.yul\":14315:14926   */\n      pop\n      pop\n      pop\n        /* \"#utility.yul\":14278:15165   */\n    tag_291:\n      pop\n        /* \"#utility.yul\":13868:15171   */\n      pop\n      pop\n      pop\n        /* \"#utility.yul\":13776:15171   */\n      pop\n      pop\n      jump\t// out\n        /* \"#utility.yul\":15177:15710   */\n    tag_88:\n        /* \"#utility.yul\":15346:15350   */\n      0x00\n        /* \"#utility.yul\":15384:15386   */\n      0x60\n        /* \"#utility.yul\":15373:15382   */\n      dup3\n        /* \"#utility.yul\":15369:15387   */\n      add\n        /* \"#utility.yul\":15361:15387   */\n      swap1\n      pop\n        /* \"#utility.yul\":15397:15468   */\n      tag_302\n        /* \"#utility.yul\":15465:15466   */\n      0x00\n        /* \"#utility.yul\":15454:15463   */\n      dup4\n        /* \"#utility.yul\":15450:15467   */\n      add\n        /* \"#utility.yul\":15441:15447   */\n      dup7\n        /* \"#utility.yul\":15397:15468   */\n      tag_95\n      jump\t// in\n    tag_302:\n        /* \"#utility.yul\":15478:15550   */\n      tag_303\n        /* \"#utility.yul\":15546:15548   */\n      0x20\n        /* \"#utility.yul\":15535:15544   */\n      dup4\n        /* \"#utility.yul\":15531:15549   */\n      add\n        /* \"#utility.yul\":15522:15528   */\n      dup6\n        /* \"#utility.yul\":15478:15550   */\n      tag_107\n      jump\t// in\n    tag_303:\n        /* \"#utility.yul\":15597:15606   */\n      dup2\n        /* \"#utility.yul\":15591:15595   */\n      dup2\n        /* \"#utility.yul\":15587:15607   */\n      sub\n        /* \"#utility.yul\":15582:15584   */\n      0x40\n        /* \"#utility.yul\":15571:15580   */\n      dup4\n        /* \"#utility.yul\":15567:15585   */\n      add\n        /* \"#utility.yul\":15560:15608   */\n      mstore\n        /* \"#utility.yul\":15625:15703   */\n      tag_304\n        /* \"#utility.yul\":15698:15702   */\n      dup2\n        /* \"#utility.yul\":15689:15695   */\n      dup5\n        /* \"#utility.yul\":15625:15703   */\n      tag_103\n      jump\t// in\n    tag_304:\n        /* \"#utility.yul\":15617:15703   */\n      swap1\n      pop\n        /* \"#utility.yul\":15177:15710   */\n      swap5\n      swap4\n      pop\n      pop\n      pop\n      pop\n      jump\t// out\n\n    auxdata: 0xa2646970667358221220de2bb49b01e47fa57d0aad699b154580002300eab2a7355d288baccb0982a3b664736f6c634300081a0033\n}\n",
				"bytecode": {
					"linkReferences": {},
					"object": "60806040525f600155670de0b6b3a7640000600355348015601e575f80fd5b50335f806101000a81548173ffffffffffffffffffffffffffffffffffffffff021916908373ffffffffffffffffffffffffffffffffffffffff1602179055506110688061006b5f395ff3fe608060405260043610610085575f3560e01c80638da5cb5b116100585780638da5cb5b14610132578063bd097e211461015c578063bd45b39714610166578063f06facd414610190578063f7b2a7be146101b857610085565b806324600fc31461008957806354973c0e1461009f5780636f9fb98a146100c75780638afdd669146100f1575b5f80fd5b348015610094575f80fd5b5061009d6101e2565b005b3480156100aa575f80fd5b506100c560048036038101906100c091906107f7565b6102d4565b005b3480156100d2575f80fd5b506100db6104ba565b6040516100e89190610844565b60405180910390f35b3480156100fc575f80fd5b506101176004803603810190610112919061085d565b6104c1565b60405161012996959493929190610951565b60405180910390f35b34801561013d575f80fd5b506101466105aa565b60405161015391906109d7565b60405180910390f35b6101646105cd565b005b348015610171575f80fd5b5061017a61065c565b6040516101879190610844565b60405180910390f35b34801561019b575f80fd5b506101b660048036038101906101b19190610b1c565b610662565b005b3480156101c3575f80fd5b506101cc6107ad565b6040516101d99190610844565b60405180910390f35b5f8054906101000a900473ffffffffffffffffffffffffffffffffffffffff1673ffffffffffffffffffffffffffffffffffffffff163373ffffffffffffffffffffffffffffffffffffffff161461026f576040517f08c379a000000000000000000000000000000000000000000000000000000000815260040161026690610be6565b60405180910390fd5b5f8054906101000a900473ffffffffffffffffffffffffffffffffffffffff1673ffffffffffffffffffffffffffffffffffffffff166108fc4790811502906040515f60405180830381858888f193505050501580156102d1573d5f803e3d5ffd5b50565b813373ffffffffffffffffffffffffffffffffffffffff1660025f8381526020019081526020015f206001015f9054906101000a900473ffffffffffffffffffffffffffffffffffffffff1673ffffffffffffffffffffffffffffffffffffffff1614610376576040517f08c379a000000000000000000000000000000000000000000000000000000000815260040161036d90610c74565b60405180910390fd5b5f60025f8581526020019081526020015f2090508281600401819055507fb5caada44c21534f899b80931d6822af878c135819ecf2b62cfb2b81d7f299d484846040516103c4929190610c92565b60405180910390a1806003015483101580156103ee5750806005015f9054906101000a900460ff16155b156104b4576001816005015f6101000a81548160ff021916908315150217905550806001015f9054906101000a900473ffffffffffffffffffffffffffffffffffffffff1673ffffffffffffffffffffffffffffffffffffffff166108fc60035490811502906040515f60405180830381858888f19350505050158015610477573d5f803e3d5ffd5b507f7ed5179aa7adffa126c513f65086eccafdfd569eed93567299f95576c7199c86846003546040516104ab929190610c92565b60405180910390a15b50505050565b5f47905090565b6002602052805f5260405f205f91509050805f015490806001015f9054906101000a900473ffffffffffffffffffffffffffffffffffffffff169080600201805461050b90610ce6565b80601f016020809104026020016040519081016040528092919081815260200182805461053790610ce6565b80156105825780601f1061055957610100808354040283529160200191610582565b820191905f5260205f20905b81548152906001019060200180831161056557829003601f168201915b505050505090806003015490806004015490806005015f9054906101000a900460ff16905086565b5f8054906101000a900473ffffffffffffffffffffffffffffffffffffffff1681565b5f8054906101000a900473ffffffffffffffffffffffffffffffffffffffff1673ffffffffffffffffffffffffffffffffffffffff163373ffffffffffffffffffffffffffffffffffffffff161461065a576040517f08c379a000000000000000000000000000000000000000000000000000000000815260040161065190610be6565b60405180910390fd5b565b60015481565b60015f81548092919061067490610d43565b91905055506040518060c0016040528060015481526020013373ffffffffffffffffffffffffffffffffffffffff1681526020018381526020018281526020015f81526020015f151581525060025f60015481526020019081526020015f205f820151815f01556020820151816001015f6101000a81548173ffffffffffffffffffffffffffffffffffffffff021916908373ffffffffffffffffffffffffffffffffffffffff16021790555060408201518160020190816107369190610f27565b50606082015181600301556080820151816004015560a0820151816005015f6101000a81548160ff0219169083151502179055509050507ed1b00de820fb68e740812550c25879e97400dbbbf6760c08281f0a5734fb5b60015433846040516107a193929190610ff6565b60405180910390a15050565b60035481565b5f604051905090565b5f80fd5b5f80fd5b5f819050919050565b6107d6816107c4565b81146107e0575f80fd5b50565b5f813590506107f1816107cd565b92915050565b5f806040838503121561080d5761080c6107bc565b5b5f61081a858286016107e3565b925050602061082b858286016107e3565b9150509250929050565b61083e816107c4565b82525050565b5f6020820190506108575f830184610835565b92915050565b5f60208284031215610872576108716107bc565b5b5f61087f848285016107e3565b91505092915050565b5f73ffffffffffffffffffffffffffffffffffffffff82169050919050565b5f6108b182610888565b9050919050565b6108c1816108a7565b82525050565b5f81519050919050565b5f82825260208201905092915050565b8281835e5f83830152505050565b5f601f19601f8301169050919050565b5f610909826108c7565b61091381856108d1565b93506109238185602086016108e1565b61092c816108ef565b840191505092915050565b5f8115159050919050565b61094b81610937565b82525050565b5f60c0820190506109645f830189610835565b61097160208301886108b8565b818103604083015261098381876108ff565b90506109926060830186610835565b61099f6080830185610835565b6109ac60a0830184610942565b979650505050505050565b5f6109c182610888565b9050919050565b6109d1816109b7565b82525050565b5f6020820190506109ea5f8301846109c8565b92915050565b5f80fd5b5f80fd5b7f4e487b71000000000000000000000000000000000000000000000000000000005f52604160045260245ffd5b610a2e826108ef565b810181811067ffffffffffffffff82111715610a4d57610a4c6109f8565b5b80604052505050565b5f610a5f6107b3565b9050610a6b8282610a25565b919050565b5f67ffffffffffffffff821115610a8a57610a896109f8565b5b610a93826108ef565b9050602081019050919050565b828183375f83830152505050565b5f610ac0610abb84610a70565b610a56565b905082815260208101848484011115610adc57610adb6109f4565b5b610ae7848285610aa0565b509392505050565b5f82601f830112610b0357610b026109f0565b5b8135610b13848260208601610aae565b91505092915050565b5f8060408385031215610b3257610b316107bc565b5b5f83013567ffffffffffffffff811115610b4f57610b4e6107c0565b5b610b5b85828601610aef565b9250506020610b6c858286016107e3565b9150509250929050565b7f4f6e6c7920746865206f776e65722063616e20706572666f726d2074686973205f8201527f616374696f6e0000000000000000000000000000000000000000000000000000602082015250565b5f610bd06026836108d1565b9150610bdb82610b76565b604082019050919050565b5f6020820190508181035f830152610bfd81610bc4565b9050919050565b7f4f6e6c79207468652072656769737465726564206661726d65722063616e20705f8201527f6572666f726d207468697320616374696f6e0000000000000000000000000000602082015250565b5f610c5e6032836108d1565b9150610c6982610c04565b604082019050919050565b5f6020820190508181035f830152610c8b81610c52565b9050919050565b5f604082019050610ca55f830185610835565b610cb26020830184610835565b9392505050565b7f4e487b71000000000000000000000000000000000000000000000000000000005f52602260045260245ffd5b5f6002820490506001821680610cfd57607f821691505b602082108103610d1057610d0f610cb9565b5b50919050565b7f4e487b71000000000000000000000000000000000000000000000000000000005f52601160045260245ffd5b5f610d4d826107c4565b91507fffffffffffffffffffffffffffffffffffffffffffffffffffffffffffffffff8203610d7f57610d7e610d16565b5b600182019050919050565b5f819050815f5260205f209050919050565b5f6020601f8301049050919050565b5f82821b905092915050565b5f60088302610de67fffffffffffffffffffffffffffffffffffffffffffffffffffffffffffffffff82610dab565b610df08683610dab565b95508019841693508086168417925050509392505050565b5f819050919050565b5f610e2b610e26610e21846107c4565b610e08565b6107c4565b9050919050565b5f819050919050565b610e4483610e11565b610e58610e5082610e32565b848454610db7565b825550505050565b5f90565b610e6c610e60565b610e77818484610e3b565b505050565b5b81811015610e9a57610e8f5f82610e64565b600181019050610e7d565b5050565b601f821115610edf57610eb081610d8a565b610eb984610d9c565b81016020851015610ec8578190505b610edc610ed485610d9c565b830182610e7c565b50505b505050565b5f82821c905092915050565b5f610eff5f1984600802610ee4565b1980831691505092915050565b5f610f178383610ef0565b9150826002028217905092915050565b610f30826108c7565b67ffffffffffffffff811115610f4957610f486109f8565b5b610f538254610ce6565b610f5e828285610e9e565b5f60209050601f831160018114610f8f575f8415610f7d578287015190505b610f878582610f0c565b865550610fee565b601f198416610f9d86610d8a565b5f5b82811015610fc457848901518255600182019150602085019450602081019050610f9f565b86831015610fe15784890151610fdd601f891682610ef0565b8355505b6001600288020188555050505b505050505050565b5f6060820190506110095f830186610835565b61101660208301856109c8565b818103604083015261102881846108ff565b905094935050505056fea2646970667358221220de2bb49b01e47fa57d0aad699b154580002300eab2a7355d288baccb0982a3b664736f6c634300081a0033",
					"opcodes": "PUSH1 0x80 PUSH1 0x40 MSTORE PUSH0 PUSH1 0x1 SSTORE PUSH8 0xDE0B6B3A7640000 PUSH1 0x3 SSTORE CALLVALUE DUP1 ISZERO PUSH1 0x1E JUMPI PUSH0 DUP1 REVERT JUMPDEST POP CALLER PUSH0 DUP1 PUSH2 0x100 EXP DUP2 SLOAD DUP2 PUSH20 0xFFFFFFFFFFFFFFFFFFFFFFFFFFFFFFFFFFFFFFFF MUL NOT AND SWAP1 DUP4 PUSH20 0xFFFFFFFFFFFFFFFFFFFFFFFFFFFFFFFFFFFFFFFF AND MUL OR SWAP1 SSTORE POP PUSH2 0x1068 DUP1 PUSH2 0x6B PUSH0 CODECOPY PUSH0 RETURN INVALID PUSH1 0x80 PUSH1 0x40 MSTORE PUSH1 0x4 CALLDATASIZE LT PUSH2 0x85 JUMPI PUSH0 CALLDATALOAD PUSH1 0xE0 SHR DUP1 PUSH4 0x8DA5CB5B GT PUSH2 0x58 JUMPI DUP1 PUSH4 0x8DA5CB5B EQ PUSH2 0x132 JUMPI DUP1 PUSH4 0xBD097E21 EQ PUSH2 0x15C JUMPI DUP1 PUSH4 0xBD45B397 EQ PUSH2 0x166 JUMPI DUP1 PUSH4 0xF06FACD4 EQ PUSH2 0x190 JUMPI DUP1 PUSH4 0xF7B2A7BE EQ PUSH2 0x1B8 JUMPI PUSH2 0x85 JUMP JUMPDEST DUP1 PUSH4 0x24600FC3 EQ PUSH2 0x89 JUMPI DUP1 PUSH4 0x54973C0E EQ PUSH2 0x9F JUMPI DUP1 PUSH4 0x6F9FB98A EQ PUSH2 0xC7 JUMPI DUP1 PUSH4 0x8AFDD669 EQ PUSH2 0xF1 JUMPI JUMPDEST PUSH0 DUP1 REVERT JUMPDEST CALLVALUE DUP1 ISZERO PUSH2 0x94 JUMPI PUSH0 DUP1 REVERT JUMPDEST POP PUSH2 0x9D PUSH2 0x1E2 JUMP JUMPDEST STOP JUMPDEST CALLVALUE DUP1 ISZERO PUSH2 0xAA JUMPI PUSH0 DUP1 REVERT JUMPDEST POP PUSH2 0xC5 PUSH1 0x4 DUP1 CALLDATASIZE SUB DUP2 ADD SWAP1 PUSH2 0xC0 SWAP2 SWAP1 PUSH2 0x7F7 JUMP JUMPDEST PUSH2 0x2D4 JUMP JUMPDEST STOP JUMPDEST CALLVALUE DUP1 ISZERO PUSH2 0xD2 JUMPI PUSH0 DUP1 REVERT JUMPDEST POP PUSH2 0xDB PUSH2 0x4BA JUMP JUMPDEST PUSH1 0x40 MLOAD PUSH2 0xE8 SWAP2 SWAP1 PUSH2 0x844 JUMP JUMPDEST PUSH1 0x40 MLOAD DUP1 SWAP2 SUB SWAP1 RETURN JUMPDEST CALLVALUE DUP1 ISZERO PUSH2 0xFC JUMPI PUSH0 DUP1 REVERT JUMPDEST POP PUSH2 0x117 PUSH1 0x4 DUP1 CALLDATASIZE SUB DUP2 ADD SWAP1 PUSH2 0x112 SWAP2 SWAP1 PUSH2 0x85D JUMP JUMPDEST PUSH2 0x4C1 JUMP JUMPDEST PUSH1 0x40 MLOAD PUSH2 0x129 SWAP7 SWAP6 SWAP5 SWAP4 SWAP3 SWAP2 SWAP1 PUSH2 0x951 JUMP JUMPDEST PUSH1 0x40 MLOAD DUP1 SWAP2 SUB SWAP1 RETURN JUMPDEST CALLVALUE DUP1 ISZERO PUSH2 0x13D JUMPI PUSH0 DUP1 REVERT JUMPDEST POP PUSH2 0x146 PUSH2 0x5AA JUMP JUMPDEST PUSH1 0x40 MLOAD PUSH2 0x153 SWAP2 SWAP1 PUSH2 0x9D7 JUMP JUMPDEST PUSH1 0x40 MLOAD DUP1 SWAP2 SUB SWAP1 RETURN JUMPDEST PUSH2 0x164 PUSH2 0x5CD JUMP JUMPDEST STOP JUMPDEST CALLVALUE DUP1 ISZERO PUSH2 0x171 JUMPI PUSH0 DUP1 REVERT JUMPDEST POP PUSH2 0x17A PUSH2 0x65C JUMP JUMPDEST PUSH1 0x40 MLOAD PUSH2 0x187 SWAP2 SWAP1 PUSH2 0x844 JUMP JUMPDEST PUSH1 0x40 MLOAD DUP1 SWAP2 SUB SWAP1 RETURN JUMPDEST CALLVALUE DUP1 ISZERO PUSH2 0x19B JUMPI PUSH0 DUP1 REVERT JUMPDEST POP PUSH2 0x1B6 PUSH1 0x4 DUP1 CALLDATASIZE SUB DUP2 ADD SWAP1 PUSH2 0x1B1 SWAP2 SWAP1 PUSH2 0xB1C JUMP JUMPDEST PUSH2 0x662 JUMP JUMPDEST STOP JUMPDEST CALLVALUE DUP1 ISZERO PUSH2 0x1C3 JUMPI PUSH0 DUP1 REVERT JUMPDEST POP PUSH2 0x1CC PUSH2 0x7AD JUMP JUMPDEST PUSH1 0x40 MLOAD PUSH2 0x1D9 SWAP2 SWAP1 PUSH2 0x844 JUMP JUMPDEST PUSH1 0x40 MLOAD DUP1 SWAP2 SUB SWAP1 RETURN JUMPDEST PUSH0 DUP1 SLOAD SWAP1 PUSH2 0x100 EXP SWAP1 DIV PUSH20 0xFFFFFFFFFFFFFFFFFFFFFFFFFFFFFFFFFFFFFFFF AND PUSH20 0xFFFFFFFFFFFFFFFFFFFFFFFFFFFFFFFFFFFFFFFF AND CALLER PUSH20 0xFFFFFFFFFFFFFFFFFFFFFFFFFFFFFFFFFFFFFFFF AND EQ PUSH2 0x26F JUMPI PUSH1 0x40 MLOAD PUSH32 0x8C379A000000000000000000000000000000000000000000000000000000000 DUP2 MSTORE PUSH1 0x4 ADD PUSH2 0x266 SWAP1 PUSH2 0xBE6 JUMP JUMPDEST PUSH1 0x40 MLOAD DUP1 SWAP2 SUB SWAP1 REVERT JUMPDEST PUSH0 DUP1 SLOAD SWAP1 PUSH2 0x100 EXP SWAP1 DIV PUSH20 0xFFFFFFFFFFFFFFFFFFFFFFFFFFFFFFFFFFFFFFFF AND PUSH20 0xFFFFFFFFFFFFFFFFFFFFFFFFFFFFFFFFFFFFFFFF AND PUSH2 0x8FC SELFBALANCE SWAP1 DUP2 ISZERO MUL SWAP1 PUSH1 0x40 MLOAD PUSH0 PUSH1 0x40 MLOAD DUP1 DUP4 SUB DUP2 DUP6 DUP9 DUP9 CALL SWAP4 POP POP POP POP ISZERO DUP1 ISZERO PUSH2 0x2D1 JUMPI RETURNDATASIZE PUSH0 DUP1 RETURNDATACOPY RETURNDATASIZE PUSH0 REVERT JUMPDEST POP JUMP JUMPDEST DUP2 CALLER PUSH20 0xFFFFFFFFFFFFFFFFFFFFFFFFFFFFFFFFFFFFFFFF AND PUSH1 0x2 PUSH0 DUP4 DUP2 MSTORE PUSH1 0x20 ADD SWAP1 DUP2 MSTORE PUSH1 0x20 ADD PUSH0 KECCAK256 PUSH1 0x1 ADD PUSH0 SWAP1 SLOAD SWAP1 PUSH2 0x100 EXP SWAP1 DIV PUSH20 0xFFFFFFFFFFFFFFFFFFFFFFFFFFFFFFFFFFFFFFFF AND PUSH20 0xFFFFFFFFFFFFFFFFFFFFFFFFFFFFFFFFFFFFFFFF AND EQ PUSH2 0x376 JUMPI PUSH1 0x40 MLOAD PUSH32 0x8C379A000000000000000000000000000000000000000000000000000000000 DUP2 MSTORE PUSH1 0x4 ADD PUSH2 0x36D SWAP1 PUSH2 0xC74 JUMP JUMPDEST PUSH1 0x40 MLOAD DUP1 SWAP2 SUB SWAP1 REVERT JUMPDEST PUSH0 PUSH1 0x2 PUSH0 DUP6 DUP2 MSTORE PUSH1 0x20 ADD SWAP1 DUP2 MSTORE PUSH1 0x20 ADD PUSH0 KECCAK256 SWAP1 POP DUP3 DUP2 PUSH1 0x4 ADD DUP2 SWAP1 SSTORE POP PUSH32 0xB5CAADA44C21534F899B80931D6822AF878C135819ECF2B62CFB2B81D7F299D4 DUP5 DUP5 PUSH1 0x40 MLOAD PUSH2 0x3C4 SWAP3 SWAP2 SWAP1 PUSH2 0xC92 JUMP JUMPDEST PUSH1 0x40 MLOAD DUP1 SWAP2 SUB SWAP1 LOG1 DUP1 PUSH1 0x3 ADD SLOAD DUP4 LT ISZERO DUP1 ISZERO PUSH2 0x3EE JUMPI POP DUP1 PUSH1 0x5 ADD PUSH0 SWAP1 SLOAD SWAP1 PUSH2 0x100 EXP SWAP1 DIV PUSH1 0xFF AND ISZERO JUMPDEST ISZERO PUSH2 0x4B4 JUMPI PUSH1 0x1 DUP2 PUSH1 0x5 ADD PUSH0 PUSH2 0x100 EXP DUP2 SLOAD DUP2 PUSH1 0xFF MUL NOT AND SWAP1 DUP4 ISZERO ISZERO MUL OR SWAP1 SSTORE POP DUP1 PUSH1 0x1 ADD PUSH0 SWAP1 SLOAD SWAP1 PUSH2 0x100 EXP SWAP1 DIV PUSH20 0xFFFFFFFFFFFFFFFFFFFFFFFFFFFFFFFFFFFFFFFF AND PUSH20 0xFFFFFFFFFFFFFFFFFFFFFFFFFFFFFFFFFFFFFFFF AND PUSH2 0x8FC PUSH1 0x3 SLOAD SWAP1 DUP2 ISZERO MUL SWAP1 PUSH1 0x40 MLOAD PUSH0 PUSH1 0x40 MLOAD DUP1 DUP4 SUB DUP2 DUP6 DUP9 DUP9 CALL SWAP4 POP POP POP POP ISZERO DUP1 ISZERO PUSH2 0x477 JUMPI RETURNDATASIZE PUSH0 DUP1 RETURNDATACOPY RETURNDATASIZE PUSH0 REVERT JUMPDEST POP PUSH32 0x7ED5179AA7ADFFA126C513F65086ECCAFDFD569EED93567299F95576C7199C86 DUP5 PUSH1 0x3 SLOAD PUSH1 0x40 MLOAD PUSH2 0x4AB SWAP3 SWAP2 SWAP1 PUSH2 0xC92 JUMP JUMPDEST PUSH1 0x40 MLOAD DUP1 SWAP2 SUB SWAP1 LOG1 JUMPDEST POP POP POP POP JUMP JUMPDEST PUSH0 SELFBALANCE SWAP1 POP SWAP1 JUMP JUMPDEST PUSH1 0x2 PUSH1 0x20 MSTORE DUP1 PUSH0 MSTORE PUSH1 0x40 PUSH0 KECCAK256 PUSH0 SWAP2 POP SWAP1 POP DUP1 PUSH0 ADD SLOAD SWAP1 DUP1 PUSH1 0x1 ADD PUSH0 SWAP1 SLOAD SWAP1 PUSH2 0x100 EXP SWAP1 DIV PUSH20 0xFFFFFFFFFFFFFFFFFFFFFFFFFFFFFFFFFFFFFFFF AND SWAP1 DUP1 PUSH1 0x2 ADD DUP1 SLOAD PUSH2 0x50B SWAP1 PUSH2 0xCE6 JUMP JUMPDEST DUP1 PUSH1 0x1F ADD PUSH1 0x20 DUP1 SWAP2 DIV MUL PUSH1 0x20 ADD PUSH1 0x40 MLOAD SWAP1 DUP2 ADD PUSH1 0x40 MSTORE DUP1 SWAP3 SWAP2 SWAP1 DUP2 DUP2 MSTORE PUSH1 0x20 ADD DUP3 DUP1 SLOAD PUSH2 0x537 SWAP1 PUSH2 0xCE6 JUMP JUMPDEST DUP1 ISZERO PUSH2 0x582 JUMPI DUP1 PUSH1 0x1F LT PUSH2 0x559 JUMPI PUSH2 0x100 DUP1 DUP4 SLOAD DIV MUL DUP4 MSTORE SWAP2 PUSH1 0x20 ADD SWAP2 PUSH2 0x582 JUMP JUMPDEST DUP3 ADD SWAP2 SWAP1 PUSH0 MSTORE PUSH1 0x20 PUSH0 KECCAK256 SWAP1 JUMPDEST DUP2 SLOAD DUP2 MSTORE SWAP1 PUSH1 0x1 ADD SWAP1 PUSH1 0x20 ADD DUP1 DUP4 GT PUSH2 0x565 JUMPI DUP3 SWAP1 SUB PUSH1 0x1F AND DUP3 ADD SWAP2 JUMPDEST POP POP POP POP POP SWAP1 DUP1 PUSH1 0x3 ADD SLOAD SWAP1 DUP1 PUSH1 0x4 ADD SLOAD SWAP1 DUP1 PUSH1 0x5 ADD PUSH0 SWAP1 SLOAD SWAP1 PUSH2 0x100 EXP SWAP1 DIV PUSH1 0xFF AND SWAP1 POP DUP7 JUMP JUMPDEST PUSH0 DUP1 SLOAD SWAP1 PUSH2 0x100 EXP SWAP1 DIV PUSH20 0xFFFFFFFFFFFFFFFFFFFFFFFFFFFFFFFFFFFFFFFF AND DUP2 JUMP JUMPDEST PUSH0 DUP1 SLOAD SWAP1 PUSH2 0x100 EXP SWAP1 DIV PUSH20 0xFFFFFFFFFFFFFFFFFFFFFFFFFFFFFFFFFFFFFFFF AND PUSH20 0xFFFFFFFFFFFFFFFFFFFFFFFFFFFFFFFFFFFFFFFF AND CALLER PUSH20 0xFFFFFFFFFFFFFFFFFFFFFFFFFFFFFFFFFFFFFFFF AND EQ PUSH2 0x65A JUMPI PUSH1 0x40 MLOAD PUSH32 0x8C379A000000000000000000000000000000000000000000000000000000000 DUP2 MSTORE PUSH1 0x4 ADD PUSH2 0x651 SWAP1 PUSH2 0xBE6 JUMP JUMPDEST PUSH1 0x40 MLOAD DUP1 SWAP2 SUB SWAP1 REVERT JUMPDEST JUMP JUMPDEST PUSH1 0x1 SLOAD DUP2 JUMP JUMPDEST PUSH1 0x1 PUSH0 DUP2 SLOAD DUP1 SWAP3 SWAP2 SWAP1 PUSH2 0x674 SWAP1 PUSH2 0xD43 JUMP JUMPDEST SWAP2 SWAP1 POP SSTORE POP PUSH1 0x40 MLOAD DUP1 PUSH1 0xC0 ADD PUSH1 0x40 MSTORE DUP1 PUSH1 0x1 SLOAD DUP2 MSTORE PUSH1 0x20 ADD CALLER PUSH20 0xFFFFFFFFFFFFFFFFFFFFFFFFFFFFFFFFFFFFFFFF AND DUP2 MSTORE PUSH1 0x20 ADD DUP4 DUP2 MSTORE PUSH1 0x20 ADD DUP3 DUP2 MSTORE PUSH1 0x20 ADD PUSH0 DUP2 MSTORE PUSH1 0x20 ADD PUSH0 ISZERO ISZERO DUP2 MSTORE POP PUSH1 0x2 PUSH0 PUSH1 0x1 SLOAD DUP2 MSTORE PUSH1 0x20 ADD SWAP1 DUP2 MSTORE PUSH1 0x20 ADD PUSH0 KECCAK256 PUSH0 DUP3 ADD MLOAD DUP2 PUSH0 ADD SSTORE PUSH1 0x20 DUP3 ADD MLOAD DUP2 PUSH1 0x1 ADD PUSH0 PUSH2 0x100 EXP DUP2 SLOAD DUP2 PUSH20 0xFFFFFFFFFFFFFFFFFFFFFFFFFFFFFFFFFFFFFFFF MUL NOT AND SWAP1 DUP4 PUSH20 0xFFFFFFFFFFFFFFFFFFFFFFFFFFFFFFFFFFFFFFFF AND MUL OR SWAP1 SSTORE POP PUSH1 0x40 DUP3 ADD MLOAD DUP2 PUSH1 0x2 ADD SWAP1 DUP2 PUSH2 0x736 SWAP2 SWAP1 PUSH2 0xF27 JUMP JUMPDEST POP PUSH1 0x60 DUP3 ADD MLOAD DUP2 PUSH1 0x3 ADD SSTORE PUSH1 0x80 DUP3 ADD MLOAD DUP2 PUSH1 0x4 ADD SSTORE PUSH1 0xA0 DUP3 ADD MLOAD DUP2 PUSH1 0x5 ADD PUSH0 PUSH2 0x100 EXP DUP2 SLOAD DUP2 PUSH1 0xFF MUL NOT AND SWAP1 DUP4 ISZERO ISZERO MUL OR SWAP1 SSTORE POP SWAP1 POP POP PUSH31 0xD1B00DE820FB68E740812550C25879E97400DBBBF6760C08281F0A5734FB5B PUSH1 0x1 SLOAD CALLER DUP5 PUSH1 0x40 MLOAD PUSH2 0x7A1 SWAP4 SWAP3 SWAP2 SWAP1 PUSH2 0xFF6 JUMP JUMPDEST PUSH1 0x40 MLOAD DUP1 SWAP2 SUB SWAP1 LOG1 POP POP JUMP JUMPDEST PUSH1 0x3 SLOAD DUP2 JUMP JUMPDEST PUSH0 PUSH1 0x40 MLOAD SWAP1 POP SWAP1 JUMP JUMPDEST PUSH0 DUP1 REVERT JUMPDEST PUSH0 DUP1 REVERT JUMPDEST PUSH0 DUP2 SWAP1 POP SWAP2 SWAP1 POP JUMP JUMPDEST PUSH2 0x7D6 DUP2 PUSH2 0x7C4 JUMP JUMPDEST DUP2 EQ PUSH2 0x7E0 JUMPI PUSH0 DUP1 REVERT JUMPDEST POP JUMP JUMPDEST PUSH0 DUP2 CALLDATALOAD SWAP1 POP PUSH2 0x7F1 DUP2 PUSH2 0x7CD JUMP JUMPDEST SWAP3 SWAP2 POP POP JUMP JUMPDEST PUSH0 DUP1 PUSH1 0x40 DUP4 DUP6 SUB SLT ISZERO PUSH2 0x80D JUMPI PUSH2 0x80C PUSH2 0x7BC JUMP JUMPDEST JUMPDEST PUSH0 PUSH2 0x81A DUP6 DUP3 DUP7 ADD PUSH2 0x7E3 JUMP JUMPDEST SWAP3 POP POP PUSH1 0x20 PUSH2 0x82B DUP6 DUP3 DUP7 ADD PUSH2 0x7E3 JUMP JUMPDEST SWAP2 POP POP SWAP3 POP SWAP3 SWAP1 POP JUMP JUMPDEST PUSH2 0x83E DUP2 PUSH2 0x7C4 JUMP JUMPDEST DUP3 MSTORE POP POP JUMP JUMPDEST PUSH0 PUSH1 0x20 DUP3 ADD SWAP1 POP PUSH2 0x857 PUSH0 DUP4 ADD DUP5 PUSH2 0x835 JUMP JUMPDEST SWAP3 SWAP2 POP POP JUMP JUMPDEST PUSH0 PUSH1 0x20 DUP3 DUP5 SUB SLT ISZERO PUSH2 0x872 JUMPI PUSH2 0x871 PUSH2 0x7BC JUMP JUMPDEST JUMPDEST PUSH0 PUSH2 0x87F DUP5 DUP3 DUP6 ADD PUSH2 0x7E3 JUMP JUMPDEST SWAP2 POP POP SWAP3 SWAP2 POP POP JUMP JUMPDEST PUSH0 PUSH20 0xFFFFFFFFFFFFFFFFFFFFFFFFFFFFFFFFFFFFFFFF DUP3 AND SWAP1 POP SWAP2 SWAP1 POP JUMP JUMPDEST PUSH0 PUSH2 0x8B1 DUP3 PUSH2 0x888 JUMP JUMPDEST SWAP1 POP SWAP2 SWAP1 POP JUMP JUMPDEST PUSH2 0x8C1 DUP2 PUSH2 0x8A7 JUMP JUMPDEST DUP3 MSTORE POP POP JUMP JUMPDEST PUSH0 DUP2 MLOAD SWAP1 POP SWAP2 SWAP1 POP JUMP JUMPDEST PUSH0 DUP3 DUP3 MSTORE PUSH1 0x20 DUP3 ADD SWAP1 POP SWAP3 SWAP2 POP POP JUMP JUMPDEST DUP3 DUP2 DUP4 MCOPY PUSH0 DUP4 DUP4 ADD MSTORE POP POP POP JUMP JUMPDEST PUSH0 PUSH1 0x1F NOT PUSH1 0x1F DUP4 ADD AND SWAP1 POP SWAP2 SWAP1 POP JUMP JUMPDEST PUSH0 PUSH2 0x909 DUP3 PUSH2 0x8C7 JUMP JUMPDEST PUSH2 0x913 DUP2 DUP6 PUSH2 0x8D1 JUMP JUMPDEST SWAP4 POP PUSH2 0x923 DUP2 DUP6 PUSH1 0x20 DUP7 ADD PUSH2 0x8E1 JUMP JUMPDEST PUSH2 0x92C DUP2 PUSH2 0x8EF JUMP JUMPDEST DUP5 ADD SWAP2 POP POP SWAP3 SWAP2 POP POP JUMP JUMPDEST PUSH0 DUP2 ISZERO ISZERO SWAP1 POP SWAP2 SWAP1 POP JUMP JUMPDEST PUSH2 0x94B DUP2 PUSH2 0x937 JUMP JUMPDEST DUP3 MSTORE POP POP JUMP JUMPDEST PUSH0 PUSH1 0xC0 DUP3 ADD SWAP1 POP PUSH2 0x964 PUSH0 DUP4 ADD DUP10 PUSH2 0x835 JUMP JUMPDEST PUSH2 0x971 PUSH1 0x20 DUP4 ADD DUP9 PUSH2 0x8B8 JUMP JUMPDEST DUP2 DUP2 SUB PUSH1 0x40 DUP4 ADD MSTORE PUSH2 0x983 DUP2 DUP8 PUSH2 0x8FF JUMP JUMPDEST SWAP1 POP PUSH2 0x992 PUSH1 0x60 DUP4 ADD DUP7 PUSH2 0x835 JUMP JUMPDEST PUSH2 0x99F PUSH1 0x80 DUP4 ADD DUP6 PUSH2 0x835 JUMP JUMPDEST PUSH2 0x9AC PUSH1 0xA0 DUP4 ADD DUP5 PUSH2 0x942 JUMP JUMPDEST SWAP8 SWAP7 POP POP POP POP POP POP POP JUMP JUMPDEST PUSH0 PUSH2 0x9C1 DUP3 PUSH2 0x888 JUMP JUMPDEST SWAP1 POP SWAP2 SWAP1 POP JUMP JUMPDEST PUSH2 0x9D1 DUP2 PUSH2 0x9B7 JUMP JUMPDEST DUP3 MSTORE POP POP JUMP JUMPDEST PUSH0 PUSH1 0x20 DUP3 ADD SWAP1 POP PUSH2 0x9EA PUSH0 DUP4 ADD DUP5 PUSH2 0x9C8 JUMP JUMPDEST SWAP3 SWAP2 POP POP JUMP JUMPDEST PUSH0 DUP1 REVERT JUMPDEST PUSH0 DUP1 REVERT JUMPDEST PUSH32 0x4E487B7100000000000000000000000000000000000000000000000000000000 PUSH0 MSTORE PUSH1 0x41 PUSH1 0x4 MSTORE PUSH1 0x24 PUSH0 REVERT JUMPDEST PUSH2 0xA2E DUP3 PUSH2 0x8EF JUMP JUMPDEST DUP2 ADD DUP2 DUP2 LT PUSH8 0xFFFFFFFFFFFFFFFF DUP3 GT OR ISZERO PUSH2 0xA4D JUMPI PUSH2 0xA4C PUSH2 0x9F8 JUMP JUMPDEST JUMPDEST DUP1 PUSH1 0x40 MSTORE POP POP POP JUMP JUMPDEST PUSH0 PUSH2 0xA5F PUSH2 0x7B3 JUMP JUMPDEST SWAP1 POP PUSH2 0xA6B DUP3 DUP3 PUSH2 0xA25 JUMP JUMPDEST SWAP2 SWAP1 POP JUMP JUMPDEST PUSH0 PUSH8 0xFFFFFFFFFFFFFFFF DUP3 GT ISZERO PUSH2 0xA8A JUMPI PUSH2 0xA89 PUSH2 0x9F8 JUMP JUMPDEST JUMPDEST PUSH2 0xA93 DUP3 PUSH2 0x8EF JUMP JUMPDEST SWAP1 POP PUSH1 0x20 DUP2 ADD SWAP1 POP SWAP2 SWAP1 POP JUMP JUMPDEST DUP3 DUP2 DUP4 CALLDATACOPY PUSH0 DUP4 DUP4 ADD MSTORE POP POP POP JUMP JUMPDEST PUSH0 PUSH2 0xAC0 PUSH2 0xABB DUP5 PUSH2 0xA70 JUMP JUMPDEST PUSH2 0xA56 JUMP JUMPDEST SWAP1 POP DUP3 DUP2 MSTORE PUSH1 0x20 DUP2 ADD DUP5 DUP5 DUP5 ADD GT ISZERO PUSH2 0xADC JUMPI PUSH2 0xADB PUSH2 0x9F4 JUMP JUMPDEST JUMPDEST PUSH2 0xAE7 DUP5 DUP3 DUP6 PUSH2 0xAA0 JUMP JUMPDEST POP SWAP4 SWAP3 POP POP POP JUMP JUMPDEST PUSH0 DUP3 PUSH1 0x1F DUP4 ADD SLT PUSH2 0xB03 JUMPI PUSH2 0xB02 PUSH2 0x9F0 JUMP JUMPDEST JUMPDEST DUP2 CALLDATALOAD PUSH2 0xB13 DUP5 DUP3 PUSH1 0x20 DUP7 ADD PUSH2 0xAAE JUMP JUMPDEST SWAP2 POP POP SWAP3 SWAP2 POP POP JUMP JUMPDEST PUSH0 DUP1 PUSH1 0x40 DUP4 DUP6 SUB SLT ISZERO PUSH2 0xB32 JUMPI PUSH2 0xB31 PUSH2 0x7BC JUMP JUMPDEST JUMPDEST PUSH0 DUP4 ADD CALLDATALOAD PUSH8 0xFFFFFFFFFFFFFFFF DUP2 GT ISZERO PUSH2 0xB4F JUMPI PUSH2 0xB4E PUSH2 0x7C0 JUMP JUMPDEST JUMPDEST PUSH2 0xB5B DUP6 DUP3 DUP7 ADD PUSH2 0xAEF JUMP JUMPDEST SWAP3 POP POP PUSH1 0x20 PUSH2 0xB6C DUP6 DUP3 DUP7 ADD PUSH2 0x7E3 JUMP JUMPDEST SWAP2 POP POP SWAP3 POP SWAP3 SWAP1 POP JUMP JUMPDEST PUSH32 0x4F6E6C7920746865206F776E65722063616E20706572666F726D207468697320 PUSH0 DUP3 ADD MSTORE PUSH32 0x616374696F6E0000000000000000000000000000000000000000000000000000 PUSH1 0x20 DUP3 ADD MSTORE POP JUMP JUMPDEST PUSH0 PUSH2 0xBD0 PUSH1 0x26 DUP4 PUSH2 0x8D1 JUMP JUMPDEST SWAP2 POP PUSH2 0xBDB DUP3 PUSH2 0xB76 JUMP JUMPDEST PUSH1 0x40 DUP3 ADD SWAP1 POP SWAP2 SWAP1 POP JUMP JUMPDEST PUSH0 PUSH1 0x20 DUP3 ADD SWAP1 POP DUP2 DUP2 SUB PUSH0 DUP4 ADD MSTORE PUSH2 0xBFD DUP2 PUSH2 0xBC4 JUMP JUMPDEST SWAP1 POP SWAP2 SWAP1 POP JUMP JUMPDEST PUSH32 0x4F6E6C79207468652072656769737465726564206661726D65722063616E2070 PUSH0 DUP3 ADD MSTORE PUSH32 0x6572666F726D207468697320616374696F6E0000000000000000000000000000 PUSH1 0x20 DUP3 ADD MSTORE POP JUMP JUMPDEST PUSH0 PUSH2 0xC5E PUSH1 0x32 DUP4 PUSH2 0x8D1 JUMP JUMPDEST SWAP2 POP PUSH2 0xC69 DUP3 PUSH2 0xC04 JUMP JUMPDEST PUSH1 0x40 DUP3 ADD SWAP1 POP SWAP2 SWAP1 POP JUMP JUMPDEST PUSH0 PUSH1 0x20 DUP3 ADD SWAP1 POP DUP2 DUP2 SUB PUSH0 DUP4 ADD MSTORE PUSH2 0xC8B DUP2 PUSH2 0xC52 JUMP JUMPDEST SWAP1 POP SWAP2 SWAP1 POP JUMP JUMPDEST PUSH0 PUSH1 0x40 DUP3 ADD SWAP1 POP PUSH2 0xCA5 PUSH0 DUP4 ADD DUP6 PUSH2 0x835 JUMP JUMPDEST PUSH2 0xCB2 PUSH1 0x20 DUP4 ADD DUP5 PUSH2 0x835 JUMP JUMPDEST SWAP4 SWAP3 POP POP POP JUMP JUMPDEST PUSH32 0x4E487B7100000000000000000000000000000000000000000000000000000000 PUSH0 MSTORE PUSH1 0x22 PUSH1 0x4 MSTORE PUSH1 0x24 PUSH0 REVERT JUMPDEST PUSH0 PUSH1 0x2 DUP3 DIV SWAP1 POP PUSH1 0x1 DUP3 AND DUP1 PUSH2 0xCFD JUMPI PUSH1 0x7F DUP3 AND SWAP2 POP JUMPDEST PUSH1 0x20 DUP3 LT DUP2 SUB PUSH2 0xD10 JUMPI PUSH2 0xD0F PUSH2 0xCB9 JUMP JUMPDEST JUMPDEST POP SWAP2 SWAP1 POP JUMP JUMPDEST PUSH32 0x4E487B7100000000000000000000000000000000000000000000000000000000 PUSH0 MSTORE PUSH1 0x11 PUSH1 0x4 MSTORE PUSH1 0x24 PUSH0 REVERT JUMPDEST PUSH0 PUSH2 0xD4D DUP3 PUSH2 0x7C4 JUMP JUMPDEST SWAP2 POP PUSH32 0xFFFFFFFFFFFFFFFFFFFFFFFFFFFFFFFFFFFFFFFFFFFFFFFFFFFFFFFFFFFFFFFF DUP3 SUB PUSH2 0xD7F JUMPI PUSH2 0xD7E PUSH2 0xD16 JUMP JUMPDEST JUMPDEST PUSH1 0x1 DUP3 ADD SWAP1 POP SWAP2 SWAP1 POP JUMP JUMPDEST PUSH0 DUP2 SWAP1 POP DUP2 PUSH0 MSTORE PUSH1 0x20 PUSH0 KECCAK256 SWAP1 POP SWAP2 SWAP1 POP JUMP JUMPDEST PUSH0 PUSH1 0x20 PUSH1 0x1F DUP4 ADD DIV SWAP1 POP SWAP2 SWAP1 POP JUMP JUMPDEST PUSH0 DUP3 DUP3 SHL SWAP1 POP SWAP3 SWAP2 POP POP JUMP JUMPDEST PUSH0 PUSH1 0x8 DUP4 MUL PUSH2 0xDE6 PUSH32 0xFFFFFFFFFFFFFFFFFFFFFFFFFFFFFFFFFFFFFFFFFFFFFFFFFFFFFFFFFFFFFFFF DUP3 PUSH2 0xDAB JUMP JUMPDEST PUSH2 0xDF0 DUP7 DUP4 PUSH2 0xDAB JUMP JUMPDEST SWAP6 POP DUP1 NOT DUP5 AND SWAP4 POP DUP1 DUP7 AND DUP5 OR SWAP3 POP POP POP SWAP4 SWAP3 POP POP POP JUMP JUMPDEST PUSH0 DUP2 SWAP1 POP SWAP2 SWAP1 POP JUMP JUMPDEST PUSH0 PUSH2 0xE2B PUSH2 0xE26 PUSH2 0xE21 DUP5 PUSH2 0x7C4 JUMP JUMPDEST PUSH2 0xE08 JUMP JUMPDEST PUSH2 0x7C4 JUMP JUMPDEST SWAP1 POP SWAP2 SWAP1 POP JUMP JUMPDEST PUSH0 DUP2 SWAP1 POP SWAP2 SWAP1 POP JUMP JUMPDEST PUSH2 0xE44 DUP4 PUSH2 0xE11 JUMP JUMPDEST PUSH2 0xE58 PUSH2 0xE50 DUP3 PUSH2 0xE32 JUMP JUMPDEST DUP5 DUP5 SLOAD PUSH2 0xDB7 JUMP JUMPDEST DUP3 SSTORE POP POP POP POP JUMP JUMPDEST PUSH0 SWAP1 JUMP JUMPDEST PUSH2 0xE6C PUSH2 0xE60 JUMP JUMPDEST PUSH2 0xE77 DUP2 DUP5 DUP5 PUSH2 0xE3B JUMP JUMPDEST POP POP POP JUMP JUMPDEST JUMPDEST DUP2 DUP2 LT ISZERO PUSH2 0xE9A JUMPI PUSH2 0xE8F PUSH0 DUP3 PUSH2 0xE64 JUMP JUMPDEST PUSH1 0x1 DUP2 ADD SWAP1 POP PUSH2 0xE7D JUMP JUMPDEST POP POP JUMP JUMPDEST PUSH1 0x1F DUP3 GT ISZERO PUSH2 0xEDF JUMPI PUSH2 0xEB0 DUP2 PUSH2 0xD8A JUMP JUMPDEST PUSH2 0xEB9 DUP5 PUSH2 0xD9C JUMP JUMPDEST DUP2 ADD PUSH1 0x20 DUP6 LT ISZERO PUSH2 0xEC8 JUMPI DUP2 SWAP1 POP JUMPDEST PUSH2 0xEDC PUSH2 0xED4 DUP6 PUSH2 0xD9C JUMP JUMPDEST DUP4 ADD DUP3 PUSH2 0xE7C JUMP JUMPDEST POP POP JUMPDEST POP POP POP JUMP JUMPDEST PUSH0 DUP3 DUP3 SHR SWAP1 POP SWAP3 SWAP2 POP POP JUMP JUMPDEST PUSH0 PUSH2 0xEFF PUSH0 NOT DUP5 PUSH1 0x8 MUL PUSH2 0xEE4 JUMP JUMPDEST NOT DUP1 DUP4 AND SWAP2 POP POP SWAP3 SWAP2 POP POP JUMP JUMPDEST PUSH0 PUSH2 0xF17 DUP4 DUP4 PUSH2 0xEF0 JUMP JUMPDEST SWAP2 POP DUP3 PUSH1 0x2 MUL DUP3 OR SWAP1 POP SWAP3 SWAP2 POP POP JUMP JUMPDEST PUSH2 0xF30 DUP3 PUSH2 0x8C7 JUMP JUMPDEST PUSH8 0xFFFFFFFFFFFFFFFF DUP2 GT ISZERO PUSH2 0xF49 JUMPI PUSH2 0xF48 PUSH2 0x9F8 JUMP JUMPDEST JUMPDEST PUSH2 0xF53 DUP3 SLOAD PUSH2 0xCE6 JUMP JUMPDEST PUSH2 0xF5E DUP3 DUP3 DUP6 PUSH2 0xE9E JUMP JUMPDEST PUSH0 PUSH1 0x20 SWAP1 POP PUSH1 0x1F DUP4 GT PUSH1 0x1 DUP2 EQ PUSH2 0xF8F JUMPI PUSH0 DUP5 ISZERO PUSH2 0xF7D JUMPI DUP3 DUP8 ADD MLOAD SWAP1 POP JUMPDEST PUSH2 0xF87 DUP6 DUP3 PUSH2 0xF0C JUMP JUMPDEST DUP7 SSTORE POP PUSH2 0xFEE JUMP JUMPDEST PUSH1 0x1F NOT DUP5 AND PUSH2 0xF9D DUP7 PUSH2 0xD8A JUMP JUMPDEST PUSH0 JUMPDEST DUP3 DUP2 LT ISZERO PUSH2 0xFC4 JUMPI DUP5 DUP10 ADD MLOAD DUP3 SSTORE PUSH1 0x1 DUP3 ADD SWAP2 POP PUSH1 0x20 DUP6 ADD SWAP5 POP PUSH1 0x20 DUP2 ADD SWAP1 POP PUSH2 0xF9F JUMP JUMPDEST DUP7 DUP4 LT ISZERO PUSH2 0xFE1 JUMPI DUP5 DUP10 ADD MLOAD PUSH2 0xFDD PUSH1 0x1F DUP10 AND DUP3 PUSH2 0xEF0 JUMP JUMPDEST DUP4 SSTORE POP JUMPDEST PUSH1 0x1 PUSH1 0x2 DUP9 MUL ADD DUP9 SSTORE POP POP POP JUMPDEST POP POP POP POP POP POP JUMP JUMPDEST PUSH0 PUSH1 0x60 DUP3 ADD SWAP1 POP PUSH2 0x1009 PUSH0 DUP4 ADD DUP7 PUSH2 0x835 JUMP JUMPDEST PUSH2 0x1016 PUSH1 0x20 DUP4 ADD DUP6 PUSH2 0x9C8 JUMP JUMPDEST DUP2 DUP2 SUB PUSH1 0x40 DUP4 ADD MSTORE PUSH2 0x1028 DUP2 DUP5 PUSH2 0x8FF JUMP JUMPDEST SWAP1 POP SWAP5 SWAP4 POP POP POP POP JUMP INVALID LOG2 PUSH5 0x6970667358 0x22 SLT KECCAK256 0xDE 0x2B 0xB4 SWAP12 ADD 0xE4 PUSH32 0xA57D0AAD699B154580002300EAB2A7355D288BACCB0982A3B664736F6C634300 ADDMOD BYTE STOP CALLER "
				},
				"gasEstimates": {
					"creation": {
						"codeDepositCost": "840000",
						"executionCost": "52251",
						"totalCost": "892251"
					},
					"external": {
						"farmerCount()": "2469",
						"farmers(uint256)": "infinite",
						"fundContract()": "2609",
						"getContractBalance()": "379",
						"owner()": "2505",
						"registerFarmer(string,uint256)": "infinite",
						"rewardAmount()": "2513",
						"updateYield(uint256,uint256)": "infinite",
						"withdrawFunds()": "infinite"
					}
				},
				"methodIdentifiers": {
					"farmerCount()": "bd45b397",
					"farmers(uint256)": "8afdd669",
					"fundContract()": "bd097e21",
					"getContractBalance()": "6f9fb98a",
					"owner()": "8da5cb5b",
					"registerFarmer(string,uint256)": "f06facd4",
					"rewardAmount()": "f7b2a7be",
					"updateYield(uint256,uint256)": "54973c0e",
					"withdrawFunds()": "24600fc3"
				}
			},
			"storageLayout": {
				"storage": [
					{
						"astId": 16,
						"contract": "contracts/CropYieldIncentive.sol:CropYieldIncentive",
						"label": "owner",
						"offset": 0,
						"slot": "0",
						"type": "t_address"
					},
					{
						"astId": 19,
						"contract": "contracts/CropYieldIncentive.sol:CropYieldIncentive",
						"label": "farmerCount",
						"offset": 0,
						"slot": "1",
						"type": "t_uint256"
					},
					{
						"astId": 24,
						"contract": "contracts/CropYieldIncentive.sol:CropYieldIncentive",
						"label": "farmers",
						"offset": 0,
						"slot": "2",
						"type": "t_mapping(t_uint256,t_struct(Farmer)14_storage)"
					},
					{
						"astId": 27,
						"contract": "contracts/CropYieldIncentive.sol:CropYieldIncentive",
						"label": "rewardAmount",
						"offset": 0,
						"slot": "3",
						"type": "t_uint256"
					}
				],
				"types": {
					"t_address": {
						"encoding": "inplace",
						"label": "address",
						"numberOfBytes": "20"
					},
					"t_address_payable": {
						"encoding": "inplace",
						"label": "address payable",
						"numberOfBytes": "20"
					},
					"t_bool": {
						"encoding": "inplace",
						"label": "bool",
						"numberOfBytes": "1"
					},
					"t_mapping(t_uint256,t_struct(Farmer)14_storage)": {
						"encoding": "mapping",
						"key": "t_uint256",
						"label": "mapping(uint256 => struct CropYieldIncentive.Farmer)",
						"numberOfBytes": "32",
						"value": "t_struct(Farmer)14_storage"
					},
					"t_string_storage": {
						"encoding": "bytes",
						"label": "string",
						"numberOfBytes": "32"
					},
					"t_struct(Farmer)14_storage": {
						"encoding": "inplace",
						"label": "struct CropYieldIncentive.Farmer",
						"members": [
							{
								"astId": 3,
								"contract": "contracts/CropYieldIncentive.sol:CropYieldIncentive",
								"label": "id",
								"offset": 0,
								"slot": "0",
								"type": "t_uint256"
							},
							{
								"astId": 5,
								"contract": "contracts/CropYieldIncentive.sol:CropYieldIncentive",
								"label": "farmerAddress",
								"offset": 0,
								"slot": "1",
								"type": "t_address_payable"
							},
							{
								"astId": 7,
								"contract": "contracts/CropYieldIncentive.sol:CropYieldIncentive",
								"label": "recommendedCrop",
								"offset": 0,
								"slot": "2",
								"type": "t_string_storage"
							},
							{
								"astId": 9,
								"contract": "contracts/CropYieldIncentive.sol:CropYieldIncentive",
								"label": "predictedYield",
								"offset": 0,
								"slot": "3",
								"type": "t_uint256"
							},
							{
								"astId": 11,
								"contract": "contracts/CropYieldIncentive.sol:CropYieldIncentive",
								"label": "actualYield",
								"offset": 0,
								"slot": "4",
								"type": "t_uint256"
							},
							{
								"astId": 13,
								"contract": "contracts/CropYieldIncentive.sol:CropYieldIncentive",
								"label": "rewarded",
								"offset": 0,
								"slot": "5",
								"type": "t_bool"
							}
						],
						"numberOfBytes": "192"
					},
					"t_uint256": {
						"encoding": "inplace",
						"label": "uint256",
						"numberOfBytes": "32"
					}
				}
			},
			"userdoc": {
				"kind": "user",
				"methods": {},
				"version": 1
			}
		}
	}
}