{
	"contracts/YieldPredictionStorage.sol": {
		"YieldPredictionStorage": {
			"abi": [
				{
					"inputs": [
						{
							"internalType": "uint256",
							"name": "_requestId",
							"type": "uint256"
						}
					],
					"name": "getPredictionRequest",
					"outputs": [
						{
							"components": [
								{
									"internalType": "address",
									"name": "user",
									"type": "address"
								},
								{
									"internalType": "string",
									"name": "crop",
									"type": "string"
								},
								{
									"internalType": "uint256",
									"name": "predictedYield",
									"type": "uint256"
								},
								{
									"internalType": "string",
									"name": "analysisDetails",
									"type": "string"
								},
								{
									"internalType": "uint256",
									"name": "timestamp",
									"type": "uint256"
								}
							],
							"internalType": "struct YieldPredictionStorage.PredictionRequest",
							"name": "",
							"type": "tuple"
						}
					],
					"stateMutability": "view",
					"type": "function"
				},
				{
					"inputs": [
						{
							"internalType": "uint256",
							"name": "",
							"type": "uint256"
						}
					],
					"name": "requests",
					"outputs": [
						{
							"internalType": "address",
							"name": "user",
							"type": "address"
						},
						{
							"internalType": "string",
							"name": "crop",
							"type": "string"
						},
						{
							"internalType": "uint256",
							"name": "predictedYield",
							"type": "uint256"
						},
						{
							"internalType": "string",
							"name": "analysisDetails",
							"type": "string"
						},
						{
							"internalType": "uint256",
							"name": "timestamp",
							"type": "uint256"
						}
					],
					"stateMutability": "view",
					"type": "function"
				},
				{
					"inputs": [
						{
							"internalType": "string",
							"name": "_crop",
							"type": "string"
						},
						{
							"internalType": "uint256",
							"name": "_predictedYield",
							"type": "uint256"
						},
						{
							"internalType": "string",
							"name": "_analysisDetails",
							"type": "string"
						}
					],
					"name": "storePredictionRequest",
					"outputs": [],
					"stateMutability": "nonpayable",
					"type": "function"
				}
			],
			"devdoc": {
				"kind": "dev",
				"methods": {},
				"version": 1
			},
			"evm": {
				"assembly": "    /* \"contracts/YieldPredictionStorage.sol\":107:2357  contract YieldPredictionStorage {... */\n  mstore(0x40, 0x80)\n  callvalue\n  dup1\n  iszero\n  tag_1\n  jumpi\n  0x00\n  dup1\n  revert\ntag_1:\n  pop\n  dataSize(sub_0)\n  dup1\n  dataOffset(sub_0)\n  0x00\n  codecopy\n  0x00\n  return\nstop\n\nsub_0: assembly {\n        /* \"contracts/YieldPredictionStorage.sol\":107:2357  contract YieldPredictionStorage {... */\n      mstore(0x40, 0x80)\n      callvalue\n      dup1\n      iszero\n      tag_1\n      jumpi\n      0x00\n      dup1\n      revert\n    tag_1:\n      pop\n      jumpi(tag_2, lt(calldatasize, 0x04))\n      shr(0xe0, calldataload(0x00))\n      dup1\n      0x6054aa61\n      eq\n      tag_3\n      jumpi\n      dup1\n      0x81d12c58\n      eq\n      tag_4\n      jumpi\n      dup1\n      0xe046db39\n      eq\n      tag_5\n      jumpi\n    tag_2:\n      0x00\n      dup1\n      revert\n        /* \"contracts/YieldPredictionStorage.sol\":796:2055  function storePredictionRequest(... */\n    tag_3:\n      tag_6\n      0x04\n      dup1\n      calldatasize\n      sub\n      dup2\n      add\n      swap1\n      tag_7\n      swap2\n      swap1\n      tag_8\n      jump\t// in\n    tag_7:\n      tag_9\n      jump\t// in\n    tag_6:\n      stop\n        /* \"contracts/YieldPredictionStorage.sol\":683:736  mapping(uint256 => PredictionRequest) public requests */\n    tag_4:\n      tag_10\n      0x04\n      dup1\n      calldatasize\n      sub\n      dup2\n      add\n      swap1\n      tag_11\n      swap2\n      swap1\n      tag_12\n      jump\t// in\n    tag_11:\n      tag_13\n      jump\t// in\n    tag_10:\n      mload(0x40)\n      tag_14\n      swap6\n      swap5\n      swap4\n      swap3\n      swap2\n      swap1\n      tag_15\n      jump\t// in\n    tag_14:\n      mload(0x40)\n      dup1\n      swap2\n      sub\n      swap1\n      return\n        /* \"contracts/YieldPredictionStorage.sol\":2130:2354  function getPredictionRequest(uint256 _requestId) public view returns (PredictionRequest memory) {... */\n    tag_5:\n      tag_16\n      0x04\n      dup1\n      calldatasize\n      sub\n      dup2\n      add\n      swap1\n      tag_17\n      swap2\n      swap1\n      tag_12\n      jump\t// in\n    tag_17:\n      tag_18\n      jump\t// in\n    tag_16:\n      mload(0x40)\n      tag_19\n      swap2\n      swap1\n      tag_20\n      jump\t// in\n    tag_19:\n      mload(0x40)\n      dup1\n      swap2\n      sub\n      swap1\n      return\n        /* \"contracts/YieldPredictionStorage.sol\":796:2055  function storePredictionRequest(... */\n    tag_9:\n        /* \"contracts/YieldPredictionStorage.sol\":1132:1149  uint256 requestId */\n      0x00\n        /* \"contracts/YieldPredictionStorage.sol\":1241:1251  msg.sender */\n      caller\n        /* \"contracts/YieldPredictionStorage.sol\":1305:1310  _crop */\n      dup5\n        /* \"contracts/YieldPredictionStorage.sol\":1366:1381  _predictedYield */\n      dup5\n        /* \"contracts/YieldPredictionStorage.sol\":1433:1449  _analysisDetails */\n      dup5\n        /* \"contracts/YieldPredictionStorage.sol\":1501:1516  block.timestamp */\n      timestamp\n        /* \"contracts/YieldPredictionStorage.sol\":1202:1567  abi.encodePacked(... */\n      add(0x20, mload(0x40))\n      tag_22\n      swap6\n      swap5\n      swap4\n      swap3\n      swap2\n      swap1\n      tag_23\n      jump\t// in\n    tag_22:\n      mload(0x40)\n      0x20\n      dup2\n      dup4\n      sub\n      sub\n      dup2\n      mstore\n      swap1\n      0x40\n      mstore\n        /* \"contracts/YieldPredictionStorage.sol\":1174:1582  keccak256(... */\n      dup1\n      mload\n      swap1\n      0x20\n      add\n      keccak256\n        /* \"contracts/YieldPredictionStorage.sol\":1152:1593  uint256(... */\n      0x00\n      shr\n        /* \"contracts/YieldPredictionStorage.sol\":1132:1593  uint256 requestId = uint256(... */\n      swap1\n      pop\n        /* \"contracts/YieldPredictionStorage.sol\":1714:2047  PredictionRequest(... */\n      mload(0x40)\n      dup1\n      0xa0\n      add\n      0x40\n      mstore\n      dup1\n        /* \"contracts/YieldPredictionStorage.sol\":1746:1756  msg.sender */\n      caller\n        /* \"contracts/YieldPredictionStorage.sol\":1714:2047  PredictionRequest(... */\n      0xffffffffffffffffffffffffffffffffffffffff\n      and\n      dup2\n      mstore\n      0x20\n      add\n        /* \"contracts/YieldPredictionStorage.sol\":1805:1810  _crop */\n      dup6\n        /* \"contracts/YieldPredictionStorage.sol\":1714:2047  PredictionRequest(... */\n      dup2\n      mstore\n      0x20\n      add\n        /* \"contracts/YieldPredictionStorage.sol\":1861:1876  _predictedYield */\n      dup5\n        /* \"contracts/YieldPredictionStorage.sol\":1714:2047  PredictionRequest(... */\n      dup2\n      mstore\n      0x20\n      add\n        /* \"contracts/YieldPredictionStorage.sol\":1923:1939  _analysisDetails */\n      dup4\n        /* \"contracts/YieldPredictionStorage.sol\":1714:2047  PredictionRequest(... */\n      dup2\n      mstore\n      0x20\n      add\n        /* \"contracts/YieldPredictionStorage.sol\":1986:2001  block.timestamp */\n      timestamp\n        /* \"contracts/YieldPredictionStorage.sol\":1714:2047  PredictionRequest(... */\n      dup2\n      mstore\n      pop\n        /* \"contracts/YieldPredictionStorage.sol\":1692:1700  requests */\n      0x00\n        /* \"contracts/YieldPredictionStorage.sol\":1692:1711  requests[requestId] */\n      dup1\n        /* \"contracts/YieldPredictionStorage.sol\":1701:1710  requestId */\n      dup4\n        /* \"contracts/YieldPredictionStorage.sol\":1692:1711  requests[requestId] */\n      dup2\n      mstore\n      0x20\n      add\n      swap1\n      dup2\n      mstore\n      0x20\n      add\n      0x00\n      keccak256\n        /* \"contracts/YieldPredictionStorage.sol\":1692:2047  requests[requestId] = PredictionRequest(... */\n      0x00\n      dup3\n      add\n      mload\n      dup2\n      0x00\n      add\n      exp(0x0100, 0x00)\n      dup2\n      sload\n      dup2\n      0xffffffffffffffffffffffffffffffffffffffff\n      mul\n      not\n      and\n      swap1\n      dup4\n      0xffffffffffffffffffffffffffffffffffffffff\n      and\n      mul\n      or\n      swap1\n      sstore\n      pop\n      0x20\n      dup3\n      add\n      mload\n      dup2\n      0x01\n      add\n      swap1\n      dup2\n      tag_24\n      swap2\n      swap1\n      tag_25\n      jump\t// in\n    tag_24:\n      pop\n      0x40\n      dup3\n      add\n      mload\n      dup2\n      0x02\n      add\n      sstore\n      0x60\n      dup3\n      add\n      mload\n      dup2\n      0x03\n      add\n      swap1\n      dup2\n      tag_26\n      swap2\n      swap1\n      tag_25\n      jump\t// in\n    tag_26:\n      pop\n      0x80\n      dup3\n      add\n      mload\n      dup2\n      0x04\n      add\n      sstore\n      swap1\n      pop\n      pop\n        /* \"contracts/YieldPredictionStorage.sol\":1043:2055  {... */\n      pop\n        /* \"contracts/YieldPredictionStorage.sol\":796:2055  function storePredictionRequest(... */\n      pop\n      pop\n      pop\n      jump\t// out\n        /* \"contracts/YieldPredictionStorage.sol\":683:736  mapping(uint256 => PredictionRequest) public requests */\n    tag_13:\n      mstore(0x20, 0x00)\n      dup1\n      0x00\n      mstore\n      keccak256(0x00, 0x40)\n      0x00\n      swap2\n      pop\n      swap1\n      pop\n      dup1\n      0x00\n      add\n      0x00\n      swap1\n      sload\n      swap1\n      0x0100\n      exp\n      swap1\n      div\n      0xffffffffffffffffffffffffffffffffffffffff\n      and\n      swap1\n      dup1\n      0x01\n      add\n      dup1\n      sload\n      tag_27\n      swap1\n      tag_28\n      jump\t// in\n    tag_27:\n      dup1\n      0x1f\n      add\n      0x20\n      dup1\n      swap2\n      div\n      mul\n      0x20\n      add\n      mload(0x40)\n      swap1\n      dup2\n      add\n      0x40\n      mstore\n      dup1\n      swap3\n      swap2\n      swap1\n      dup2\n      dup2\n      mstore\n      0x20\n      add\n      dup3\n      dup1\n      sload\n      tag_29\n      swap1\n      tag_28\n      jump\t// in\n    tag_29:\n      dup1\n      iszero\n      tag_30\n      jumpi\n      dup1\n      0x1f\n      lt\n      tag_31\n      jumpi\n      0x0100\n      dup1\n      dup4\n      sload\n      div\n      mul\n      dup4\n      mstore\n      swap2\n      0x20\n      add\n      swap2\n      jump(tag_30)\n    tag_31:\n      dup3\n      add\n      swap2\n      swap1\n      0x00\n      mstore\n      keccak256(0x00, 0x20)\n      swap1\n    tag_32:\n      dup2\n      sload\n      dup2\n      mstore\n      swap1\n      0x01\n      add\n      swap1\n      0x20\n      add\n      dup1\n      dup4\n      gt\n      tag_32\n      jumpi\n      dup3\n      swap1\n      sub\n      0x1f\n      and\n      dup3\n      add\n      swap2\n    tag_30:\n      pop\n      pop\n      pop\n      pop\n      pop\n      swap1\n      dup1\n      0x02\n      add\n      sload\n      swap1\n      dup1\n      0x03\n      add\n      dup1\n      sload\n      tag_33\n      swap1\n      tag_28\n      jump\t// in\n    tag_33:\n      dup1\n      0x1f\n      add\n      0x20\n      dup1\n      swap2\n      div\n      mul\n      0x20\n      add\n      mload(0x40)\n      swap1\n      dup2\n      add\n      0x40\n      mstore\n      dup1\n      swap3\n      swap2\n      swap1\n      dup2\n      dup2\n      mstore\n      0x20\n      add\n      dup3\n      dup1\n      sload\n      tag_34\n      swap1\n      tag_28\n      jump\t// in\n    tag_34:\n      dup1\n      iszero\n      tag_35\n      jumpi\n      dup1\n      0x1f\n      lt\n      tag_36\n      jumpi\n      0x0100\n      dup1\n      dup4\n      sload\n      div\n      mul\n      dup4\n      mstore\n      swap2\n      0x20\n      add\n      swap2\n      jump(tag_35)\n    tag_36:\n      dup3\n      add\n      swap2\n      swap1\n      0x00\n      mstore\n      keccak256(0x00, 0x20)\n      swap1\n    tag_37:\n      dup2\n      sload\n      dup2\n      mstore\n      swap1\n      0x01\n      add\n      swap1\n      0x20\n      add\n      dup1\n      dup4\n      gt\n      tag_37\n      jumpi\n      dup3\n      swap1\n      sub\n      0x1f\n      and\n      dup3\n      add\n      swap2\n    tag_35:\n      pop\n      pop\n      pop\n      pop\n      pop\n      swap1\n      dup1\n      0x04\n      add\n      sload\n      swap1\n      pop\n      dup6\n      jump\t// out\n        /* \"contracts/YieldPredictionStorage.sol\":2130:2354  function getPredictionRequest(uint256 _requestId) public view returns (PredictionRequest memory) {... */\n    tag_18:\n        /* \"contracts/YieldPredictionStorage.sol\":2201:2225  PredictionRequest memory */\n      tag_38\n      tag_39\n      jump\t// in\n    tag_38:\n        /* \"contracts/YieldPredictionStorage.sol\":2326:2334  requests */\n      0x00\n        /* \"contracts/YieldPredictionStorage.sol\":2326:2346  requests[_requestId] */\n      dup1\n        /* \"contracts/YieldPredictionStorage.sol\":2335:2345  _requestId */\n      dup4\n        /* \"contracts/YieldPredictionStorage.sol\":2326:2346  requests[_requestId] */\n      dup2\n      mstore\n      0x20\n      add\n      swap1\n      dup2\n      mstore\n      0x20\n      add\n      0x00\n      keccak256\n        /* \"contracts/YieldPredictionStorage.sol\":2319:2346  return requests[_requestId] */\n      mload(0x40)\n      dup1\n      0xa0\n      add\n      0x40\n      mstore\n      swap1\n      dup2\n      0x00\n      dup3\n      add\n      0x00\n      swap1\n      sload\n      swap1\n      0x0100\n      exp\n      swap1\n      div\n      0xffffffffffffffffffffffffffffffffffffffff\n      and\n      0xffffffffffffffffffffffffffffffffffffffff\n      and\n      0xffffffffffffffffffffffffffffffffffffffff\n      and\n      dup2\n      mstore\n      0x20\n      add\n      0x01\n      dup3\n      add\n      dup1\n      sload\n      tag_41\n      swap1\n      tag_28\n      jump\t// in\n    tag_41:\n      dup1\n      0x1f\n      add\n      0x20\n      dup1\n      swap2\n      div\n      mul\n      0x20\n      add\n      mload(0x40)\n      swap1\n      dup2\n      add\n      0x40\n      mstore\n      dup1\n      swap3\n      swap2\n      swap1\n      dup2\n      dup2\n      mstore\n      0x20\n      add\n      dup3\n      dup1\n      sload\n      tag_42\n      swap1\n      tag_28\n      jump\t// in\n    tag_42:\n      dup1\n      iszero\n      tag_43\n      jumpi\n      dup1\n      0x1f\n      lt\n      tag_44\n      jumpi\n      0x0100\n      dup1\n      dup4\n      sload\n      div\n      mul\n      dup4\n      mstore\n      swap2\n      0x20\n      add\n      swap2\n      jump(tag_43)\n    tag_44:\n      dup3\n      add\n      swap2\n      swap1\n      0x00\n      mstore\n      keccak256(0x00, 0x20)\n      swap1\n    tag_45:\n      dup2\n      sload\n      dup2\n      mstore\n      swap1\n      0x01\n      add\n      swap1\n      0x20\n      add\n      dup1\n      dup4\n      gt\n      tag_45\n      jumpi\n      dup3\n      swap1\n      sub\n      0x1f\n      and\n      dup3\n      add\n      swap2\n    tag_43:\n      pop\n      pop\n      pop\n      pop\n      pop\n      dup2\n      mstore\n      0x20\n      add\n      0x02\n      dup3\n      add\n      sload\n      dup2\n      mstore\n      0x20\n      add\n      0x03\n      dup3\n      add\n      dup1\n      sload\n      tag_46\n      swap1\n      tag_28\n      jump\t// in\n    tag_46:\n      dup1\n      0x1f\n      add\n      0x20\n      dup1\n      swap2\n      div\n      mul\n      0x20\n      add\n      mload(0x40)\n      swap1\n      dup2\n      add\n      0x40\n      mstore\n      dup1\n      swap3\n      swap2\n      swap1\n      dup2\n      dup2\n      mstore\n      0x20\n      add\n      dup3\n      dup1\n      sload\n      tag_47\n      swap1\n      tag_28\n      jump\t// in\n    tag_47:\n      dup1\n      iszero\n      tag_48\n      jumpi\n      dup1\n      0x1f\n      lt\n      tag_49\n      jumpi\n      0x0100\n      dup1\n      dup4\n      sload\n      div\n      mul\n      dup4\n      mstore\n      swap2\n      0x20\n      add\n      swap2\n      jump(tag_48)\n    tag_49:\n      dup3\n      add\n      swap2\n      swap1\n      0x00\n      mstore\n      keccak256(0x00, 0x20)\n      swap1\n    tag_50:\n      dup2\n      sload\n      dup2\n      mstore\n      swap1\n      0x01\n      add\n      swap1\n      0x20\n      add\n      dup1\n      dup4\n      gt\n      tag_50\n      jumpi\n      dup3\n      swap1\n      sub\n      0x1f\n      and\n      dup3\n      add\n      swap2\n    tag_48:\n      pop\n      pop\n      pop\n      pop\n      pop\n      dup2\n      mstore\n      0x20\n      add\n      0x04\n      dup3\n      add\n      sload\n      dup2\n      mstore\n      pop\n      pop\n      swap1\n      pop\n        /* \"contracts/YieldPredictionStorage.sol\":2130:2354  function getPredictionRequest(uint256 _requestId) public view returns (PredictionRequest memory) {... */\n      swap2\n      swap1\n      pop\n      jump\t// out\n    tag_39:\n      mload(0x40)\n      dup1\n      0xa0\n      add\n      0x40\n      mstore\n      dup1\n      and(0xffffffffffffffffffffffffffffffffffffffff, 0x00)\n      dup2\n      mstore\n      0x20\n      add\n      0x60\n      dup2\n      mstore\n      0x20\n      add\n      0x00\n      dup2\n      mstore\n      0x20\n      add\n      0x60\n      dup2\n      mstore\n      0x20\n      add\n      0x00\n      dup2\n      mstore\n      pop\n      swap1\n      jump\t// out\n        /* \"#utility.yul\":7:82   */\n    tag_51:\n        /* \"#utility.yul\":40:46   */\n      0x00\n        /* \"#utility.yul\":73:75   */\n      0x40\n        /* \"#utility.yul\":67:76   */\n      mload\n        /* \"#utility.yul\":57:76   */\n      swap1\n      pop\n        /* \"#utility.yul\":7:82   */\n      swap1\n      jump\t// out\n        /* \"#utility.yul\":88:205   */\n    tag_52:\n        /* \"#utility.yul\":197:198   */\n      0x00\n        /* \"#utility.yul\":194:195   */\n      dup1\n        /* \"#utility.yul\":187:199   */\n      revert\n        /* \"#utility.yul\":211:328   */\n    tag_53:\n        /* \"#utility.yul\":320:321   */\n      0x00\n        /* \"#utility.yul\":317:318   */\n      dup1\n        /* \"#utility.yul\":310:322   */\n      revert\n        /* \"#utility.yul\":334:451   */\n    tag_54:\n        /* \"#utility.yul\":443:444   */\n      0x00\n        /* \"#utility.yul\":440:441   */\n      dup1\n        /* \"#utility.yul\":433:445   */\n      revert\n        /* \"#utility.yul\":457:574   */\n    tag_55:\n        /* \"#utility.yul\":566:567   */\n      0x00\n        /* \"#utility.yul\":563:564   */\n      dup1\n        /* \"#utility.yul\":556:568   */\n      revert\n        /* \"#utility.yul\":580:682   */\n    tag_56:\n        /* \"#utility.yul\":621:627   */\n      0x00\n        /* \"#utility.yul\":672:674   */\n      0x1f\n        /* \"#utility.yul\":668:675   */\n      not\n        /* \"#utility.yul\":663:665   */\n      0x1f\n        /* \"#utility.yul\":656:661   */\n      dup4\n        /* \"#utility.yul\":652:666   */\n      add\n        /* \"#utility.yul\":648:676   */\n      and\n        /* \"#utility.yul\":638:676   */\n      swap1\n      pop\n        /* \"#utility.yul\":580:682   */\n      swap2\n      swap1\n      pop\n      jump\t// out\n        /* \"#utility.yul\":688:868   */\n    tag_57:\n        /* \"#utility.yul\":736:813   */\n      0x4e487b7100000000000000000000000000000000000000000000000000000000\n        /* \"#utility.yul\":733:734   */\n      0x00\n        /* \"#utility.yul\":726:814   */\n      mstore\n        /* \"#utility.yul\":833:837   */\n      0x41\n        /* \"#utility.yul\":830:831   */\n      0x04\n        /* \"#utility.yul\":823:838   */\n      mstore\n        /* \"#utility.yul\":857:861   */\n      0x24\n        /* \"#utility.yul\":854:855   */\n      0x00\n        /* \"#utility.yul\":847:862   */\n      revert\n        /* \"#utility.yul\":874:1155   */\n    tag_58:\n        /* \"#utility.yul\":957:984   */\n      tag_113\n        /* \"#utility.yul\":979:983   */\n      dup3\n        /* \"#utility.yul\":957:984   */\n      tag_56\n      jump\t// in\n    tag_113:\n        /* \"#utility.yul\":949:955   */\n      dup2\n        /* \"#utility.yul\":945:985   */\n      add\n        /* \"#utility.yul\":1087:1093   */\n      dup2\n        /* \"#utility.yul\":1075:1085   */\n      dup2\n        /* \"#utility.yul\":1072:1094   */\n      lt\n        /* \"#utility.yul\":1051:1069   */\n      0xffffffffffffffff\n        /* \"#utility.yul\":1039:1049   */\n      dup3\n        /* \"#utility.yul\":1036:1070   */\n      gt\n        /* \"#utility.yul\":1033:1095   */\n      or\n        /* \"#utility.yul\":1030:1118   */\n      iszero\n      tag_114\n      jumpi\n        /* \"#utility.yul\":1098:1116   */\n      tag_115\n      tag_57\n      jump\t// in\n    tag_115:\n        /* \"#utility.yul\":1030:1118   */\n    tag_114:\n        /* \"#utility.yul\":1138:1148   */\n      dup1\n        /* \"#utility.yul\":1134:1136   */\n      0x40\n        /* \"#utility.yul\":1127:1149   */\n      mstore\n        /* \"#utility.yul\":917:1155   */\n      pop\n        /* \"#utility.yul\":874:1155   */\n      pop\n      pop\n      jump\t// out\n        /* \"#utility.yul\":1161:1290   */\n    tag_59:\n        /* \"#utility.yul\":1195:1201   */\n      0x00\n        /* \"#utility.yul\":1222:1242   */\n      tag_117\n      tag_51\n      jump\t// in\n    tag_117:\n        /* \"#utility.yul\":1212:1242   */\n      swap1\n      pop\n        /* \"#utility.yul\":1251:1284   */\n      tag_118\n        /* \"#utility.yul\":1279:1283   */\n      dup3\n        /* \"#utility.yul\":1271:1277   */\n      dup3\n        /* \"#utility.yul\":1251:1284   */\n      tag_58\n      jump\t// in\n    tag_118:\n        /* \"#utility.yul\":1161:1290   */\n      swap2\n      swap1\n      pop\n      jump\t// out\n        /* \"#utility.yul\":1296:1604   */\n    tag_60:\n        /* \"#utility.yul\":1358:1362   */\n      0x00\n        /* \"#utility.yul\":1448:1466   */\n      0xffffffffffffffff\n        /* \"#utility.yul\":1440:1446   */\n      dup3\n        /* \"#utility.yul\":1437:1467   */\n      gt\n        /* \"#utility.yul\":1434:1490   */\n      iszero\n      tag_120\n      jumpi\n        /* \"#utility.yul\":1470:1488   */\n      tag_121\n      tag_57\n      jump\t// in\n    tag_121:\n        /* \"#utility.yul\":1434:1490   */\n    tag_120:\n        /* \"#utility.yul\":1508:1537   */\n      tag_122\n        /* \"#utility.yul\":1530:1536   */\n      dup3\n        /* \"#utility.yul\":1508:1537   */\n      tag_56\n      jump\t// in\n    tag_122:\n        /* \"#utility.yul\":1500:1537   */\n      swap1\n      pop\n        /* \"#utility.yul\":1592:1596   */\n      0x20\n        /* \"#utility.yul\":1586:1590   */\n      dup2\n        /* \"#utility.yul\":1582:1597   */\n      add\n        /* \"#utility.yul\":1574:1597   */\n      swap1\n      pop\n        /* \"#utility.yul\":1296:1604   */\n      swap2\n      swap1\n      pop\n      jump\t// out\n        /* \"#utility.yul\":1610:1756   */\n    tag_61:\n        /* \"#utility.yul\":1707:1713   */\n      dup3\n        /* \"#utility.yul\":1702:1705   */\n      dup2\n        /* \"#utility.yul\":1697:1700   */\n      dup4\n        /* \"#utility.yul\":1684:1714   */\n      calldatacopy\n        /* \"#utility.yul\":1748:1749   */\n      0x00\n        /* \"#utility.yul\":1739:1745   */\n      dup4\n        /* \"#utility.yul\":1734:1737   */\n      dup4\n        /* \"#utility.yul\":1730:1746   */\n      add\n        /* \"#utility.yul\":1723:1750   */\n      mstore\n        /* \"#utility.yul\":1610:1756   */\n      pop\n      pop\n      pop\n      jump\t// out\n        /* \"#utility.yul\":1762:2187   */\n    tag_62:\n        /* \"#utility.yul\":1840:1845   */\n      0x00\n        /* \"#utility.yul\":1865:1931   */\n      tag_125\n        /* \"#utility.yul\":1881:1930   */\n      tag_126\n        /* \"#utility.yul\":1923:1929   */\n      dup5\n        /* \"#utility.yul\":1881:1930   */\n      tag_60\n      jump\t// in\n    tag_126:\n        /* \"#utility.yul\":1865:1931   */\n      tag_59\n      jump\t// in\n    tag_125:\n        /* \"#utility.yul\":1856:1931   */\n      swap1\n      pop\n        /* \"#utility.yul\":1954:1960   */\n      dup3\n        /* \"#utility.yul\":1947:1952   */\n      dup2\n        /* \"#utility.yul\":1940:1961   */\n      mstore\n        /* \"#utility.yul\":1992:1996   */\n      0x20\n        /* \"#utility.yul\":1985:1990   */\n      dup2\n        /* \"#utility.yul\":1981:1997   */\n      add\n        /* \"#utility.yul\":2030:2033   */\n      dup5\n        /* \"#utility.yul\":2021:2027   */\n      dup5\n        /* \"#utility.yul\":2016:2019   */\n      dup5\n        /* \"#utility.yul\":2012:2028   */\n      add\n        /* \"#utility.yul\":2009:2034   */\n      gt\n        /* \"#utility.yul\":2006:2118   */\n      iszero\n      tag_127\n      jumpi\n        /* \"#utility.yul\":2037:2116   */\n      tag_128\n      tag_55\n      jump\t// in\n    tag_128:\n        /* \"#utility.yul\":2006:2118   */\n    tag_127:\n        /* \"#utility.yul\":2127:2181   */\n      tag_129\n        /* \"#utility.yul\":2174:2180   */\n      dup5\n        /* \"#utility.yul\":2169:2172   */\n      dup3\n        /* \"#utility.yul\":2164:2167   */\n      dup6\n        /* \"#utility.yul\":2127:2181   */\n      tag_61\n      jump\t// in\n    tag_129:\n        /* \"#utility.yul\":1846:2187   */\n      pop\n        /* \"#utility.yul\":1762:2187   */\n      swap4\n      swap3\n      pop\n      pop\n      pop\n      jump\t// out\n        /* \"#utility.yul\":2207:2547   */\n    tag_63:\n        /* \"#utility.yul\":2263:2268   */\n      0x00\n        /* \"#utility.yul\":2312:2315   */\n      dup3\n        /* \"#utility.yul\":2305:2309   */\n      0x1f\n        /* \"#utility.yul\":2297:2303   */\n      dup4\n        /* \"#utility.yul\":2293:2310   */\n      add\n        /* \"#utility.yul\":2289:2316   */\n      slt\n        /* \"#utility.yul\":2279:2401   */\n      tag_131\n      jumpi\n        /* \"#utility.yul\":2320:2399   */\n      tag_132\n      tag_54\n      jump\t// in\n    tag_132:\n        /* \"#utility.yul\":2279:2401   */\n    tag_131:\n        /* \"#utility.yul\":2437:2443   */\n      dup2\n        /* \"#utility.yul\":2424:2444   */\n      calldataload\n        /* \"#utility.yul\":2462:2541   */\n      tag_133\n        /* \"#utility.yul\":2537:2540   */\n      dup5\n        /* \"#utility.yul\":2529:2535   */\n      dup3\n        /* \"#utility.yul\":2522:2526   */\n      0x20\n        /* \"#utility.yul\":2514:2520   */\n      dup7\n        /* \"#utility.yul\":2510:2527   */\n      add\n        /* \"#utility.yul\":2462:2541   */\n      tag_62\n      jump\t// in\n    tag_133:\n        /* \"#utility.yul\":2453:2541   */\n      swap2\n      pop\n        /* \"#utility.yul\":2269:2547   */\n      pop\n        /* \"#utility.yul\":2207:2547   */\n      swap3\n      swap2\n      pop\n      pop\n      jump\t// out\n        /* \"#utility.yul\":2553:2630   */\n    tag_64:\n        /* \"#utility.yul\":2590:2597   */\n      0x00\n        /* \"#utility.yul\":2619:2624   */\n      dup2\n        /* \"#utility.yul\":2608:2624   */\n      swap1\n      pop\n        /* \"#utility.yul\":2553:2630   */\n      swap2\n      swap1\n      pop\n      jump\t// out\n        /* \"#utility.yul\":2636:2758   */\n    tag_65:\n        /* \"#utility.yul\":2709:2733   */\n      tag_136\n        /* \"#utility.yul\":2727:2732   */\n      dup2\n        /* \"#utility.yul\":2709:2733   */\n      tag_64\n      jump\t// in\n    tag_136:\n        /* \"#utility.yul\":2702:2707   */\n      dup2\n        /* \"#utility.yul\":2699:2734   */\n      eq\n        /* \"#utility.yul\":2689:2752   */\n      tag_137\n      jumpi\n        /* \"#utility.yul\":2748:2749   */\n      0x00\n        /* \"#utility.yul\":2745:2746   */\n      dup1\n        /* \"#utility.yul\":2738:2750   */\n      revert\n        /* \"#utility.yul\":2689:2752   */\n    tag_137:\n        /* \"#utility.yul\":2636:2758   */\n      pop\n      jump\t// out\n        /* \"#utility.yul\":2764:2903   */\n    tag_66:\n        /* \"#utility.yul\":2810:2815   */\n      0x00\n        /* \"#utility.yul\":2848:2854   */\n      dup2\n        /* \"#utility.yul\":2835:2855   */\n      calldataload\n        /* \"#utility.yul\":2826:2855   */\n      swap1\n      pop\n        /* \"#utility.yul\":2864:2897   */\n      tag_139\n        /* \"#utility.yul\":2891:2896   */\n      dup2\n        /* \"#utility.yul\":2864:2897   */\n      tag_65\n      jump\t// in\n    tag_139:\n        /* \"#utility.yul\":2764:2903   */\n      swap3\n      swap2\n      pop\n      pop\n      jump\t// out\n        /* \"#utility.yul\":2909:3888   */\n    tag_8:\n        /* \"#utility.yul\":3006:3012   */\n      0x00\n        /* \"#utility.yul\":3014:3020   */\n      dup1\n        /* \"#utility.yul\":3022:3028   */\n      0x00\n        /* \"#utility.yul\":3071:3073   */\n      0x60\n        /* \"#utility.yul\":3059:3068   */\n      dup5\n        /* \"#utility.yul\":3050:3057   */\n      dup7\n        /* \"#utility.yul\":3046:3069   */\n      sub\n        /* \"#utility.yul\":3042:3074   */\n      slt\n        /* \"#utility.yul\":3039:3158   */\n      iszero\n      tag_141\n      jumpi\n        /* \"#utility.yul\":3077:3156   */\n      tag_142\n      tag_52\n      jump\t// in\n    tag_142:\n        /* \"#utility.yul\":3039:3158   */\n    tag_141:\n        /* \"#utility.yul\":3225:3226   */\n      0x00\n        /* \"#utility.yul\":3214:3223   */\n      dup5\n        /* \"#utility.yul\":3210:3227   */\n      add\n        /* \"#utility.yul\":3197:3228   */\n      calldataload\n        /* \"#utility.yul\":3255:3273   */\n      0xffffffffffffffff\n        /* \"#utility.yul\":3247:3253   */\n      dup2\n        /* \"#utility.yul\":3244:3274   */\n      gt\n        /* \"#utility.yul\":3241:3358   */\n      iszero\n      tag_143\n      jumpi\n        /* \"#utility.yul\":3277:3356   */\n      tag_144\n      tag_53\n      jump\t// in\n    tag_144:\n        /* \"#utility.yul\":3241:3358   */\n    tag_143:\n        /* \"#utility.yul\":3382:3445   */\n      tag_145\n        /* \"#utility.yul\":3437:3444   */\n      dup7\n        /* \"#utility.yul\":3428:3434   */\n      dup3\n        /* \"#utility.yul\":3417:3426   */\n      dup8\n        /* \"#utility.yul\":3413:3435   */\n      add\n        /* \"#utility.yul\":3382:3445   */\n      tag_63\n      jump\t// in\n    tag_145:\n        /* \"#utility.yul\":3372:3445   */\n      swap4\n      pop\n        /* \"#utility.yul\":3168:3455   */\n      pop\n        /* \"#utility.yul\":3494:3496   */\n      0x20\n        /* \"#utility.yul\":3520:3573   */\n      tag_146\n        /* \"#utility.yul\":3565:3572   */\n      dup7\n        /* \"#utility.yul\":3556:3562   */\n      dup3\n        /* \"#utility.yul\":3545:3554   */\n      dup8\n        /* \"#utility.yul\":3541:3563   */\n      add\n        /* \"#utility.yul\":3520:3573   */\n      tag_66\n      jump\t// in\n    tag_146:\n        /* \"#utility.yul\":3510:3573   */\n      swap3\n      pop\n        /* \"#utility.yul\":3465:3583   */\n      pop\n        /* \"#utility.yul\":3650:3652   */\n      0x40\n        /* \"#utility.yul\":3639:3648   */\n      dup5\n        /* \"#utility.yul\":3635:3653   */\n      add\n        /* \"#utility.yul\":3622:3654   */\n      calldataload\n        /* \"#utility.yul\":3681:3699   */\n      0xffffffffffffffff\n        /* \"#utility.yul\":3673:3679   */\n      dup2\n        /* \"#utility.yul\":3670:3700   */\n      gt\n        /* \"#utility.yul\":3667:3784   */\n      iszero\n      tag_147\n      jumpi\n        /* \"#utility.yul\":3703:3782   */\n      tag_148\n      tag_53\n      jump\t// in\n    tag_148:\n        /* \"#utility.yul\":3667:3784   */\n    tag_147:\n        /* \"#utility.yul\":3808:3871   */\n      tag_149\n        /* \"#utility.yul\":3863:3870   */\n      dup7\n        /* \"#utility.yul\":3854:3860   */\n      dup3\n        /* \"#utility.yul\":3843:3852   */\n      dup8\n        /* \"#utility.yul\":3839:3861   */\n      add\n        /* \"#utility.yul\":3808:3871   */\n      tag_63\n      jump\t// in\n    tag_149:\n        /* \"#utility.yul\":3798:3871   */\n      swap2\n      pop\n        /* \"#utility.yul\":3593:3881   */\n      pop\n        /* \"#utility.yul\":2909:3888   */\n      swap3\n      pop\n      swap3\n      pop\n      swap3\n      jump\t// out\n        /* \"#utility.yul\":3894:4223   */\n    tag_12:\n        /* \"#utility.yul\":3953:3959   */\n      0x00\n        /* \"#utility.yul\":4002:4004   */\n      0x20\n        /* \"#utility.yul\":3990:3999   */\n      dup3\n        /* \"#utility.yul\":3981:3988   */\n      dup5\n        /* \"#utility.yul\":3977:4000   */\n      sub\n        /* \"#utility.yul\":3973:4005   */\n      slt\n        /* \"#utility.yul\":3970:4089   */\n      iszero\n      tag_151\n      jumpi\n        /* \"#utility.yul\":4008:4087   */\n      tag_152\n      tag_52\n      jump\t// in\n    tag_152:\n        /* \"#utility.yul\":3970:4089   */\n    tag_151:\n        /* \"#utility.yul\":4128:4129   */\n      0x00\n        /* \"#utility.yul\":4153:4206   */\n      tag_153\n        /* \"#utility.yul\":4198:4205   */\n      dup5\n        /* \"#utility.yul\":4189:4195   */\n      dup3\n        /* \"#utility.yul\":4178:4187   */\n      dup6\n        /* \"#utility.yul\":4174:4196   */\n      add\n        /* \"#utility.yul\":4153:4206   */\n      tag_66\n      jump\t// in\n    tag_153:\n        /* \"#utility.yul\":4143:4206   */\n      swap2\n      pop\n        /* \"#utility.yul\":4099:4216   */\n      pop\n        /* \"#utility.yul\":3894:4223   */\n      swap3\n      swap2\n      pop\n      pop\n      jump\t// out\n        /* \"#utility.yul\":4229:4355   */\n    tag_67:\n        /* \"#utility.yul\":4266:4273   */\n      0x00\n        /* \"#utility.yul\":4306:4348   */\n      0xffffffffffffffffffffffffffffffffffffffff\n        /* \"#utility.yul\":4299:4304   */\n      dup3\n        /* \"#utility.yul\":4295:4349   */\n      and\n        /* \"#utility.yul\":4284:4349   */\n      swap1\n      pop\n        /* \"#utility.yul\":4229:4355   */\n      swap2\n      swap1\n      pop\n      jump\t// out\n        /* \"#utility.yul\":4361:4457   */\n    tag_68:\n        /* \"#utility.yul\":4398:4405   */\n      0x00\n        /* \"#utility.yul\":4427:4451   */\n      tag_156\n        /* \"#utility.yul\":4445:4450   */\n      dup3\n        /* \"#utility.yul\":4427:4451   */\n      tag_67\n      jump\t// in\n    tag_156:\n        /* \"#utility.yul\":4416:4451   */\n      swap1\n      pop\n        /* \"#utility.yul\":4361:4457   */\n      swap2\n      swap1\n      pop\n      jump\t// out\n        /* \"#utility.yul\":4463:4581   */\n    tag_69:\n        /* \"#utility.yul\":4550:4574   */\n      tag_158\n        /* \"#utility.yul\":4568:4573   */\n      dup2\n        /* \"#utility.yul\":4550:4574   */\n      tag_68\n      jump\t// in\n    tag_158:\n        /* \"#utility.yul\":4545:4548   */\n      dup3\n        /* \"#utility.yul\":4538:4575   */\n      mstore\n        /* \"#utility.yul\":4463:4581   */\n      pop\n      pop\n      jump\t// out\n        /* \"#utility.yul\":4587:4686   */\n    tag_70:\n        /* \"#utility.yul\":4639:4645   */\n      0x00\n        /* \"#utility.yul\":4673:4678   */\n      dup2\n        /* \"#utility.yul\":4667:4679   */\n      mload\n        /* \"#utility.yul\":4657:4679   */\n      swap1\n      pop\n        /* \"#utility.yul\":4587:4686   */\n      swap2\n      swap1\n      pop\n      jump\t// out\n        /* \"#utility.yul\":4692:4861   */\n    tag_71:\n        /* \"#utility.yul\":4776:4787   */\n      0x00\n        /* \"#utility.yul\":4810:4816   */\n      dup3\n        /* \"#utility.yul\":4805:4808   */\n      dup3\n        /* \"#utility.yul\":4798:4817   */\n      mstore\n        /* \"#utility.yul\":4850:4854   */\n      0x20\n        /* \"#utility.yul\":4845:4848   */\n      dup3\n        /* \"#utility.yul\":4841:4855   */\n      add\n        /* \"#utility.yul\":4826:4855   */\n      swap1\n      pop\n        /* \"#utility.yul\":4692:4861   */\n      swap3\n      swap2\n      pop\n      pop\n      jump\t// out\n        /* \"#utility.yul\":4867:5113   */\n    tag_72:\n        /* \"#utility.yul\":4948:4949   */\n      0x00\n        /* \"#utility.yul\":4958:5071   */\n    tag_162:\n        /* \"#utility.yul\":4972:4978   */\n      dup4\n        /* \"#utility.yul\":4969:4970   */\n      dup2\n        /* \"#utility.yul\":4966:4979   */\n      lt\n        /* \"#utility.yul\":4958:5071   */\n      iszero\n      tag_164\n      jumpi\n        /* \"#utility.yul\":5057:5058   */\n      dup1\n        /* \"#utility.yul\":5052:5055   */\n      dup3\n        /* \"#utility.yul\":5048:5059   */\n      add\n        /* \"#utility.yul\":5042:5060   */\n      mload\n        /* \"#utility.yul\":5038:5039   */\n      dup2\n        /* \"#utility.yul\":5033:5036   */\n      dup5\n        /* \"#utility.yul\":5029:5040   */\n      add\n        /* \"#utility.yul\":5022:5061   */\n      mstore\n        /* \"#utility.yul\":4994:4996   */\n      0x20\n        /* \"#utility.yul\":4991:4992   */\n      dup2\n        /* \"#utility.yul\":4987:4997   */\n      add\n        /* \"#utility.yul\":4982:4997   */\n      swap1\n      pop\n        /* \"#utility.yul\":4958:5071   */\n      jump(tag_162)\n    tag_164:\n        /* \"#utility.yul\":5105:5106   */\n      0x00\n        /* \"#utility.yul\":5096:5102   */\n      dup5\n        /* \"#utility.yul\":5091:5094   */\n      dup5\n        /* \"#utility.yul\":5087:5103   */\n      add\n        /* \"#utility.yul\":5080:5107   */\n      mstore\n        /* \"#utility.yul\":4929:5113   */\n      pop\n        /* \"#utility.yul\":4867:5113   */\n      pop\n      pop\n      pop\n      jump\t// out\n        /* \"#utility.yul\":5119:5496   */\n    tag_73:\n        /* \"#utility.yul\":5207:5210   */\n      0x00\n        /* \"#utility.yul\":5235:5274   */\n      tag_166\n        /* \"#utility.yul\":5268:5273   */\n      dup3\n        /* \"#utility.yul\":5235:5274   */\n      tag_70\n      jump\t// in\n    tag_166:\n        /* \"#utility.yul\":5290:5361   */\n      tag_167\n        /* \"#utility.yul\":5354:5360   */\n      dup2\n        /* \"#utility.yul\":5349:5352   */\n      dup6\n        /* \"#utility.yul\":5290:5361   */\n      tag_71\n      jump\t// in\n    tag_167:\n        /* \"#utility.yul\":5283:5361   */\n      swap4\n      pop\n        /* \"#utility.yul\":5370:5435   */\n      tag_168\n        /* \"#utility.yul\":5428:5434   */\n      dup2\n        /* \"#utility.yul\":5423:5426   */\n      dup6\n        /* \"#utility.yul\":5416:5420   */\n      0x20\n        /* \"#utility.yul\":5409:5414   */\n      dup7\n        /* \"#utility.yul\":5405:5421   */\n      add\n        /* \"#utility.yul\":5370:5435   */\n      tag_72\n      jump\t// in\n    tag_168:\n        /* \"#utility.yul\":5460:5489   */\n      tag_169\n        /* \"#utility.yul\":5482:5488   */\n      dup2\n        /* \"#utility.yul\":5460:5489   */\n      tag_56\n      jump\t// in\n    tag_169:\n        /* \"#utility.yul\":5455:5458   */\n      dup5\n        /* \"#utility.yul\":5451:5490   */\n      add\n        /* \"#utility.yul\":5444:5490   */\n      swap2\n      pop\n        /* \"#utility.yul\":5211:5496   */\n      pop\n        /* \"#utility.yul\":5119:5496   */\n      swap3\n      swap2\n      pop\n      pop\n      jump\t// out\n        /* \"#utility.yul\":5502:5620   */\n    tag_74:\n        /* \"#utility.yul\":5589:5613   */\n      tag_171\n        /* \"#utility.yul\":5607:5612   */\n      dup2\n        /* \"#utility.yul\":5589:5613   */\n      tag_64\n      jump\t// in\n    tag_171:\n        /* \"#utility.yul\":5584:5587   */\n      dup3\n        /* \"#utility.yul\":5577:5614   */\n      mstore\n        /* \"#utility.yul\":5502:5620   */\n      pop\n      pop\n      jump\t// out\n        /* \"#utility.yul\":5626:6472   */\n    tag_15:\n        /* \"#utility.yul\":5871:5875   */\n      0x00\n        /* \"#utility.yul\":5909:5912   */\n      0xa0\n        /* \"#utility.yul\":5898:5907   */\n      dup3\n        /* \"#utility.yul\":5894:5913   */\n      add\n        /* \"#utility.yul\":5886:5913   */\n      swap1\n      pop\n        /* \"#utility.yul\":5923:5994   */\n      tag_173\n        /* \"#utility.yul\":5991:5992   */\n      0x00\n        /* \"#utility.yul\":5980:5989   */\n      dup4\n        /* \"#utility.yul\":5976:5993   */\n      add\n        /* \"#utility.yul\":5967:5973   */\n      dup9\n        /* \"#utility.yul\":5923:5994   */\n      tag_69\n      jump\t// in\n    tag_173:\n        /* \"#utility.yul\":6041:6050   */\n      dup2\n        /* \"#utility.yul\":6035:6039   */\n      dup2\n        /* \"#utility.yul\":6031:6051   */\n      sub\n        /* \"#utility.yul\":6026:6028   */\n      0x20\n        /* \"#utility.yul\":6015:6024   */\n      dup4\n        /* \"#utility.yul\":6011:6029   */\n      add\n        /* \"#utility.yul\":6004:6052   */\n      mstore\n        /* \"#utility.yul\":6069:6147   */\n      tag_174\n        /* \"#utility.yul\":6142:6146   */\n      dup2\n        /* \"#utility.yul\":6133:6139   */\n      dup8\n        /* \"#utility.yul\":6069:6147   */\n      tag_73\n      jump\t// in\n    tag_174:\n        /* \"#utility.yul\":6061:6147   */\n      swap1\n      pop\n        /* \"#utility.yul\":6157:6229   */\n      tag_175\n        /* \"#utility.yul\":6225:6227   */\n      0x40\n        /* \"#utility.yul\":6214:6223   */\n      dup4\n        /* \"#utility.yul\":6210:6228   */\n      add\n        /* \"#utility.yul\":6201:6207   */\n      dup7\n        /* \"#utility.yul\":6157:6229   */\n      tag_74\n      jump\t// in\n    tag_175:\n        /* \"#utility.yul\":6276:6285   */\n      dup2\n        /* \"#utility.yul\":6270:6274   */\n      dup2\n        /* \"#utility.yul\":6266:6286   */\n      sub\n        /* \"#utility.yul\":6261:6263   */\n      0x60\n        /* \"#utility.yul\":6250:6259   */\n      dup4\n        /* \"#utility.yul\":6246:6264   */\n      add\n        /* \"#utility.yul\":6239:6287   */\n      mstore\n        /* \"#utility.yul\":6304:6382   */\n      tag_176\n        /* \"#utility.yul\":6377:6381   */\n      dup2\n        /* \"#utility.yul\":6368:6374   */\n      dup6\n        /* \"#utility.yul\":6304:6382   */\n      tag_73\n      jump\t// in\n    tag_176:\n        /* \"#utility.yul\":6296:6382   */\n      swap1\n      pop\n        /* \"#utility.yul\":6392:6465   */\n      tag_177\n        /* \"#utility.yul\":6460:6463   */\n      0x80\n        /* \"#utility.yul\":6449:6458   */\n      dup4\n        /* \"#utility.yul\":6445:6464   */\n      add\n        /* \"#utility.yul\":6436:6442   */\n      dup5\n        /* \"#utility.yul\":6392:6465   */\n      tag_74\n      jump\t// in\n    tag_177:\n        /* \"#utility.yul\":5626:6472   */\n      swap7\n      swap6\n      pop\n      pop\n      pop\n      pop\n      pop\n      pop\n      jump\t// out\n        /* \"#utility.yul\":6478:6586   */\n    tag_75:\n        /* \"#utility.yul\":6555:6579   */\n      tag_179\n        /* \"#utility.yul\":6573:6578   */\n      dup2\n        /* \"#utility.yul\":6555:6579   */\n      tag_68\n      jump\t// in\n    tag_179:\n        /* \"#utility.yul\":6550:6553   */\n      dup3\n        /* \"#utility.yul\":6543:6580   */\n      mstore\n        /* \"#utility.yul\":6478:6586   */\n      pop\n      pop\n      jump\t// out\n        /* \"#utility.yul\":6592:6751   */\n    tag_76:\n        /* \"#utility.yul\":6666:6677   */\n      0x00\n        /* \"#utility.yul\":6700:6706   */\n      dup3\n        /* \"#utility.yul\":6695:6698   */\n      dup3\n        /* \"#utility.yul\":6688:6707   */\n      mstore\n        /* \"#utility.yul\":6740:6744   */\n      0x20\n        /* \"#utility.yul\":6735:6738   */\n      dup3\n        /* \"#utility.yul\":6731:6745   */\n      add\n        /* \"#utility.yul\":6716:6745   */\n      swap1\n      pop\n        /* \"#utility.yul\":6592:6751   */\n      swap3\n      swap2\n      pop\n      pop\n      jump\t// out\n        /* \"#utility.yul\":6757:7114   */\n    tag_77:\n        /* \"#utility.yul\":6835:6838   */\n      0x00\n        /* \"#utility.yul\":6863:6902   */\n      tag_182\n        /* \"#utility.yul\":6896:6901   */\n      dup3\n        /* \"#utility.yul\":6863:6902   */\n      tag_70\n      jump\t// in\n    tag_182:\n        /* \"#utility.yul\":6918:6979   */\n      tag_183\n        /* \"#utility.yul\":6972:6978   */\n      dup2\n        /* \"#utility.yul\":6967:6970   */\n      dup6\n        /* \"#utility.yul\":6918:6979   */\n      tag_76\n      jump\t// in\n    tag_183:\n        /* \"#utility.yul\":6911:6979   */\n      swap4\n      pop\n        /* \"#utility.yul\":6988:7053   */\n      tag_184\n        /* \"#utility.yul\":7046:7052   */\n      dup2\n        /* \"#utility.yul\":7041:7044   */\n      dup6\n        /* \"#utility.yul\":7034:7038   */\n      0x20\n        /* \"#utility.yul\":7027:7032   */\n      dup7\n        /* \"#utility.yul\":7023:7039   */\n      add\n        /* \"#utility.yul\":6988:7053   */\n      tag_72\n      jump\t// in\n    tag_184:\n        /* \"#utility.yul\":7078:7107   */\n      tag_185\n        /* \"#utility.yul\":7100:7106   */\n      dup2\n        /* \"#utility.yul\":7078:7107   */\n      tag_56\n      jump\t// in\n    tag_185:\n        /* \"#utility.yul\":7073:7076   */\n      dup5\n        /* \"#utility.yul\":7069:7108   */\n      add\n        /* \"#utility.yul\":7062:7108   */\n      swap2\n      pop\n        /* \"#utility.yul\":6839:7114   */\n      pop\n        /* \"#utility.yul\":6757:7114   */\n      swap3\n      swap2\n      pop\n      pop\n      jump\t// out\n        /* \"#utility.yul\":7120:7228   */\n    tag_78:\n        /* \"#utility.yul\":7197:7221   */\n      tag_187\n        /* \"#utility.yul\":7215:7220   */\n      dup2\n        /* \"#utility.yul\":7197:7221   */\n      tag_64\n      jump\t// in\n    tag_187:\n        /* \"#utility.yul\":7192:7195   */\n      dup3\n        /* \"#utility.yul\":7185:7222   */\n      mstore\n        /* \"#utility.yul\":7120:7228   */\n      pop\n      pop\n      jump\t// out\n        /* \"#utility.yul\":7340:8581   */\n    tag_79:\n        /* \"#utility.yul\":7475:7478   */\n      0x00\n        /* \"#utility.yul\":7511:7515   */\n      0xa0\n        /* \"#utility.yul\":7506:7509   */\n      dup4\n        /* \"#utility.yul\":7502:7516   */\n      add\n        /* \"#utility.yul\":7598:7602   */\n      0x00\n        /* \"#utility.yul\":7591:7596   */\n      dup4\n        /* \"#utility.yul\":7587:7603   */\n      add\n        /* \"#utility.yul\":7581:7604   */\n      mload\n        /* \"#utility.yul\":7617:7680   */\n      tag_189\n        /* \"#utility.yul\":7674:7678   */\n      0x00\n        /* \"#utility.yul\":7669:7672   */\n      dup7\n        /* \"#utility.yul\":7665:7679   */\n      add\n        /* \"#utility.yul\":7651:7663   */\n      dup3\n        /* \"#utility.yul\":7617:7680   */\n      tag_75\n      jump\t// in\n    tag_189:\n        /* \"#utility.yul\":7526:7690   */\n      pop\n        /* \"#utility.yul\":7772:7776   */\n      0x20\n        /* \"#utility.yul\":7765:7770   */\n      dup4\n        /* \"#utility.yul\":7761:7777   */\n      add\n        /* \"#utility.yul\":7755:7778   */\n      mload\n        /* \"#utility.yul\":7825:7828   */\n      dup5\n        /* \"#utility.yul\":7819:7823   */\n      dup3\n        /* \"#utility.yul\":7815:7829   */\n      sub\n        /* \"#utility.yul\":7808:7812   */\n      0x20\n        /* \"#utility.yul\":7803:7806   */\n      dup7\n        /* \"#utility.yul\":7799:7813   */\n      add\n        /* \"#utility.yul\":7792:7830   */\n      mstore\n        /* \"#utility.yul\":7851:7924   */\n      tag_190\n        /* \"#utility.yul\":7919:7923   */\n      dup3\n        /* \"#utility.yul\":7905:7917   */\n      dup3\n        /* \"#utility.yul\":7851:7924   */\n      tag_77\n      jump\t// in\n    tag_190:\n        /* \"#utility.yul\":7843:7924   */\n      swap2\n      pop\n        /* \"#utility.yul\":7700:7935   */\n      pop\n        /* \"#utility.yul\":8027:8031   */\n      0x40\n        /* \"#utility.yul\":8020:8025   */\n      dup4\n        /* \"#utility.yul\":8016:8032   */\n      add\n        /* \"#utility.yul\":8010:8033   */\n      mload\n        /* \"#utility.yul\":8046:8109   */\n      tag_191\n        /* \"#utility.yul\":8103:8107   */\n      0x40\n        /* \"#utility.yul\":8098:8101   */\n      dup7\n        /* \"#utility.yul\":8094:8108   */\n      add\n        /* \"#utility.yul\":8080:8092   */\n      dup3\n        /* \"#utility.yul\":8046:8109   */\n      tag_78\n      jump\t// in\n    tag_191:\n        /* \"#utility.yul\":7945:8119   */\n      pop\n        /* \"#utility.yul\":8212:8216   */\n      0x60\n        /* \"#utility.yul\":8205:8210   */\n      dup4\n        /* \"#utility.yul\":8201:8217   */\n      add\n        /* \"#utility.yul\":8195:8218   */\n      mload\n        /* \"#utility.yul\":8265:8268   */\n      dup5\n        /* \"#utility.yul\":8259:8263   */\n      dup3\n        /* \"#utility.yul\":8255:8269   */\n      sub\n        /* \"#utility.yul\":8248:8252   */\n      0x60\n        /* \"#utility.yul\":8243:8246   */\n      dup7\n        /* \"#utility.yul\":8239:8253   */\n      add\n        /* \"#utility.yul\":8232:8270   */\n      mstore\n        /* \"#utility.yul\":8291:8364   */\n      tag_192\n        /* \"#utility.yul\":8359:8363   */\n      dup3\n        /* \"#utility.yul\":8345:8357   */\n      dup3\n        /* \"#utility.yul\":8291:8364   */\n      tag_77\n      jump\t// in\n    tag_192:\n        /* \"#utility.yul\":8283:8364   */\n      swap2\n      pop\n        /* \"#utility.yul\":8129:8375   */\n      pop\n        /* \"#utility.yul\":8462:8466   */\n      0x80\n        /* \"#utility.yul\":8455:8460   */\n      dup4\n        /* \"#utility.yul\":8451:8467   */\n      add\n        /* \"#utility.yul\":8445:8468   */\n      mload\n        /* \"#utility.yul\":8481:8544   */\n      tag_193\n        /* \"#utility.yul\":8538:8542   */\n      0x80\n        /* \"#utility.yul\":8533:8536   */\n      dup7\n        /* \"#utility.yul\":8529:8543   */\n      add\n        /* \"#utility.yul\":8515:8527   */\n      dup3\n        /* \"#utility.yul\":8481:8544   */\n      tag_78\n      jump\t// in\n    tag_193:\n        /* \"#utility.yul\":8385:8554   */\n      pop\n        /* \"#utility.yul\":8571:8575   */\n      dup1\n        /* \"#utility.yul\":8564:8575   */\n      swap2\n      pop\n        /* \"#utility.yul\":7480:8581   */\n      pop\n        /* \"#utility.yul\":7340:8581   */\n      swap3\n      swap2\n      pop\n      pop\n      jump\t// out\n        /* \"#utility.yul\":8587:8992   */\n    tag_20:\n        /* \"#utility.yul\":8746:8750   */\n      0x00\n        /* \"#utility.yul\":8784:8786   */\n      0x20\n        /* \"#utility.yul\":8773:8782   */\n      dup3\n        /* \"#utility.yul\":8769:8787   */\n      add\n        /* \"#utility.yul\":8761:8787   */\n      swap1\n      pop\n        /* \"#utility.yul\":8833:8842   */\n      dup2\n        /* \"#utility.yul\":8827:8831   */\n      dup2\n        /* \"#utility.yul\":8823:8843   */\n      sub\n        /* \"#utility.yul\":8819:8820   */\n      0x00\n        /* \"#utility.yul\":8808:8817   */\n      dup4\n        /* \"#utility.yul\":8804:8821   */\n      add\n        /* \"#utility.yul\":8797:8844   */\n      mstore\n        /* \"#utility.yul\":8861:8985   */\n      tag_195\n        /* \"#utility.yul\":8980:8984   */\n      dup2\n        /* \"#utility.yul\":8971:8977   */\n      dup5\n        /* \"#utility.yul\":8861:8985   */\n      tag_79\n      jump\t// in\n    tag_195:\n        /* \"#utility.yul\":8853:8985   */\n      swap1\n      pop\n        /* \"#utility.yul\":8587:8992   */\n      swap3\n      swap2\n      pop\n      pop\n      jump\t// out\n        /* \"#utility.yul\":8998:9092   */\n    tag_80:\n        /* \"#utility.yul\":9031:9039   */\n      0x00\n        /* \"#utility.yul\":9079:9084   */\n      dup2\n        /* \"#utility.yul\":9075:9077   */\n      0x60\n        /* \"#utility.yul\":9071:9085   */\n      shl\n        /* \"#utility.yul\":9050:9085   */\n      swap1\n      pop\n        /* \"#utility.yul\":8998:9092   */\n      swap2\n      swap1\n      pop\n      jump\t// out\n        /* \"#utility.yul\":9098:9192   */\n    tag_81:\n        /* \"#utility.yul\":9137:9144   */\n      0x00\n        /* \"#utility.yul\":9166:9186   */\n      tag_198\n        /* \"#utility.yul\":9180:9185   */\n      dup3\n        /* \"#utility.yul\":9166:9186   */\n      tag_80\n      jump\t// in\n    tag_198:\n        /* \"#utility.yul\":9155:9186   */\n      swap1\n      pop\n        /* \"#utility.yul\":9098:9192   */\n      swap2\n      swap1\n      pop\n      jump\t// out\n        /* \"#utility.yul\":9198:9298   */\n    tag_82:\n        /* \"#utility.yul\":9237:9244   */\n      0x00\n        /* \"#utility.yul\":9266:9292   */\n      tag_200\n        /* \"#utility.yul\":9286:9291   */\n      dup3\n        /* \"#utility.yul\":9266:9292   */\n      tag_81\n      jump\t// in\n    tag_200:\n        /* \"#utility.yul\":9255:9292   */\n      swap1\n      pop\n        /* \"#utility.yul\":9198:9298   */\n      swap2\n      swap1\n      pop\n      jump\t// out\n        /* \"#utility.yul\":9304:9461   */\n    tag_83:\n        /* \"#utility.yul\":9409:9454   */\n      tag_202\n        /* \"#utility.yul\":9429:9453   */\n      tag_203\n        /* \"#utility.yul\":9447:9452   */\n      dup3\n        /* \"#utility.yul\":9429:9453   */\n      tag_68\n      jump\t// in\n    tag_203:\n        /* \"#utility.yul\":9409:9454   */\n      tag_82\n      jump\t// in\n    tag_202:\n        /* \"#utility.yul\":9404:9407   */\n      dup3\n        /* \"#utility.yul\":9397:9455   */\n      mstore\n        /* \"#utility.yul\":9304:9461   */\n      pop\n      pop\n      jump\t// out\n        /* \"#utility.yul\":9467:9615   */\n    tag_84:\n        /* \"#utility.yul\":9569:9580   */\n      0x00\n        /* \"#utility.yul\":9606:9609   */\n      dup2\n        /* \"#utility.yul\":9591:9609   */\n      swap1\n      pop\n        /* \"#utility.yul\":9467:9615   */\n      swap3\n      swap2\n      pop\n      pop\n      jump\t// out\n        /* \"#utility.yul\":9621:10011   */\n    tag_85:\n        /* \"#utility.yul\":9727:9730   */\n      0x00\n        /* \"#utility.yul\":9755:9794   */\n      tag_206\n        /* \"#utility.yul\":9788:9793   */\n      dup3\n        /* \"#utility.yul\":9755:9794   */\n      tag_70\n      jump\t// in\n    tag_206:\n        /* \"#utility.yul\":9810:9899   */\n      tag_207\n        /* \"#utility.yul\":9892:9898   */\n      dup2\n        /* \"#utility.yul\":9887:9890   */\n      dup6\n        /* \"#utility.yul\":9810:9899   */\n      tag_84\n      jump\t// in\n    tag_207:\n        /* \"#utility.yul\":9803:9899   */\n      swap4\n      pop\n        /* \"#utility.yul\":9908:9973   */\n      tag_208\n        /* \"#utility.yul\":9966:9972   */\n      dup2\n        /* \"#utility.yul\":9961:9964   */\n      dup6\n        /* \"#utility.yul\":9954:9958   */\n      0x20\n        /* \"#utility.yul\":9947:9952   */\n      dup7\n        /* \"#utility.yul\":9943:9959   */\n      add\n        /* \"#utility.yul\":9908:9973   */\n      tag_72\n      jump\t// in\n    tag_208:\n        /* \"#utility.yul\":9998:10004   */\n      dup1\n        /* \"#utility.yul\":9993:9996   */\n      dup5\n        /* \"#utility.yul\":9989:10005   */\n      add\n        /* \"#utility.yul\":9982:10005   */\n      swap2\n      pop\n        /* \"#utility.yul\":9731:10011   */\n      pop\n        /* \"#utility.yul\":9621:10011   */\n      swap3\n      swap2\n      pop\n      pop\n      jump\t// out\n        /* \"#utility.yul\":10017:10096   */\n    tag_86:\n        /* \"#utility.yul\":10056:10063   */\n      0x00\n        /* \"#utility.yul\":10085:10090   */\n      dup2\n        /* \"#utility.yul\":10074:10090   */\n      swap1\n      pop\n        /* \"#utility.yul\":10017:10096   */\n      swap2\n      swap1\n      pop\n      jump\t// out\n        /* \"#utility.yul\":10102:10259   */\n    tag_87:\n        /* \"#utility.yul\":10207:10252   */\n      tag_211\n        /* \"#utility.yul\":10227:10251   */\n      tag_212\n        /* \"#utility.yul\":10245:10250   */\n      dup3\n        /* \"#utility.yul\":10227:10251   */\n      tag_64\n      jump\t// in\n    tag_212:\n        /* \"#utility.yul\":10207:10252   */\n      tag_86\n      jump\t// in\n    tag_211:\n        /* \"#utility.yul\":10202:10205   */\n      dup3\n        /* \"#utility.yul\":10195:10253   */\n      mstore\n        /* \"#utility.yul\":10102:10259   */\n      pop\n      pop\n      jump\t// out\n        /* \"#utility.yul\":10265:11123   */\n    tag_23:\n        /* \"#utility.yul\":10529:10532   */\n      0x00\n        /* \"#utility.yul\":10544:10619   */\n      tag_214\n        /* \"#utility.yul\":10615:10618   */\n      dup3\n        /* \"#utility.yul\":10606:10612   */\n      dup9\n        /* \"#utility.yul\":10544:10619   */\n      tag_83\n      jump\t// in\n    tag_214:\n        /* \"#utility.yul\":10644:10646   */\n      0x14\n        /* \"#utility.yul\":10639:10642   */\n      dup3\n        /* \"#utility.yul\":10635:10647   */\n      add\n        /* \"#utility.yul\":10628:10647   */\n      swap2\n      pop\n        /* \"#utility.yul\":10664:10759   */\n      tag_215\n        /* \"#utility.yul\":10755:10758   */\n      dup3\n        /* \"#utility.yul\":10746:10752   */\n      dup8\n        /* \"#utility.yul\":10664:10759   */\n      tag_85\n      jump\t// in\n    tag_215:\n        /* \"#utility.yul\":10657:10759   */\n      swap2\n      pop\n        /* \"#utility.yul\":10769:10844   */\n      tag_216\n        /* \"#utility.yul\":10840:10843   */\n      dup3\n        /* \"#utility.yul\":10831:10837   */\n      dup7\n        /* \"#utility.yul\":10769:10844   */\n      tag_87\n      jump\t// in\n    tag_216:\n        /* \"#utility.yul\":10869:10871   */\n      0x20\n        /* \"#utility.yul\":10864:10867   */\n      dup3\n        /* \"#utility.yul\":10860:10872   */\n      add\n        /* \"#utility.yul\":10853:10872   */\n      swap2\n      pop\n        /* \"#utility.yul\":10889:10984   */\n      tag_217\n        /* \"#utility.yul\":10980:10983   */\n      dup3\n        /* \"#utility.yul\":10971:10977   */\n      dup6\n        /* \"#utility.yul\":10889:10984   */\n      tag_85\n      jump\t// in\n    tag_217:\n        /* \"#utility.yul\":10882:10984   */\n      swap2\n      pop\n        /* \"#utility.yul\":10994:11069   */\n      tag_218\n        /* \"#utility.yul\":11065:11068   */\n      dup3\n        /* \"#utility.yul\":11056:11062   */\n      dup5\n        /* \"#utility.yul\":10994:11069   */\n      tag_87\n      jump\t// in\n    tag_218:\n        /* \"#utility.yul\":11094:11096   */\n      0x20\n        /* \"#utility.yul\":11089:11092   */\n      dup3\n        /* \"#utility.yul\":11085:11097   */\n      add\n        /* \"#utility.yul\":11078:11097   */\n      swap2\n      pop\n        /* \"#utility.yul\":11114:11117   */\n      dup2\n        /* \"#utility.yul\":11107:11117   */\n      swap1\n      pop\n        /* \"#utility.yul\":10265:11123   */\n      swap7\n      swap6\n      pop\n      pop\n      pop\n      pop\n      pop\n      pop\n      jump\t// out\n        /* \"#utility.yul\":11129:11309   */\n    tag_88:\n        /* \"#utility.yul\":11177:11254   */\n      0x4e487b7100000000000000000000000000000000000000000000000000000000\n        /* \"#utility.yul\":11174:11175   */\n      0x00\n        /* \"#utility.yul\":11167:11255   */\n      mstore\n        /* \"#utility.yul\":11274:11278   */\n      0x22\n        /* \"#utility.yul\":11271:11272   */\n      0x04\n        /* \"#utility.yul\":11264:11279   */\n      mstore\n        /* \"#utility.yul\":11298:11302   */\n      0x24\n        /* \"#utility.yul\":11295:11296   */\n      0x00\n        /* \"#utility.yul\":11288:11303   */\n      revert\n        /* \"#utility.yul\":11315:11635   */\n    tag_28:\n        /* \"#utility.yul\":11359:11365   */\n      0x00\n        /* \"#utility.yul\":11396:11397   */\n      0x02\n        /* \"#utility.yul\":11390:11394   */\n      dup3\n        /* \"#utility.yul\":11386:11398   */\n      div\n        /* \"#utility.yul\":11376:11398   */\n      swap1\n      pop\n        /* \"#utility.yul\":11443:11444   */\n      0x01\n        /* \"#utility.yul\":11437:11441   */\n      dup3\n        /* \"#utility.yul\":11433:11445   */\n      and\n        /* \"#utility.yul\":11464:11482   */\n      dup1\n        /* \"#utility.yul\":11454:11535   */\n      tag_221\n      jumpi\n        /* \"#utility.yul\":11520:11524   */\n      0x7f\n        /* \"#utility.yul\":11512:11518   */\n      dup3\n        /* \"#utility.yul\":11508:11525   */\n      and\n        /* \"#utility.yul\":11498:11525   */\n      swap2\n      pop\n        /* \"#utility.yul\":11454:11535   */\n    tag_221:\n        /* \"#utility.yul\":11582:11584   */\n      0x20\n        /* \"#utility.yul\":11574:11580   */\n      dup3\n        /* \"#utility.yul\":11571:11585   */\n      lt\n        /* \"#utility.yul\":11551:11569   */\n      dup2\n        /* \"#utility.yul\":11548:11586   */\n      sub\n        /* \"#utility.yul\":11545:11629   */\n      tag_222\n      jumpi\n        /* \"#utility.yul\":11601:11619   */\n      tag_223\n      tag_88\n      jump\t// in\n    tag_223:\n        /* \"#utility.yul\":11545:11629   */\n    tag_222:\n        /* \"#utility.yul\":11366:11635   */\n      pop\n        /* \"#utility.yul\":11315:11635   */\n      swap2\n      swap1\n      pop\n      jump\t// out\n        /* \"#utility.yul\":11641:11782   */\n    tag_89:\n        /* \"#utility.yul\":11690:11694   */\n      0x00\n        /* \"#utility.yul\":11713:11716   */\n      dup2\n        /* \"#utility.yul\":11705:11716   */\n      swap1\n      pop\n        /* \"#utility.yul\":11736:11739   */\n      dup2\n        /* \"#utility.yul\":11733:11734   */\n      0x00\n        /* \"#utility.yul\":11726:11740   */\n      mstore\n        /* \"#utility.yul\":11770:11774   */\n      0x20\n        /* \"#utility.yul\":11767:11768   */\n      0x00\n        /* \"#utility.yul\":11757:11775   */\n      keccak256\n        /* \"#utility.yul\":11749:11775   */\n      swap1\n      pop\n        /* \"#utility.yul\":11641:11782   */\n      swap2\n      swap1\n      pop\n      jump\t// out\n        /* \"#utility.yul\":11788:11881   */\n    tag_90:\n        /* \"#utility.yul\":11825:11831   */\n      0x00\n        /* \"#utility.yul\":11872:11874   */\n      0x20\n        /* \"#utility.yul\":11867:11869   */\n      0x1f\n        /* \"#utility.yul\":11860:11865   */\n      dup4\n        /* \"#utility.yul\":11856:11870   */\n      add\n        /* \"#utility.yul\":11852:11875   */\n      div\n        /* \"#utility.yul\":11842:11875   */\n      swap1\n      pop\n        /* \"#utility.yul\":11788:11881   */\n      swap2\n      swap1\n      pop\n      jump\t// out\n        /* \"#utility.yul\":11887:11994   */\n    tag_91:\n        /* \"#utility.yul\":11931:11939   */\n      0x00\n        /* \"#utility.yul\":11981:11986   */\n      dup3\n        /* \"#utility.yul\":11975:11979   */\n      dup3\n        /* \"#utility.yul\":11971:11987   */\n      shl\n        /* \"#utility.yul\":11950:11987   */\n      swap1\n      pop\n        /* \"#utility.yul\":11887:11994   */\n      swap3\n      swap2\n      pop\n      pop\n      jump\t// out\n        /* \"#utility.yul\":12000:12393   */\n    tag_92:\n        /* \"#utility.yul\":12069:12075   */\n      0x00\n        /* \"#utility.yul\":12119:12120   */\n      0x08\n        /* \"#utility.yul\":12107:12117   */\n      dup4\n        /* \"#utility.yul\":12103:12121   */\n      mul\n        /* \"#utility.yul\":12142:12239   */\n      tag_228\n        /* \"#utility.yul\":12172:12238   */\n      0xffffffffffffffffffffffffffffffffffffffffffffffffffffffffffffffff\n        /* \"#utility.yul\":12161:12170   */\n      dup3\n        /* \"#utility.yul\":12142:12239   */\n      tag_91\n      jump\t// in\n    tag_228:\n        /* \"#utility.yul\":12260:12299   */\n      tag_229\n        /* \"#utility.yul\":12290:12298   */\n      dup7\n        /* \"#utility.yul\":12279:12288   */\n      dup4\n        /* \"#utility.yul\":12260:12299   */\n      tag_91\n      jump\t// in\n    tag_229:\n        /* \"#utility.yul\":12248:12299   */\n      swap6\n      pop\n        /* \"#utility.yul\":12332:12336   */\n      dup1\n        /* \"#utility.yul\":12328:12337   */\n      not\n        /* \"#utility.yul\":12321:12326   */\n      dup5\n        /* \"#utility.yul\":12317:12338   */\n      and\n        /* \"#utility.yul\":12308:12338   */\n      swap4\n      pop\n        /* \"#utility.yul\":12381:12385   */\n      dup1\n        /* \"#utility.yul\":12371:12379   */\n      dup7\n        /* \"#utility.yul\":12367:12386   */\n      and\n        /* \"#utility.yul\":12360:12365   */\n      dup5\n        /* \"#utility.yul\":12357:12387   */\n      or\n        /* \"#utility.yul\":12347:12387   */\n      swap3\n      pop\n        /* \"#utility.yul\":12076:12393   */\n      pop\n      pop\n        /* \"#utility.yul\":12000:12393   */\n      swap4\n      swap3\n      pop\n      pop\n      pop\n      jump\t// out\n        /* \"#utility.yul\":12399:12459   */\n    tag_93:\n        /* \"#utility.yul\":12427:12430   */\n      0x00\n        /* \"#utility.yul\":12448:12453   */\n      dup2\n        /* \"#utility.yul\":12441:12453   */\n      swap1\n      pop\n        /* \"#utility.yul\":12399:12459   */\n      swap2\n      swap1\n      pop\n      jump\t// out\n        /* \"#utility.yul\":12465:12607   */\n    tag_94:\n        /* \"#utility.yul\":12515:12524   */\n      0x00\n        /* \"#utility.yul\":12548:12601   */\n      tag_232\n        /* \"#utility.yul\":12566:12600   */\n      tag_233\n        /* \"#utility.yul\":12575:12599   */\n      tag_234\n        /* \"#utility.yul\":12593:12598   */\n      dup5\n        /* \"#utility.yul\":12575:12599   */\n      tag_64\n      jump\t// in\n    tag_234:\n        /* \"#utility.yul\":12566:12600   */\n      tag_93\n      jump\t// in\n    tag_233:\n        /* \"#utility.yul\":12548:12601   */\n      tag_64\n      jump\t// in\n    tag_232:\n        /* \"#utility.yul\":12535:12601   */\n      swap1\n      pop\n        /* \"#utility.yul\":12465:12607   */\n      swap2\n      swap1\n      pop\n      jump\t// out\n        /* \"#utility.yul\":12613:12688   */\n    tag_95:\n        /* \"#utility.yul\":12656:12659   */\n      0x00\n        /* \"#utility.yul\":12677:12682   */\n      dup2\n        /* \"#utility.yul\":12670:12682   */\n      swap1\n      pop\n        /* \"#utility.yul\":12613:12688   */\n      swap2\n      swap1\n      pop\n      jump\t// out\n        /* \"#utility.yul\":12694:12963   */\n    tag_96:\n        /* \"#utility.yul\":12804:12843   */\n      tag_237\n        /* \"#utility.yul\":12835:12842   */\n      dup4\n        /* \"#utility.yul\":12804:12843   */\n      tag_94\n      jump\t// in\n    tag_237:\n        /* \"#utility.yul\":12865:12956   */\n      tag_238\n        /* \"#utility.yul\":12914:12955   */\n      tag_239\n        /* \"#utility.yul\":12938:12954   */\n      dup3\n        /* \"#utility.yul\":12914:12955   */\n      tag_95\n      jump\t// in\n    tag_239:\n        /* \"#utility.yul\":12906:12912   */\n      dup5\n        /* \"#utility.yul\":12899:12903   */\n      dup5\n        /* \"#utility.yul\":12893:12904   */\n      sload\n        /* \"#utility.yul\":12865:12956   */\n      tag_92\n      jump\t// in\n    tag_238:\n        /* \"#utility.yul\":12859:12863   */\n      dup3\n        /* \"#utility.yul\":12852:12957   */\n      sstore\n        /* \"#utility.yul\":12770:12963   */\n      pop\n        /* \"#utility.yul\":12694:12963   */\n      pop\n      pop\n      pop\n      jump\t// out\n        /* \"#utility.yul\":12969:13042   */\n    tag_97:\n        /* \"#utility.yul\":13014:13017   */\n      0x00\n        /* \"#utility.yul\":12969:13042   */\n      swap1\n      jump\t// out\n        /* \"#utility.yul\":13048:13237   */\n    tag_98:\n        /* \"#utility.yul\":13125:13157   */\n      tag_242\n      tag_97\n      jump\t// in\n    tag_242:\n        /* \"#utility.yul\":13166:13231   */\n      tag_243\n        /* \"#utility.yul\":13224:13230   */\n      dup2\n        /* \"#utility.yul\":13216:13222   */\n      dup5\n        /* \"#utility.yul\":13210:13214   */\n      dup5\n        /* \"#utility.yul\":13166:13231   */\n      tag_96\n      jump\t// in\n    tag_243:\n        /* \"#utility.yul\":13101:13237   */\n      pop\n        /* \"#utility.yul\":13048:13237   */\n      pop\n      pop\n      jump\t// out\n        /* \"#utility.yul\":13243:13429   */\n    tag_99:\n        /* \"#utility.yul\":13303:13423   */\n    tag_245:\n        /* \"#utility.yul\":13320:13323   */\n      dup2\n        /* \"#utility.yul\":13313:13318   */\n      dup2\n        /* \"#utility.yul\":13310:13324   */\n      lt\n        /* \"#utility.yul\":13303:13423   */\n      iszero\n      tag_247\n      jumpi\n        /* \"#utility.yul\":13374:13413   */\n      tag_248\n        /* \"#utility.yul\":13411:13412   */\n      0x00\n        /* \"#utility.yul\":13404:13409   */\n      dup3\n        /* \"#utility.yul\":13374:13413   */\n      tag_98\n      jump\t// in\n    tag_248:\n        /* \"#utility.yul\":13347:13348   */\n      0x01\n        /* \"#utility.yul\":13340:13345   */\n      dup2\n        /* \"#utility.yul\":13336:13349   */\n      add\n        /* \"#utility.yul\":13327:13349   */\n      swap1\n      pop\n        /* \"#utility.yul\":13303:13423   */\n      jump(tag_245)\n    tag_247:\n        /* \"#utility.yul\":13243:13429   */\n      pop\n      pop\n      jump\t// out\n        /* \"#utility.yul\":13435:13978   */\n    tag_100:\n        /* \"#utility.yul\":13536:13538   */\n      0x1f\n        /* \"#utility.yul\":13531:13534   */\n      dup3\n        /* \"#utility.yul\":13528:13539   */\n      gt\n        /* \"#utility.yul\":13525:13971   */\n      iszero\n      tag_250\n      jumpi\n        /* \"#utility.yul\":13570:13608   */\n      tag_251\n        /* \"#utility.yul\":13602:13607   */\n      dup2\n        /* \"#utility.yul\":13570:13608   */\n      tag_89\n      jump\t// in\n    tag_251:\n        /* \"#utility.yul\":13654:13683   */\n      tag_252\n        /* \"#utility.yul\":13672:13682   */\n      dup5\n        /* \"#utility.yul\":13654:13683   */\n      tag_90\n      jump\t// in\n    tag_252:\n        /* \"#utility.yul\":13644:13652   */\n      dup2\n        /* \"#utility.yul\":13640:13684   */\n      add\n        /* \"#utility.yul\":13837:13839   */\n      0x20\n        /* \"#utility.yul\":13825:13835   */\n      dup6\n        /* \"#utility.yul\":13822:13840   */\n      lt\n        /* \"#utility.yul\":13819:13868   */\n      iszero\n      tag_253\n      jumpi\n        /* \"#utility.yul\":13858:13866   */\n      dup2\n        /* \"#utility.yul\":13843:13866   */\n      swap1\n      pop\n        /* \"#utility.yul\":13819:13868   */\n    tag_253:\n        /* \"#utility.yul\":13881:13961   */\n      tag_254\n        /* \"#utility.yul\":13937:13959   */\n      tag_255\n        /* \"#utility.yul\":13955:13958   */\n      dup6\n        /* \"#utility.yul\":13937:13959   */\n      tag_90\n      jump\t// in\n    tag_255:\n        /* \"#utility.yul\":13927:13935   */\n      dup4\n        /* \"#utility.yul\":13923:13960   */\n      add\n        /* \"#utility.yul\":13910:13921   */\n      dup3\n        /* \"#utility.yul\":13881:13961   */\n      tag_99\n      jump\t// in\n    tag_254:\n        /* \"#utility.yul\":13540:13971   */\n      pop\n      pop\n        /* \"#utility.yul\":13525:13971   */\n    tag_250:\n        /* \"#utility.yul\":13435:13978   */\n      pop\n      pop\n      pop\n      jump\t// out\n        /* \"#utility.yul\":13984:14101   */\n    tag_101:\n        /* \"#utility.yul\":14038:14046   */\n      0x00\n        /* \"#utility.yul\":14088:14093   */\n      dup3\n        /* \"#utility.yul\":14082:14086   */\n      dup3\n        /* \"#utility.yul\":14078:14094   */\n      shr\n        /* \"#utility.yul\":14057:14094   */\n      swap1\n      pop\n        /* \"#utility.yul\":13984:14101   */\n      swap3\n      swap2\n      pop\n      pop\n      jump\t// out\n        /* \"#utility.yul\":14107:14276   */\n    tag_102:\n        /* \"#utility.yul\":14151:14157   */\n      0x00\n        /* \"#utility.yul\":14184:14235   */\n      tag_258\n        /* \"#utility.yul\":14232:14233   */\n      0x00\n        /* \"#utility.yul\":14228:14234   */\n      not\n        /* \"#utility.yul\":14220:14225   */\n      dup5\n        /* \"#utility.yul\":14217:14218   */\n      0x08\n        /* \"#utility.yul\":14213:14226   */\n      mul\n        /* \"#utility.yul\":14184:14235   */\n      tag_101\n      jump\t// in\n    tag_258:\n        /* \"#utility.yul\":14180:14236   */\n      not\n        /* \"#utility.yul\":14265:14269   */\n      dup1\n        /* \"#utility.yul\":14259:14263   */\n      dup4\n        /* \"#utility.yul\":14255:14270   */\n      and\n        /* \"#utility.yul\":14245:14270   */\n      swap2\n      pop\n        /* \"#utility.yul\":14158:14276   */\n      pop\n        /* \"#utility.yul\":14107:14276   */\n      swap3\n      swap2\n      pop\n      pop\n      jump\t// out\n        /* \"#utility.yul\":14281:14576   */\n    tag_103:\n        /* \"#utility.yul\":14357:14361   */\n      0x00\n        /* \"#utility.yul\":14503:14532   */\n      tag_260\n        /* \"#utility.yul\":14528:14531   */\n      dup4\n        /* \"#utility.yul\":14522:14526   */\n      dup4\n        /* \"#utility.yul\":14503:14532   */\n      tag_102\n      jump\t// in\n    tag_260:\n        /* \"#utility.yul\":14495:14532   */\n      swap2\n      pop\n        /* \"#utility.yul\":14565:14568   */\n      dup3\n        /* \"#utility.yul\":14562:14563   */\n      0x02\n        /* \"#utility.yul\":14558:14569   */\n      mul\n        /* \"#utility.yul\":14552:14556   */\n      dup3\n        /* \"#utility.yul\":14549:14570   */\n      or\n        /* \"#utility.yul\":14541:14570   */\n      swap1\n      pop\n        /* \"#utility.yul\":14281:14576   */\n      swap3\n      swap2\n      pop\n      pop\n      jump\t// out\n        /* \"#utility.yul\":14581:15976   */\n    tag_25:\n        /* \"#utility.yul\":14698:14735   */\n      tag_262\n        /* \"#utility.yul\":14731:14734   */\n      dup3\n        /* \"#utility.yul\":14698:14735   */\n      tag_70\n      jump\t// in\n    tag_262:\n        /* \"#utility.yul\":14800:14818   */\n      0xffffffffffffffff\n        /* \"#utility.yul\":14792:14798   */\n      dup2\n        /* \"#utility.yul\":14789:14819   */\n      gt\n        /* \"#utility.yul\":14786:14842   */\n      iszero\n      tag_263\n      jumpi\n        /* \"#utility.yul\":14822:14840   */\n      tag_264\n      tag_57\n      jump\t// in\n    tag_264:\n        /* \"#utility.yul\":14786:14842   */\n    tag_263:\n        /* \"#utility.yul\":14866:14904   */\n      tag_265\n        /* \"#utility.yul\":14898:14902   */\n      dup3\n        /* \"#utility.yul\":14892:14903   */\n      sload\n        /* \"#utility.yul\":14866:14904   */\n      tag_28\n      jump\t// in\n    tag_265:\n        /* \"#utility.yul\":14951:15018   */\n      tag_266\n        /* \"#utility.yul\":15011:15017   */\n      dup3\n        /* \"#utility.yul\":15003:15009   */\n      dup3\n        /* \"#utility.yul\":14997:15001   */\n      dup6\n        /* \"#utility.yul\":14951:15018   */\n      tag_100\n      jump\t// in\n    tag_266:\n        /* \"#utility.yul\":15045:15046   */\n      0x00\n        /* \"#utility.yul\":15069:15073   */\n      0x20\n        /* \"#utility.yul\":15056:15073   */\n      swap1\n      pop\n        /* \"#utility.yul\":15101:15103   */\n      0x1f\n        /* \"#utility.yul\":15093:15099   */\n      dup4\n        /* \"#utility.yul\":15090:15104   */\n      gt\n        /* \"#utility.yul\":15118:15119   */\n      0x01\n        /* \"#utility.yul\":15113:15731   */\n      dup2\n      eq\n      tag_268\n      jumpi\n        /* \"#utility.yul\":15775:15776   */\n      0x00\n        /* \"#utility.yul\":15792:15798   */\n      dup5\n        /* \"#utility.yul\":15789:15866   */\n      iszero\n      tag_269\n      jumpi\n        /* \"#utility.yul\":15841:15850   */\n      dup3\n        /* \"#utility.yul\":15836:15839   */\n      dup8\n        /* \"#utility.yul\":15832:15851   */\n      add\n        /* \"#utility.yul\":15826:15852   */\n      mload\n        /* \"#utility.yul\":15817:15852   */\n      swap1\n      pop\n        /* \"#utility.yul\":15789:15866   */\n    tag_269:\n        /* \"#utility.yul\":15892:15959   */\n      tag_270\n        /* \"#utility.yul\":15952:15958   */\n      dup6\n        /* \"#utility.yul\":15945:15950   */\n      dup3\n        /* \"#utility.yul\":15892:15959   */\n      tag_103\n      jump\t// in\n    tag_270:\n        /* \"#utility.yul\":15886:15890   */\n      dup7\n        /* \"#utility.yul\":15879:15960   */\n      sstore\n        /* \"#utility.yul\":15748:15970   */\n      pop\n        /* \"#utility.yul\":15083:15970   */\n      jump(tag_267)\n        /* \"#utility.yul\":15113:15731   */\n    tag_268:\n        /* \"#utility.yul\":15165:15169   */\n      0x1f\n        /* \"#utility.yul\":15161:15170   */\n      not\n        /* \"#utility.yul\":15153:15159   */\n      dup5\n        /* \"#utility.yul\":15149:15171   */\n      and\n        /* \"#utility.yul\":15199:15236   */\n      tag_271\n        /* \"#utility.yul\":15231:15235   */\n      dup7\n        /* \"#utility.yul\":15199:15236   */\n      tag_89\n      jump\t// in\n    tag_271:\n        /* \"#utility.yul\":15258:15259   */\n      0x00\n        /* \"#utility.yul\":15272:15480   */\n    tag_272:\n        /* \"#utility.yul\":15286:15293   */\n      dup3\n        /* \"#utility.yul\":15283:15284   */\n      dup2\n        /* \"#utility.yul\":15280:15294   */\n      lt\n        /* \"#utility.yul\":15272:15480   */\n      iszero\n      tag_274\n      jumpi\n        /* \"#utility.yul\":15365:15374   */\n      dup5\n        /* \"#utility.yul\":15360:15363   */\n      dup10\n        /* \"#utility.yul\":15356:15375   */\n      add\n        /* \"#utility.yul\":15350:15376   */\n      mload\n        /* \"#utility.yul\":15342:15348   */\n      dup3\n        /* \"#utility.yul\":15335:15377   */\n      sstore\n        /* \"#utility.yul\":15416:15417   */\n      0x01\n        /* \"#utility.yul\":15408:15414   */\n      dup3\n        /* \"#utility.yul\":15404:15418   */\n      add\n        /* \"#utility.yul\":15394:15418   */\n      swap2\n      pop\n        /* \"#utility.yul\":15463:15465   */\n      0x20\n        /* \"#utility.yul\":15452:15461   */\n      dup6\n        /* \"#utility.yul\":15448:15466   */\n      add\n        /* \"#utility.yul\":15435:15466   */\n      swap5\n      pop\n        /* \"#utility.yul\":15309:15313   */\n      0x20\n        /* \"#utility.yul\":15306:15307   */\n      dup2\n        /* \"#utility.yul\":15302:15314   */\n      add\n        /* \"#utility.yul\":15297:15314   */\n      swap1\n      pop\n        /* \"#utility.yul\":15272:15480   */\n      jump(tag_272)\n    tag_274:\n        /* \"#utility.yul\":15508:15514   */\n      dup7\n        /* \"#utility.yul\":15499:15506   */\n      dup4\n        /* \"#utility.yul\":15496:15515   */\n      lt\n        /* \"#utility.yul\":15493:15672   */\n      iszero\n      tag_275\n      jumpi\n        /* \"#utility.yul\":15566:15575   */\n      dup5\n        /* \"#utility.yul\":15561:15564   */\n      dup10\n        /* \"#utility.yul\":15557:15576   */\n      add\n        /* \"#utility.yul\":15551:15577   */\n      mload\n        /* \"#utility.yul\":15609:15657   */\n      tag_276\n        /* \"#utility.yul\":15651:15655   */\n      0x1f\n        /* \"#utility.yul\":15643:15649   */\n      dup10\n        /* \"#utility.yul\":15639:15656   */\n      and\n        /* \"#utility.yul\":15628:15637   */\n      dup3\n        /* \"#utility.yul\":15609:15657   */\n      tag_102\n      jump\t// in\n    tag_276:\n        /* \"#utility.yul\":15601:15607   */\n      dup4\n        /* \"#utility.yul\":15594:15658   */\n      sstore\n        /* \"#utility.yul\":15516:15672   */\n      pop\n        /* \"#utility.yul\":15493:15672   */\n    tag_275:\n        /* \"#utility.yul\":15718:15719   */\n      0x01\n        /* \"#utility.yul\":15714:15715   */\n      0x02\n        /* \"#utility.yul\":15706:15712   */\n      dup9\n        /* \"#utility.yul\":15702:15716   */\n      mul\n        /* \"#utility.yul\":15698:15720   */\n      add\n        /* \"#utility.yul\":15692:15696   */\n      dup9\n        /* \"#utility.yul\":15685:15721   */\n      sstore\n        /* \"#utility.yul\":15120:15731   */\n      pop\n      pop\n      pop\n        /* \"#utility.yul\":15083:15970   */\n    tag_267:\n      pop\n        /* \"#utility.yul\":14673:15976   */\n      pop\n      pop\n      pop\n        /* \"#utility.yul\":14581:15976   */\n      pop\n      pop\n      jump\t// out\n\n    auxdata: 0xa2646970667358221220c23bbd8fab48448f64fcf1fb8dc298895ec7d469b68b94fa4a573e70ecaf4f4664736f6c63430008110033\n}\n",
				"bytecode": {
					"linkReferences": {},
					"object": "608060405234801561001057600080fd5b50610dcf806100206000396000f3fe608060405234801561001057600080fd5b50600436106100415760003560e01c80636054aa611461004657806381d12c5814610062578063e046db3914610096575b600080fd5b610060600480360381019061005b91906106d0565b6100c6565b005b61007c6004803603810190610077919061075b565b6101db565b60405161008d959493929190610857565b60405180910390f35b6100b060048036038101906100ab919061075b565b610341565b6040516100bd919061099d565b60405180910390f35b600033848484426040516020016100e1959493929190610a64565b6040516020818303038152906040528051906020012060001c90506040518060a001604052803373ffffffffffffffffffffffffffffffffffffffff1681526020018581526020018481526020018381526020014281525060008083815260200190815260200160002060008201518160000160006101000a81548173ffffffffffffffffffffffffffffffffffffffff021916908373ffffffffffffffffffffffffffffffffffffffff16021790555060208201518160010190816101a79190610cc7565b506040820151816002015560608201518160030190816101c79190610cc7565b506080820151816004015590505050505050565b60006020528060005260406000206000915090508060000160009054906101000a900473ffffffffffffffffffffffffffffffffffffffff169080600101805461022490610aea565b80601f016020809104026020016040519081016040528092919081815260200182805461025090610aea565b801561029d5780601f106102725761010080835404028352916020019161029d565b820191906000526020600020905b81548152906001019060200180831161028057829003601f168201915b5050505050908060020154908060030180546102b890610aea565b80601f01602080910402602001604051908101604052809291908181526020018280546102e490610aea565b80156103315780601f1061030657610100808354040283529160200191610331565b820191906000526020600020905b81548152906001019060200180831161031457829003601f168201915b5050505050908060040154905085565b6103496104fb565b6000808381526020019081526020016000206040518060a00160405290816000820160009054906101000a900473ffffffffffffffffffffffffffffffffffffffff1673ffffffffffffffffffffffffffffffffffffffff1673ffffffffffffffffffffffffffffffffffffffff1681526020016001820180546103cc90610aea565b80601f01602080910402602001604051908101604052809291908181526020018280546103f890610aea565b80156104455780601f1061041a57610100808354040283529160200191610445565b820191906000526020600020905b81548152906001019060200180831161042857829003601f168201915b505050505081526020016002820154815260200160038201805461046890610aea565b80601f016020809104026020016040519081016040528092919081815260200182805461049490610aea565b80156104e15780601f106104b6576101008083540402835291602001916104e1565b820191906000526020600020905b8154815290600101906020018083116104c457829003601f168201915b505050505081526020016004820154815250509050919050565b6040518060a00160405280600073ffffffffffffffffffffffffffffffffffffffff168152602001606081526020016000815260200160608152602001600081525090565b6000604051905090565b600080fd5b600080fd5b600080fd5b600080fd5b6000601f19601f8301169050919050565b7f4e487b7100000000000000000000000000000000000000000000000000000000600052604160045260246000fd5b6105a78261055e565b810181811067ffffffffffffffff821117156105c6576105c561056f565b5b80604052505050565b60006105d9610540565b90506105e5828261059e565b919050565b600067ffffffffffffffff8211156106055761060461056f565b5b61060e8261055e565b9050602081019050919050565b82818337600083830152505050565b600061063d610638846105ea565b6105cf565b90508281526020810184848401111561065957610658610559565b5b61066484828561061b565b509392505050565b600082601f83011261068157610680610554565b5b813561069184826020860161062a565b91505092915050565b6000819050919050565b6106ad8161069a565b81146106b857600080fd5b50565b6000813590506106ca816106a4565b92915050565b6000806000606084860312156106e9576106e861054a565b5b600084013567ffffffffffffffff8111156107075761070661054f565b5b6107138682870161066c565b9350506020610724868287016106bb565b925050604084013567ffffffffffffffff8111156107455761074461054f565b5b6107518682870161066c565b9150509250925092565b6000602082840312156107715761077061054a565b5b600061077f848285016106bb565b91505092915050565b600073ffffffffffffffffffffffffffffffffffffffff82169050919050565b60006107b382610788565b9050919050565b6107c3816107a8565b82525050565b600081519050919050565b600082825260208201905092915050565b60005b838110156108035780820151818401526020810190506107e8565b60008484015250505050565b600061081a826107c9565b61082481856107d4565b93506108348185602086016107e5565b61083d8161055e565b840191505092915050565b6108518161069a565b82525050565b600060a08201905061086c60008301886107ba565b818103602083015261087e818761080f565b905061088d6040830186610848565b818103606083015261089f818561080f565b90506108ae6080830184610848565b9695505050505050565b6108c1816107a8565b82525050565b600082825260208201905092915050565b60006108e3826107c9565b6108ed81856108c7565b93506108fd8185602086016107e5565b6109068161055e565b840191505092915050565b61091a8161069a565b82525050565b600060a08301600083015161093860008601826108b8565b506020830151848203602086015261095082826108d8565b91505060408301516109656040860182610911565b506060830151848203606086015261097d82826108d8565b91505060808301516109926080860182610911565b508091505092915050565b600060208201905081810360008301526109b78184610920565b905092915050565b60008160601b9050919050565b60006109d7826109bf565b9050919050565b60006109e9826109cc565b9050919050565b610a016109fc826107a8565b6109de565b82525050565b600081905092915050565b6000610a1d826107c9565b610a278185610a07565b9350610a378185602086016107e5565b80840191505092915050565b6000819050919050565b610a5e610a598261069a565b610a43565b82525050565b6000610a7082886109f0565b601482019150610a808287610a12565b9150610a8c8286610a4d565b602082019150610a9c8285610a12565b9150610aa88284610a4d565b6020820191508190509695505050505050565b7f4e487b7100000000000000000000000000000000000000000000000000000000600052602260045260246000fd5b60006002820490506001821680610b0257607f821691505b602082108103610b1557610b14610abb565b5b50919050565b60008190508160005260206000209050919050565b60006020601f8301049050919050565b600082821b905092915050565b600060088302610b7d7fffffffffffffffffffffffffffffffffffffffffffffffffffffffffffffffff82610b40565b610b878683610b40565b95508019841693508086168417925050509392505050565b6000819050919050565b6000610bc4610bbf610bba8461069a565b610b9f565b61069a565b9050919050565b6000819050919050565b610bde83610ba9565b610bf2610bea82610bcb565b848454610b4d565b825550505050565b600090565b610c07610bfa565b610c12818484610bd5565b505050565b5b81811015610c3657610c2b600082610bff565b600181019050610c18565b5050565b601f821115610c7b57610c4c81610b1b565b610c5584610b30565b81016020851015610c64578190505b610c78610c7085610b30565b830182610c17565b50505b505050565b600082821c905092915050565b6000610c9e60001984600802610c80565b1980831691505092915050565b6000610cb78383610c8d565b9150826002028217905092915050565b610cd0826107c9565b67ffffffffffffffff811115610ce957610ce861056f565b5b610cf38254610aea565b610cfe828285610c3a565b600060209050601f831160018114610d315760008415610d1f578287015190505b610d298582610cab565b865550610d91565b601f198416610d3f86610b1b565b60005b82811015610d6757848901518255600182019150602085019450602081019050610d42565b86831015610d845784890151610d80601f891682610c8d565b8355505b6001600288020188555050505b50505050505056fea2646970667358221220c23bbd8fab48448f64fcf1fb8dc298895ec7d469b68b94fa4a573e70ecaf4f4664736f6c63430008110033",
					"opcodes": "PUSH1 0x80 PUSH1 0x40 MSTORE CALLVALUE DUP1 ISZERO PUSH2 0x10 JUMPI PUSH1 0x0 DUP1 REVERT JUMPDEST POP PUSH2 0xDCF DUP1 PUSH2 0x20 PUSH1 0x0 CODECOPY PUSH1 0x0 RETURN INVALID PUSH1 0x80 PUSH1 0x40 MSTORE CALLVALUE DUP1 ISZERO PUSH2 0x10 JUMPI PUSH1 0x0 DUP1 REVERT JUMPDEST POP PUSH1 0x4 CALLDATASIZE LT PUSH2 0x41 JUMPI PUSH1 0x0 CALLDATALOAD PUSH1 0xE0 SHR DUP1 PUSH4 0x6054AA61 EQ PUSH2 0x46 JUMPI DUP1 PUSH4 0x81D12C58 EQ PUSH2 0x62 JUMPI DUP1 PUSH4 0xE046DB39 EQ PUSH2 0x96 JUMPI JUMPDEST PUSH1 0x0 DUP1 REVERT JUMPDEST PUSH2 0x60 PUSH1 0x4 DUP1 CALLDATASIZE SUB DUP2 ADD SWAP1 PUSH2 0x5B SWAP2 SWAP1 PUSH2 0x6D0 JUMP JUMPDEST PUSH2 0xC6 JUMP JUMPDEST STOP JUMPDEST PUSH2 0x7C PUSH1 0x4 DUP1 CALLDATASIZE SUB DUP2 ADD SWAP1 PUSH2 0x77 SWAP2 SWAP1 PUSH2 0x75B JUMP JUMPDEST PUSH2 0x1DB JUMP JUMPDEST PUSH1 0x40 MLOAD PUSH2 0x8D SWAP6 SWAP5 SWAP4 SWAP3 SWAP2 SWAP1 PUSH2 0x857 JUMP JUMPDEST PUSH1 0x40 MLOAD DUP1 SWAP2 SUB SWAP1 RETURN JUMPDEST PUSH2 0xB0 PUSH1 0x4 DUP1 CALLDATASIZE SUB DUP2 ADD SWAP1 PUSH2 0xAB SWAP2 SWAP1 PUSH2 0x75B JUMP JUMPDEST PUSH2 0x341 JUMP JUMPDEST PUSH1 0x40 MLOAD PUSH2 0xBD SWAP2 SWAP1 PUSH2 0x99D JUMP JUMPDEST PUSH1 0x40 MLOAD DUP1 SWAP2 SUB SWAP1 RETURN JUMPDEST PUSH1 0x0 CALLER DUP5 DUP5 DUP5 TIMESTAMP PUSH1 0x40 MLOAD PUSH1 0x20 ADD PUSH2 0xE1 SWAP6 SWAP5 SWAP4 SWAP3 SWAP2 SWAP1 PUSH2 0xA64 JUMP JUMPDEST PUSH1 0x40 MLOAD PUSH1 0x20 DUP2 DUP4 SUB SUB DUP2 MSTORE SWAP1 PUSH1 0x40 MSTORE DUP1 MLOAD SWAP1 PUSH1 0x20 ADD KECCAK256 PUSH1 0x0 SHR SWAP1 POP PUSH1 0x40 MLOAD DUP1 PUSH1 0xA0 ADD PUSH1 0x40 MSTORE DUP1 CALLER PUSH20 0xFFFFFFFFFFFFFFFFFFFFFFFFFFFFFFFFFFFFFFFF AND DUP2 MSTORE PUSH1 0x20 ADD DUP6 DUP2 MSTORE PUSH1 0x20 ADD DUP5 DUP2 MSTORE PUSH1 0x20 ADD DUP4 DUP2 MSTORE PUSH1 0x20 ADD TIMESTAMP DUP2 MSTORE POP PUSH1 0x0 DUP1 DUP4 DUP2 MSTORE PUSH1 0x20 ADD SWAP1 DUP2 MSTORE PUSH1 0x20 ADD PUSH1 0x0 KECCAK256 PUSH1 0x0 DUP3 ADD MLOAD DUP2 PUSH1 0x0 ADD PUSH1 0x0 PUSH2 0x100 EXP DUP2 SLOAD DUP2 PUSH20 0xFFFFFFFFFFFFFFFFFFFFFFFFFFFFFFFFFFFFFFFF MUL NOT AND SWAP1 DUP4 PUSH20 0xFFFFFFFFFFFFFFFFFFFFFFFFFFFFFFFFFFFFFFFF AND MUL OR SWAP1 SSTORE POP PUSH1 0x20 DUP3 ADD MLOAD DUP2 PUSH1 0x1 ADD SWAP1 DUP2 PUSH2 0x1A7 SWAP2 SWAP1 PUSH2 0xCC7 JUMP JUMPDEST POP PUSH1 0x40 DUP3 ADD MLOAD DUP2 PUSH1 0x2 ADD SSTORE PUSH1 0x60 DUP3 ADD MLOAD DUP2 PUSH1 0x3 ADD SWAP1 DUP2 PUSH2 0x1C7 SWAP2 SWAP1 PUSH2 0xCC7 JUMP JUMPDEST POP PUSH1 0x80 DUP3 ADD MLOAD DUP2 PUSH1 0x4 ADD SSTORE SWAP1 POP POP POP POP POP POP JUMP JUMPDEST PUSH1 0x0 PUSH1 0x20 MSTORE DUP1 PUSH1 0x0 MSTORE PUSH1 0x40 PUSH1 0x0 KECCAK256 PUSH1 0x0 SWAP2 POP SWAP1 POP DUP1 PUSH1 0x0 ADD PUSH1 0x0 SWAP1 SLOAD SWAP1 PUSH2 0x100 EXP SWAP1 DIV PUSH20 0xFFFFFFFFFFFFFFFFFFFFFFFFFFFFFFFFFFFFFFFF AND SWAP1 DUP1 PUSH1 0x1 ADD DUP1 SLOAD PUSH2 0x224 SWAP1 PUSH2 0xAEA JUMP JUMPDEST DUP1 PUSH1 0x1F ADD PUSH1 0x20 DUP1 SWAP2 DIV MUL PUSH1 0x20 ADD PUSH1 0x40 MLOAD SWAP1 DUP2 ADD PUSH1 0x40 MSTORE DUP1 SWAP3 SWAP2 SWAP1 DUP2 DUP2 MSTORE PUSH1 0x20 ADD DUP3 DUP1 SLOAD PUSH2 0x250 SWAP1 PUSH2 0xAEA JUMP JUMPDEST DUP1 ISZERO PUSH2 0x29D JUMPI DUP1 PUSH1 0x1F LT PUSH2 0x272 JUMPI PUSH2 0x100 DUP1 DUP4 SLOAD DIV MUL DUP4 MSTORE SWAP2 PUSH1 0x20 ADD SWAP2 PUSH2 0x29D JUMP JUMPDEST DUP3 ADD SWAP2 SWAP1 PUSH1 0x0 MSTORE PUSH1 0x20 PUSH1 0x0 KECCAK256 SWAP1 JUMPDEST DUP2 SLOAD DUP2 MSTORE SWAP1 PUSH1 0x1 ADD SWAP1 PUSH1 0x20 ADD DUP1 DUP4 GT PUSH2 0x280 JUMPI DUP3 SWAP1 SUB PUSH1 0x1F AND DUP3 ADD SWAP2 JUMPDEST POP POP POP POP POP SWAP1 DUP1 PUSH1 0x2 ADD SLOAD SWAP1 DUP1 PUSH1 0x3 ADD DUP1 SLOAD PUSH2 0x2B8 SWAP1 PUSH2 0xAEA JUMP JUMPDEST DUP1 PUSH1 0x1F ADD PUSH1 0x20 DUP1 SWAP2 DIV MUL PUSH1 0x20 ADD PUSH1 0x40 MLOAD SWAP1 DUP2 ADD PUSH1 0x40 MSTORE DUP1 SWAP3 SWAP2 SWAP1 DUP2 DUP2 MSTORE PUSH1 0x20 ADD DUP3 DUP1 SLOAD PUSH2 0x2E4 SWAP1 PUSH2 0xAEA JUMP JUMPDEST DUP1 ISZERO PUSH2 0x331 JUMPI DUP1 PUSH1 0x1F LT PUSH2 0x306 JUMPI PUSH2 0x100 DUP1 DUP4 SLOAD DIV MUL DUP4 MSTORE SWAP2 PUSH1 0x20 ADD SWAP2 PUSH2 0x331 JUMP JUMPDEST DUP3 ADD SWAP2 SWAP1 PUSH1 0x0 MSTORE PUSH1 0x20 PUSH1 0x0 KECCAK256 SWAP1 JUMPDEST DUP2 SLOAD DUP2 MSTORE SWAP1 PUSH1 0x1 ADD SWAP1 PUSH1 0x20 ADD DUP1 DUP4 GT PUSH2 0x314 JUMPI DUP3 SWAP1 SUB PUSH1 0x1F AND DUP3 ADD SWAP2 JUMPDEST POP POP POP POP POP SWAP1 DUP1 PUSH1 0x4 ADD SLOAD SWAP1 POP DUP6 JUMP JUMPDEST PUSH2 0x349 PUSH2 0x4FB JUMP JUMPDEST PUSH1 0x0 DUP1 DUP4 DUP2 MSTORE PUSH1 0x20 ADD SWAP1 DUP2 MSTORE PUSH1 0x20 ADD PUSH1 0x0 KECCAK256 PUSH1 0x40 MLOAD DUP1 PUSH1 0xA0 ADD PUSH1 0x40 MSTORE SWAP1 DUP2 PUSH1 0x0 DUP3 ADD PUSH1 0x0 SWAP1 SLOAD SWAP1 PUSH2 0x100 EXP SWAP1 DIV PUSH20 0xFFFFFFFFFFFFFFFFFFFFFFFFFFFFFFFFFFFFFFFF AND PUSH20 0xFFFFFFFFFFFFFFFFFFFFFFFFFFFFFFFFFFFFFFFF AND PUSH20 0xFFFFFFFFFFFFFFFFFFFFFFFFFFFFFFFFFFFFFFFF AND DUP2 MSTORE PUSH1 0x20 ADD PUSH1 0x1 DUP3 ADD DUP1 SLOAD PUSH2 0x3CC SWAP1 PUSH2 0xAEA JUMP JUMPDEST DUP1 PUSH1 0x1F ADD PUSH1 0x20 DUP1 SWAP2 DIV MUL PUSH1 0x20 ADD PUSH1 0x40 MLOAD SWAP1 DUP2 ADD PUSH1 0x40 MSTORE DUP1 SWAP3 SWAP2 SWAP1 DUP2 DUP2 MSTORE PUSH1 0x20 ADD DUP3 DUP1 SLOAD PUSH2 0x3F8 SWAP1 PUSH2 0xAEA JUMP JUMPDEST DUP1 ISZERO PUSH2 0x445 JUMPI DUP1 PUSH1 0x1F LT PUSH2 0x41A JUMPI PUSH2 0x100 DUP1 DUP4 SLOAD DIV MUL DUP4 MSTORE SWAP2 PUSH1 0x20 ADD SWAP2 PUSH2 0x445 JUMP JUMPDEST DUP3 ADD SWAP2 SWAP1 PUSH1 0x0 MSTORE PUSH1 0x20 PUSH1 0x0 KECCAK256 SWAP1 JUMPDEST DUP2 SLOAD DUP2 MSTORE SWAP1 PUSH1 0x1 ADD SWAP1 PUSH1 0x20 ADD DUP1 DUP4 GT PUSH2 0x428 JUMPI DUP3 SWAP1 SUB PUSH1 0x1F AND DUP3 ADD SWAP2 JUMPDEST POP POP POP POP POP DUP2 MSTORE PUSH1 0x20 ADD PUSH1 0x2 DUP3 ADD SLOAD DUP2 MSTORE PUSH1 0x20 ADD PUSH1 0x3 DUP3 ADD DUP1 SLOAD PUSH2 0x468 SWAP1 PUSH2 0xAEA JUMP JUMPDEST DUP1 PUSH1 0x1F ADD PUSH1 0x20 DUP1 SWAP2 DIV MUL PUSH1 0x20 ADD PUSH1 0x40 MLOAD SWAP1 DUP2 ADD PUSH1 0x40 MSTORE DUP1 SWAP3 SWAP2 SWAP1 DUP2 DUP2 MSTORE PUSH1 0x20 ADD DUP3 DUP1 SLOAD PUSH2 0x494 SWAP1 PUSH2 0xAEA JUMP JUMPDEST DUP1 ISZERO PUSH2 0x4E1 JUMPI DUP1 PUSH1 0x1F LT PUSH2 0x4B6 JUMPI PUSH2 0x100 DUP1 DUP4 SLOAD DIV MUL DUP4 MSTORE SWAP2 PUSH1 0x20 ADD SWAP2 PUSH2 0x4E1 JUMP JUMPDEST DUP3 ADD SWAP2 SWAP1 PUSH1 0x0 MSTORE PUSH1 0x20 PUSH1 0x0 KECCAK256 SWAP1 JUMPDEST DUP2 SLOAD DUP2 MSTORE SWAP1 PUSH1 0x1 ADD SWAP1 PUSH1 0x20 ADD DUP1 DUP4 GT PUSH2 0x4C4 JUMPI DUP3 SWAP1 SUB PUSH1 0x1F AND DUP3 ADD SWAP2 JUMPDEST POP POP POP POP POP DUP2 MSTORE PUSH1 0x20 ADD PUSH1 0x4 DUP3 ADD SLOAD DUP2 MSTORE POP POP SWAP1 POP SWAP2 SWAP1 POP JUMP JUMPDEST PUSH1 0x40 MLOAD DUP1 PUSH1 0xA0 ADD PUSH1 0x40 MSTORE DUP1 PUSH1 0x0 PUSH20 0xFFFFFFFFFFFFFFFFFFFFFFFFFFFFFFFFFFFFFFFF AND DUP2 MSTORE PUSH1 0x20 ADD PUSH1 0x60 DUP2 MSTORE PUSH1 0x20 ADD PUSH1 0x0 DUP2 MSTORE PUSH1 0x20 ADD PUSH1 0x60 DUP2 MSTORE PUSH1 0x20 ADD PUSH1 0x0 DUP2 MSTORE POP SWAP1 JUMP JUMPDEST PUSH1 0x0 PUSH1 0x40 MLOAD SWAP1 POP SWAP1 JUMP JUMPDEST PUSH1 0x0 DUP1 REVERT JUMPDEST PUSH1 0x0 DUP1 REVERT JUMPDEST PUSH1 0x0 DUP1 REVERT JUMPDEST PUSH1 0x0 DUP1 REVERT JUMPDEST PUSH1 0x0 PUSH1 0x1F NOT PUSH1 0x1F DUP4 ADD AND SWAP1 POP SWAP2 SWAP1 POP JUMP JUMPDEST PUSH32 0x4E487B7100000000000000000000000000000000000000000000000000000000 PUSH1 0x0 MSTORE PUSH1 0x41 PUSH1 0x4 MSTORE PUSH1 0x24 PUSH1 0x0 REVERT JUMPDEST PUSH2 0x5A7 DUP3 PUSH2 0x55E JUMP JUMPDEST DUP2 ADD DUP2 DUP2 LT PUSH8 0xFFFFFFFFFFFFFFFF DUP3 GT OR ISZERO PUSH2 0x5C6 JUMPI PUSH2 0x5C5 PUSH2 0x56F JUMP JUMPDEST JUMPDEST DUP1 PUSH1 0x40 MSTORE POP POP POP JUMP JUMPDEST PUSH1 0x0 PUSH2 0x5D9 PUSH2 0x540 JUMP JUMPDEST SWAP1 POP PUSH2 0x5E5 DUP3 DUP3 PUSH2 0x59E JUMP JUMPDEST SWAP2 SWAP1 POP JUMP JUMPDEST PUSH1 0x0 PUSH8 0xFFFFFFFFFFFFFFFF DUP3 GT ISZERO PUSH2 0x605 JUMPI PUSH2 0x604 PUSH2 0x56F JUMP JUMPDEST JUMPDEST PUSH2 0x60E DUP3 PUSH2 0x55E JUMP JUMPDEST SWAP1 POP PUSH1 0x20 DUP2 ADD SWAP1 POP SWAP2 SWAP1 POP JUMP JUMPDEST DUP3 DUP2 DUP4 CALLDATACOPY PUSH1 0x0 DUP4 DUP4 ADD MSTORE POP POP POP JUMP JUMPDEST PUSH1 0x0 PUSH2 0x63D PUSH2 0x638 DUP5 PUSH2 0x5EA JUMP JUMPDEST PUSH2 0x5CF JUMP JUMPDEST SWAP1 POP DUP3 DUP2 MSTORE PUSH1 0x20 DUP2 ADD DUP5 DUP5 DUP5 ADD GT ISZERO PUSH2 0x659 JUMPI PUSH2 0x658 PUSH2 0x559 JUMP JUMPDEST JUMPDEST PUSH2 0x664 DUP5 DUP3 DUP6 PUSH2 0x61B JUMP JUMPDEST POP SWAP4 SWAP3 POP POP POP JUMP JUMPDEST PUSH1 0x0 DUP3 PUSH1 0x1F DUP4 ADD SLT PUSH2 0x681 JUMPI PUSH2 0x680 PUSH2 0x554 JUMP JUMPDEST JUMPDEST DUP2 CALLDATALOAD PUSH2 0x691 DUP5 DUP3 PUSH1 0x20 DUP7 ADD PUSH2 0x62A JUMP JUMPDEST SWAP2 POP POP SWAP3 SWAP2 POP POP JUMP JUMPDEST PUSH1 0x0 DUP2 SWAP1 POP SWAP2 SWAP1 POP JUMP JUMPDEST PUSH2 0x6AD DUP2 PUSH2 0x69A JUMP JUMPDEST DUP2 EQ PUSH2 0x6B8 JUMPI PUSH1 0x0 DUP1 REVERT JUMPDEST POP JUMP JUMPDEST PUSH1 0x0 DUP2 CALLDATALOAD SWAP1 POP PUSH2 0x6CA DUP2 PUSH2 0x6A4 JUMP JUMPDEST SWAP3 SWAP2 POP POP JUMP JUMPDEST PUSH1 0x0 DUP1 PUSH1 0x0 PUSH1 0x60 DUP5 DUP7 SUB SLT ISZERO PUSH2 0x6E9 JUMPI PUSH2 0x6E8 PUSH2 0x54A JUMP JUMPDEST JUMPDEST PUSH1 0x0 DUP5 ADD CALLDATALOAD PUSH8 0xFFFFFFFFFFFFFFFF DUP2 GT ISZERO PUSH2 0x707 JUMPI PUSH2 0x706 PUSH2 0x54F JUMP JUMPDEST JUMPDEST PUSH2 0x713 DUP7 DUP3 DUP8 ADD PUSH2 0x66C JUMP JUMPDEST SWAP4 POP POP PUSH1 0x20 PUSH2 0x724 DUP7 DUP3 DUP8 ADD PUSH2 0x6BB JUMP JUMPDEST SWAP3 POP POP PUSH1 0x40 DUP5 ADD CALLDATALOAD PUSH8 0xFFFFFFFFFFFFFFFF DUP2 GT ISZERO PUSH2 0x745 JUMPI PUSH2 0x744 PUSH2 0x54F JUMP JUMPDEST JUMPDEST PUSH2 0x751 DUP7 DUP3 DUP8 ADD PUSH2 0x66C JUMP JUMPDEST SWAP2 POP POP SWAP3 POP SWAP3 POP SWAP3 JUMP JUMPDEST PUSH1 0x0 PUSH1 0x20 DUP3 DUP5 SUB SLT ISZERO PUSH2 0x771 JUMPI PUSH2 0x770 PUSH2 0x54A JUMP JUMPDEST JUMPDEST PUSH1 0x0 PUSH2 0x77F DUP5 DUP3 DUP6 ADD PUSH2 0x6BB JUMP JUMPDEST SWAP2 POP POP SWAP3 SWAP2 POP POP JUMP JUMPDEST PUSH1 0x0 PUSH20 0xFFFFFFFFFFFFFFFFFFFFFFFFFFFFFFFFFFFFFFFF DUP3 AND SWAP1 POP SWAP2 SWAP1 POP JUMP JUMPDEST PUSH1 0x0 PUSH2 0x7B3 DUP3 PUSH2 0x788 JUMP JUMPDEST SWAP1 POP SWAP2 SWAP1 POP JUMP JUMPDEST PUSH2 0x7C3 DUP2 PUSH2 0x7A8 JUMP JUMPDEST DUP3 MSTORE POP POP JUMP JUMPDEST PUSH1 0x0 DUP2 MLOAD SWAP1 POP SWAP2 SWAP1 POP JUMP JUMPDEST PUSH1 0x0 DUP3 DUP3 MSTORE PUSH1 0x20 DUP3 ADD SWAP1 POP SWAP3 SWAP2 POP POP JUMP JUMPDEST PUSH1 0x0 JUMPDEST DUP4 DUP2 LT ISZERO PUSH2 0x803 JUMPI DUP1 DUP3 ADD MLOAD DUP2 DUP5 ADD MSTORE PUSH1 0x20 DUP2 ADD SWAP1 POP PUSH2 0x7E8 JUMP JUMPDEST PUSH1 0x0 DUP5 DUP5 ADD MSTORE POP POP POP POP JUMP JUMPDEST PUSH1 0x0 PUSH2 0x81A DUP3 PUSH2 0x7C9 JUMP JUMPDEST PUSH2 0x824 DUP2 DUP6 PUSH2 0x7D4 JUMP JUMPDEST SWAP4 POP PUSH2 0x834 DUP2 DUP6 PUSH1 0x20 DUP7 ADD PUSH2 0x7E5 JUMP JUMPDEST PUSH2 0x83D DUP2 PUSH2 0x55E JUMP JUMPDEST DUP5 ADD SWAP2 POP POP SWAP3 SWAP2 POP POP JUMP JUMPDEST PUSH2 0x851 DUP2 PUSH2 0x69A JUMP JUMPDEST DUP3 MSTORE POP POP JUMP JUMPDEST PUSH1 0x0 PUSH1 0xA0 DUP3 ADD SWAP1 POP PUSH2 0x86C PUSH1 0x0 DUP4 ADD DUP9 PUSH2 0x7BA JUMP JUMPDEST DUP2 DUP2 SUB PUSH1 0x20 DUP4 ADD MSTORE PUSH2 0x87E DUP2 DUP8 PUSH2 0x80F JUMP JUMPDEST SWAP1 POP PUSH2 0x88D PUSH1 0x40 DUP4 ADD DUP7 PUSH2 0x848 JUMP JUMPDEST DUP2 DUP2 SUB PUSH1 0x60 DUP4 ADD MSTORE PUSH2 0x89F DUP2 DUP6 PUSH2 0x80F JUMP JUMPDEST SWAP1 POP PUSH2 0x8AE PUSH1 0x80 DUP4 ADD DUP5 PUSH2 0x848 JUMP JUMPDEST SWAP7 SWAP6 POP POP POP POP POP POP JUMP JUMPDEST PUSH2 0x8C1 DUP2 PUSH2 0x7A8 JUMP JUMPDEST DUP3 MSTORE POP POP JUMP JUMPDEST PUSH1 0x0 DUP3 DUP3 MSTORE PUSH1 0x20 DUP3 ADD SWAP1 POP SWAP3 SWAP2 POP POP JUMP JUMPDEST PUSH1 0x0 PUSH2 0x8E3 DUP3 PUSH2 0x7C9 JUMP JUMPDEST PUSH2 0x8ED DUP2 DUP6 PUSH2 0x8C7 JUMP JUMPDEST SWAP4 POP PUSH2 0x8FD DUP2 DUP6 PUSH1 0x20 DUP7 ADD PUSH2 0x7E5 JUMP JUMPDEST PUSH2 0x906 DUP2 PUSH2 0x55E JUMP JUMPDEST DUP5 ADD SWAP2 POP POP SWAP3 SWAP2 POP POP JUMP JUMPDEST PUSH2 0x91A DUP2 PUSH2 0x69A JUMP JUMPDEST DUP3 MSTORE POP POP JUMP JUMPDEST PUSH1 0x0 PUSH1 0xA0 DUP4 ADD PUSH1 0x0 DUP4 ADD MLOAD PUSH2 0x938 PUSH1 0x0 DUP7 ADD DUP3 PUSH2 0x8B8 JUMP JUMPDEST POP PUSH1 0x20 DUP4 ADD MLOAD DUP5 DUP3 SUB PUSH1 0x20 DUP7 ADD MSTORE PUSH2 0x950 DUP3 DUP3 PUSH2 0x8D8 JUMP JUMPDEST SWAP2 POP POP PUSH1 0x40 DUP4 ADD MLOAD PUSH2 0x965 PUSH1 0x40 DUP7 ADD DUP3 PUSH2 0x911 JUMP JUMPDEST POP PUSH1 0x60 DUP4 ADD MLOAD DUP5 DUP3 SUB PUSH1 0x60 DUP7 ADD MSTORE PUSH2 0x97D DUP3 DUP3 PUSH2 0x8D8 JUMP JUMPDEST SWAP2 POP POP PUSH1 0x80 DUP4 ADD MLOAD PUSH2 0x992 PUSH1 0x80 DUP7 ADD DUP3 PUSH2 0x911 JUMP JUMPDEST POP DUP1 SWAP2 POP POP SWAP3 SWAP2 POP POP JUMP JUMPDEST PUSH1 0x0 PUSH1 0x20 DUP3 ADD SWAP1 POP DUP2 DUP2 SUB PUSH1 0x0 DUP4 ADD MSTORE PUSH2 0x9B7 DUP2 DUP5 PUSH2 0x920 JUMP JUMPDEST SWAP1 POP SWAP3 SWAP2 POP POP JUMP JUMPDEST PUSH1 0x0 DUP2 PUSH1 0x60 SHL SWAP1 POP SWAP2 SWAP1 POP JUMP JUMPDEST PUSH1 0x0 PUSH2 0x9D7 DUP3 PUSH2 0x9BF JUMP JUMPDEST SWAP1 POP SWAP2 SWAP1 POP JUMP JUMPDEST PUSH1 0x0 PUSH2 0x9E9 DUP3 PUSH2 0x9CC JUMP JUMPDEST SWAP1 POP SWAP2 SWAP1 POP JUMP JUMPDEST PUSH2 0xA01 PUSH2 0x9FC DUP3 PUSH2 0x7A8 JUMP JUMPDEST PUSH2 0x9DE JUMP JUMPDEST DUP3 MSTORE POP POP JUMP JUMPDEST PUSH1 0x0 DUP2 SWAP1 POP SWAP3 SWAP2 POP POP JUMP JUMPDEST PUSH1 0x0 PUSH2 0xA1D DUP3 PUSH2 0x7C9 JUMP JUMPDEST PUSH2 0xA27 DUP2 DUP6 PUSH2 0xA07 JUMP JUMPDEST SWAP4 POP PUSH2 0xA37 DUP2 DUP6 PUSH1 0x20 DUP7 ADD PUSH2 0x7E5 JUMP JUMPDEST DUP1 DUP5 ADD SWAP2 POP POP SWAP3 SWAP2 POP POP JUMP JUMPDEST PUSH1 0x0 DUP2 SWAP1 POP SWAP2 SWAP1 POP JUMP JUMPDEST PUSH2 0xA5E PUSH2 0xA59 DUP3 PUSH2 0x69A JUMP JUMPDEST PUSH2 0xA43 JUMP JUMPDEST DUP3 MSTORE POP POP JUMP JUMPDEST PUSH1 0x0 PUSH2 0xA70 DUP3 DUP9 PUSH2 0x9F0 JUMP JUMPDEST PUSH1 0x14 DUP3 ADD SWAP2 POP PUSH2 0xA80 DUP3 DUP8 PUSH2 0xA12 JUMP JUMPDEST SWAP2 POP PUSH2 0xA8C DUP3 DUP7 PUSH2 0xA4D JUMP JUMPDEST PUSH1 0x20 DUP3 ADD SWAP2 POP PUSH2 0xA9C DUP3 DUP6 PUSH2 0xA12 JUMP JUMPDEST SWAP2 POP PUSH2 0xAA8 DUP3 DUP5 PUSH2 0xA4D JUMP JUMPDEST PUSH1 0x20 DUP3 ADD SWAP2 POP DUP2 SWAP1 POP SWAP7 SWAP6 POP POP POP POP POP POP JUMP JUMPDEST PUSH32 0x4E487B7100000000000000000000000000000000000000000000000000000000 PUSH1 0x0 MSTORE PUSH1 0x22 PUSH1 0x4 MSTORE PUSH1 0x24 PUSH1 0x0 REVERT JUMPDEST PUSH1 0x0 PUSH1 0x2 DUP3 DIV SWAP1 POP PUSH1 0x1 DUP3 AND DUP1 PUSH2 0xB02 JUMPI PUSH1 0x7F DUP3 AND SWAP2 POP JUMPDEST PUSH1 0x20 DUP3 LT DUP2 SUB PUSH2 0xB15 JUMPI PUSH2 0xB14 PUSH2 0xABB JUMP JUMPDEST JUMPDEST POP SWAP2 SWAP1 POP JUMP JUMPDEST PUSH1 0x0 DUP2 SWAP1 POP DUP2 PUSH1 0x0 MSTORE PUSH1 0x20 PUSH1 0x0 KECCAK256 SWAP1 POP SWAP2 SWAP1 POP JUMP JUMPDEST PUSH1 0x0 PUSH1 0x20 PUSH1 0x1F DUP4 ADD DIV SWAP1 POP SWAP2 SWAP1 POP JUMP JUMPDEST PUSH1 0x0 DUP3 DUP3 SHL SWAP1 POP SWAP3 SWAP2 POP POP JUMP JUMPDEST PUSH1 0x0 PUSH1 0x8 DUP4 MUL PUSH2 0xB7D PUSH32 0xFFFFFFFFFFFFFFFFFFFFFFFFFFFFFFFFFFFFFFFFFFFFFFFFFFFFFFFFFFFFFFFF DUP3 PUSH2 0xB40 JUMP JUMPDEST PUSH2 0xB87 DUP7 DUP4 PUSH2 0xB40 JUMP JUMPDEST SWAP6 POP DUP1 NOT DUP5 AND SWAP4 POP DUP1 DUP7 AND DUP5 OR SWAP3 POP POP POP SWAP4 SWAP3 POP POP POP JUMP JUMPDEST PUSH1 0x0 DUP2 SWAP1 POP SWAP2 SWAP1 POP JUMP JUMPDEST PUSH1 0x0 PUSH2 0xBC4 PUSH2 0xBBF PUSH2 0xBBA DUP5 PUSH2 0x69A JUMP JUMPDEST PUSH2 0xB9F JUMP JUMPDEST PUSH2 0x69A JUMP JUMPDEST SWAP1 POP SWAP2 SWAP1 POP JUMP JUMPDEST PUSH1 0x0 DUP2 SWAP1 POP SWAP2 SWAP1 POP JUMP JUMPDEST PUSH2 0xBDE DUP4 PUSH2 0xBA9 JUMP JUMPDEST PUSH2 0xBF2 PUSH2 0xBEA DUP3 PUSH2 0xBCB JUMP JUMPDEST DUP5 DUP5 SLOAD PUSH2 0xB4D JUMP JUMPDEST DUP3 SSTORE POP POP POP POP JUMP JUMPDEST PUSH1 0x0 SWAP1 JUMP JUMPDEST PUSH2 0xC07 PUSH2 0xBFA JUMP JUMPDEST PUSH2 0xC12 DUP2 DUP5 DUP5 PUSH2 0xBD5 JUMP JUMPDEST POP POP POP JUMP JUMPDEST JUMPDEST DUP2 DUP2 LT ISZERO PUSH2 0xC36 JUMPI PUSH2 0xC2B PUSH1 0x0 DUP3 PUSH2 0xBFF JUMP JUMPDEST PUSH1 0x1 DUP2 ADD SWAP1 POP PUSH2 0xC18 JUMP JUMPDEST POP POP JUMP JUMPDEST PUSH1 0x1F DUP3 GT ISZERO PUSH2 0xC7B JUMPI PUSH2 0xC4C DUP2 PUSH2 0xB1B JUMP JUMPDEST PUSH2 0xC55 DUP5 PUSH2 0xB30 JUMP JUMPDEST DUP2 ADD PUSH1 0x20 DUP6 LT ISZERO PUSH2 0xC64 JUMPI DUP2 SWAP1 POP JUMPDEST PUSH2 0xC78 PUSH2 0xC70 DUP6 PUSH2 0xB30 JUMP JUMPDEST DUP4 ADD DUP3 PUSH2 0xC17 JUMP JUMPDEST POP POP JUMPDEST POP POP POP JUMP JUMPDEST PUSH1 0x0 DUP3 DUP3 SHR SWAP1 POP SWAP3 SWAP2 POP POP JUMP JUMPDEST PUSH1 0x0 PUSH2 0xC9E PUSH1 0x0 NOT DUP5 PUSH1 0x8 MUL PUSH2 0xC80 JUMP JUMPDEST NOT DUP1 DUP4 AND SWAP2 POP POP SWAP3 SWAP2 POP POP JUMP JUMPDEST PUSH1 0x0 PUSH2 0xCB7 DUP4 DUP4 PUSH2 0xC8D JUMP JUMPDEST SWAP2 POP DUP3 PUSH1 0x2 MUL DUP3 OR SWAP1 POP SWAP3 SWAP2 POP POP JUMP JUMPDEST PUSH2 0xCD0 DUP3 PUSH2 0x7C9 JUMP JUMPDEST PUSH8 0xFFFFFFFFFFFFFFFF DUP2 GT ISZERO PUSH2 0xCE9 JUMPI PUSH2 0xCE8 PUSH2 0x56F JUMP JUMPDEST JUMPDEST PUSH2 0xCF3 DUP3 SLOAD PUSH2 0xAEA JUMP JUMPDEST PUSH2 0xCFE DUP3 DUP3 DUP6 PUSH2 0xC3A JUMP JUMPDEST PUSH1 0x0 PUSH1 0x20 SWAP1 POP PUSH1 0x1F DUP4 GT PUSH1 0x1 DUP2 EQ PUSH2 0xD31 JUMPI PUSH1 0x0 DUP5 ISZERO PUSH2 0xD1F JUMPI DUP3 DUP8 ADD MLOAD SWAP1 POP JUMPDEST PUSH2 0xD29 DUP6 DUP3 PUSH2 0xCAB JUMP JUMPDEST DUP7 SSTORE POP PUSH2 0xD91 JUMP JUMPDEST PUSH1 0x1F NOT DUP5 AND PUSH2 0xD3F DUP7 PUSH2 0xB1B JUMP JUMPDEST PUSH1 0x0 JUMPDEST DUP3 DUP2 LT ISZERO PUSH2 0xD67 JUMPI DUP5 DUP10 ADD MLOAD DUP3 SSTORE PUSH1 0x1 DUP3 ADD SWAP2 POP PUSH1 0x20 DUP6 ADD SWAP5 POP PUSH1 0x20 DUP2 ADD SWAP1 POP PUSH2 0xD42 JUMP JUMPDEST DUP7 DUP4 LT ISZERO PUSH2 0xD84 JUMPI DUP5 DUP10 ADD MLOAD PUSH2 0xD80 PUSH1 0x1F DUP10 AND DUP3 PUSH2 0xC8D JUMP JUMPDEST DUP4 SSTORE POP JUMPDEST PUSH1 0x1 PUSH1 0x2 DUP9 MUL ADD DUP9 SSTORE POP POP POP JUMPDEST POP POP POP POP POP POP JUMP INVALID LOG2 PUSH5 0x6970667358 0x22 SLT KECCAK256 0xC2 EXTCODESIZE 0xBD DUP16 0xAB BASEFEE DIFFICULTY DUP16 PUSH5 0xFCF1FB8DC2 SWAP9 DUP10 0x5E 0xC7 0xD4 PUSH10 0xB68B94FA4A573E70ECAF 0x4F CHAINID PUSH5 0x736F6C6343 STOP ADDMOD GT STOP CALLER "
				},
				"gasEstimates": {
					"creation": {
						"codeDepositCost": "707000",
						"executionCost": "741",
						"totalCost": "707741"
					},
					"external": {
						"getPredictionRequest(uint256)": "infinite",
						"requests(uint256)": "infinite",
						"storePredictionRequest(string,uint256,string)": "infinite"
					}
				},
				"methodIdentifiers": {
					"getPredictionRequest(uint256)": "e046db39",
					"requests(uint256)": "81d12c58",
					"storePredictionRequest(string,uint256,string)": "6054aa61"
				}
			},
			"storageLayout": {
				"storage": [
					{
						"astId": 17,
						"contract": "contracts/YieldPredictionStorage.sol:YieldPredictionStorage",
						"label": "requests",
						"offset": 0,
						"slot": "0",
						"type": "t_mapping(t_uint256,t_struct(PredictionRequest)12_storage)"
					}
				],
				"types": {
					"t_address": {
						"encoding": "inplace",
						"label": "address",
						"numberOfBytes": "20"
					},
					"t_mapping(t_uint256,t_struct(PredictionRequest)12_storage)": {
						"encoding": "mapping",
						"key": "t_uint256",
						"label": "mapping(uint256 => struct YieldPredictionStorage.PredictionRequest)",
						"numberOfBytes": "32",
						"value": "t_struct(PredictionRequest)12_storage"
					},
					"t_string_storage": {
						"encoding": "bytes",
						"label": "string",
						"numberOfBytes": "32"
					},
					"t_struct(PredictionRequest)12_storage": {
						"encoding": "inplace",
						"label": "struct YieldPredictionStorage.PredictionRequest",
						"members": [
							{
								"astId": 3,
								"contract": "contracts/YieldPredictionStorage.sol:YieldPredictionStorage",
								"label": "user",
								"offset": 0,
								"slot": "0",
								"type": "t_address"
							},
							{
								"astId": 5,
								"contract": "contracts/YieldPredictionStorage.sol:YieldPredictionStorage",
								"label": "crop",
								"offset": 0,
								"slot": "1",
								"type": "t_string_storage"
							},
							{
								"astId": 7,
								"contract": "contracts/YieldPredictionStorage.sol:YieldPredictionStorage",
								"label": "predictedYield",
								"offset": 0,
								"slot": "2",
								"type": "t_uint256"
							},
							{
								"astId": 9,
								"contract": "contracts/YieldPredictionStorage.sol:YieldPredictionStorage",
								"label": "analysisDetails",
								"offset": 0,
								"slot": "3",
								"type": "t_string_storage"
							},
							{
								"astId": 11,
								"contract": "contracts/YieldPredictionStorage.sol:YieldPredictionStorage",
								"label": "timestamp",
								"offset": 0,
								"slot": "4",
								"type": "t_uint256"
							}
						],
						"numberOfBytes": "160"
					},
					"t_uint256": {
						"encoding": "inplace",
						"label": "uint256",
						"numberOfBytes": "32"
					}
				}
			},
			"userdoc": {
				"kind": "user",
				"methods": {},
				"version": 1
			}
		}
	}
}